:202062007467C0E0743CC0E01230A8158115817487C0E0743CC0E01230A815811581758285
:202082001012294DAE82AF838E048F05C374FF9CE49D501874B1C0E0743CC0E07480C0E0BA
:2020A20012321F158115811581022148C007C00674FCC0E0743CC0E07480C0E012321F1595
:2020C200811581158174FFC0E0743CC0E01230A81581158175821012294DAC82AD83D00615
:2020E200D0078C028D03C374FF9A74079B5017742BC0E0743DC0E07480C0E012321F15817F
:20210200158115818040C007C006C005C00474FCC0E0743CC0E07480C0E012321F158115B9
:20212200811581D004D005D006D007900408EEF08C828D83122514747CC0E0743DC0E0125A
:2021420030A8158115812274A6C0E0743DC0E01230A81581158174FFC0E0743CC0E0123091
:20216200A81581158175821012294DAE82AF838E048F05C374FF9C74079D501774C8C0E045
:20218200743DC0E07480C0E012321F1581158115818060C007C00674FCC0E0743CC0E074F2
:2021A20080C0E012321F158115811581D006D0078E828F83C007C006122577AD82C0057466
:2021C20019C0E0743EC0E01230A815811581D005D006D0077C00C006C007C005C004744410
:2021E200C0E0743EC0E07480C0E012321FE58124F9F58122AF83E582900402F0EFA3F074C4
:202202006DC0E0743EC0E01230A815811581900402E0FEA3E0FF900400E0FCA3E0FD7B00E6
:20222200C3EC9EED9F50030222F7EB540F705AC004C00590000AC007C006C005C004C00341
:2022420012276290000D122762D003D004D005D006D0078E008F017A007D0090045A740306
:20226200F0888289838AF0EDC007C006C005C004C003122B6890003A122762D003D004D095
:2022820005D006D007D005D004C004C005900020C007C006C005C004C003122762D003D091
:2022A20004D005D006D0078E828F83C007C006C005C004C003122577AA82D003D004D00545
:2022C2008A0079007A007D0090045A7402F0888289838AF0EDC005C004C003122B68D0036D
:2022E200D004D005D006D0070EBE00010F0BD005D004022222748AC0E0743EC0E07480C00C
:20230200E012321F158115811581227491C0E0743EC0E01230A81581158175821012294DF8
:20232200AE82AF838E048F05C374FF9C74079D501774BDC0E0743EC0E07480C0E012321FA8
:202342001581158115818054C007C0067415C0E0743FC0E01230A815811581758210122984
:202362004DAC82AD83D006D0078C028D03C374FF9A74079B5017743FC0E0743FC0E07480FE
:20238200C0E012321F158115811581800F900400ECF0EDA3F08E828F831221F6227495C0C1
:2023A200E0743FC0E01230A8158115817E007F007C007D00C3EC94E8ED6480948350070C66
:2023C200BC00F10D80EE90040874FFF08E828F83C007C006122514D006D0070EBE00010F51
:1D23E2008E048F05C374FF9C74079D50C374E1C0E0743FC0E01230A815811581223B
:203C67001B5B313B33336D0A0D57726974696E6720746F20454550524F4D2021210D0A0029
:203C87001B5B313B33336D0A0D456E746572204461746120746F2070757420696E746F2043
:203CA700454550524F4D0D0A09001B5B313B33316D0A0D496E76616C6964204461746120CA
:203CC70052616E67652121200A0D446174612068617320746F206265206265747765656EAD
:203CE700203078303020746F2030784646201B5B306D0D0A000D0A001B5B313B33336D0A1E
:203D07000D456E746572204164647265737320746F2070757420696E746F20454550524FBA
:203D27004D0D0A001B5B313B33316D0A0D496E76616C696420416464726573732052616E60
:203D4700676521210A0D416464726573732068617320746F206265206265747765656E2001
:203D6700307830303020746F2030783746461B5B306D0D0A001B5B313B33336D0A0D4669D1
:203D87006E6973686564207772697474696E6720746F20454550524F4D2021210D0A001B8A
:203DA7005B313B33336D0A0D52656164696E672066726F6D20454550524F4D2021210D0A5C
:203DC700001B5B313B33316D0A0D496E76616C6964204164726573732052616E676521217A
:203DE7000A0D20416464726573732068617320746F206265206265747765656E2030783077
:203E0700303020746F2030783746461B5B306D0D0A001B5B313B33336D0A0D5265616469D2
:203E27006E672066726F6D20454550524F4D20436F6D706C6574656421210D0A000A0D4479
:203E4700617461203D2025782070726573656E74206174204C6F636174696F6E203D2030EF
:203E67002578200A0D001B5B313B33346D0A0D49324320454550524F4D2044554D5021215C
:203E87000D0A001B5B306D0D0A001B5B313B33336D0A0D456E746572205374617274204181
:203EA70064647265737320666F72204845582044756D700D0A001B5B313B33316D0A0D492A
:203EC7006E76616C696420537461727420416464726573732052616E676521210A0D204182
:203EE7006464726573732068617320746F206265206265747765656E2030783030302074FA
:203F07006F2030783746461B5B306D0D0A001B5B313B33336D0A0D456E74657220456E6475
:203F2700204164647265737320666F72204845582044756D700D0A001B5B313B33316D0A9E
:203F47000D496E76616C696420456E6420416464726573732052616E676521210A0D2041A2
:203F67006464726573732068617320746F206265206265747765656E203078303030207479
:203F87006F2030783746461B5B306D0D0A001B5B313B33336D0A0D466C617368696E6720DE
:203FA700454550524F4D20776974682030784646206461746120617420616C6C20616464B1
:203FC70072657373657321210D0A504C45415345205741495421210A0D001B5B313B33333C
:1D3FE7006D0A0D454550524F4D2066696C6C6564207769746820307846460D0A009A
:2023FF0075820112242075820012242022E582900404F0E0FFBF0103EF8001E424FF9296D1
:20241F0022E582900405F0E0FFBF0103EF8001E424FF9295221223FF2096FD227582001217
:20243F00242075820112240C75820112242075820012240C2275820112240C7582011224EE
:20245F002075820012240C7582001224202275820012240C75820112242075820112240CD4
:20247F0075820012242022E582900406F07582001224207F00BF08005028900406E030E741
:20249F00067D017E0080047D007E008D82C00712240C1223FFD007900406E025E0FEF00FFD
:2024BF0080D375820012240C22900407E4F075820112240C7F00BF08005033758201C0071E
:2024DF00122420D007900407E025E0F030960A900407E043E001F08008900407E053E0FEAD
:2024FF00F0758200C007122420D0070F80C8900407E0F58222AF83E582900409F0EFA3F0CF
:20251F00900409E0FEA3E0FF90040BEEF0EFA2E7CE33CE33CE5401FF900409EEF0EFA3F089
:20253F00900409E0FEA3E074A04E54AEFFC007122454D0078F8212248612243490040BE03D
:20255F00F582122486122434900408E0F58212248612243412246D22AF83E58290040CF0B8
:20257F00EFA3F090040CE0FEA3E0FF90040EEEF0EFA2E7CE33CE33CE5401FF90040CEEF020
:20259F00EFA3F090040CE0FEA3E074A04E54AEFFC007122454D0078F82C007122486122444
:2025BF003490040EE0F582122486122434D007430701C007122454D0078F8212248612245C
:2025DF00341224C8AF82C00712243B12246DD0078F82221224547F00758201C00712240C8A
:0F25FF001223FFD0070FBF090040ED12246D22F9
:03200000022006B5
:03205F0002200359
:032003000226159D
:20260E00438E0C900000221228721225F2122CF690046A7424F0E4A3F090400475F080124C
:20262E002CB890046A7424F0E4A3F090403A75F080122CB890046A7424F0E4A3F090407089
:20264E0075F080122CB890046A7424F0E4A3F090403A75F080122CB890046A7424F0E4A3A2
:20266E00F09040A675F080122CB8122754AE828E057F008D828F83C00612276290002012F8
:20268E002762D006BE43028053BE46028039BE5202801FBE57028005BE587A805474DEC075
:2026AE00E07440C0E01230A81581158112206202261E74DEC0E07440C0E01230A81581150D
:2026CE008112214902261E74DEC0E07440C0E01230A81581158112230D02261E74DEC0E0D3
:2026EE007440C0E01230A81581158112239F02261E74DEC0E07440C0E01230A815811581EC
:20270E001225F274E1C0E07440C0E01230A81581158102261E74DEC0E07440C0E01230A8AD
:20272E001581158174FBC0E07440C0E01230A8158115817418C0E07441C0E01230A81581E5
:06274E00158102261E2287
:204004002B2D2D2D2D2D2D2D2D2D2D2D2D2D2D2D2D2D2D2D2D2D2D2D2D2D2D2D2D2D2D2DFE
:204024002D2D2D2D2D2D2D2D2D2D2D2D2D2D2D2D2D2D2B0A0D007C20202020202020202074
:2040440020202020202020202020202020202020202020202020202020202020202020205C
:2040640020202020202020207C0A0D007C20202020202020202020202020202020456E7406
:204084006572204368617261637465722020202020202020202020202020202020207C0AD2
:2040A4000D002B2D2D2D2D2D2D2D2D2D2D2D2D2D2D2D2D2D2D2D2D2D2D2D2D2D2D2D2D2DAB
:2040C4002D2D2D2D2D2D2D2D2D2D2D2D2D2D2D2D2D2D2D2D2B0A0D0A0D000A0D001B5B3141
:2040E4003B33336D0A0D454550524F4D20726573657465640D0A001B5B313B33316D496E42
:2041040076616C69642043686172616374657221210A0D001B5B313B33316D417661696CE5
:2041240061626C65204F7074696F6E733A20417661696C61626C65204368617261637465C5
:11414400727320572D522D462D432D5821210A0D00CE
:2027540010980280FBAE997F008E828F8322AF83E58290040FF0EFA3F03099FD90040FE03F
:20277400FEA3E0FF8E99C2998E828F8322AF83E582900411F0EFA3F0900411E0FEA3E0FF4A
:202794007C007D00C007C006C005C004122754AA828A017B0089828B83C002122762D0020F
:2027B400D004D005D006D007BA0D028003BA0A14900411E0F9A3E0FBEC29F582ED3BF58363
:2027D400E4F08011EC2EF582ED3FF583EAF00CBC00B20D80AF22AF83E582900413F0EFA3D7
:2027F400F0900413E0FEA3E0FF8E828F83E0FD60207C008D828C83C007C006122762D006B7
:20281400D0070EBE00010F900413EEF0EFA3F080D8900413EEF0EFA3F022AF83E58290043C
:2028340015F0EFA3F0900415E0FEA3E0FF8E828F83E0FD60207C008D828C83C007C006123C
:1E2854002762D006D0070EBE00010F900415EEF0EFA3F080D8900415EEF0EFA3F022C8
:2028720043A88043B810438920E59854CF4450F598E58854BF4440F588758DFDD29922AF67
:2028920083E582900417F0EFA3F09004197430F090041A04F090041B04F090041C04F09065
:2028B200041D04F090041E04F090041F04F090042004F090042104F090042204F0900423F2
:2028D2007441F090042404F090042504F090042604F090042704F090042804F0900429E43A
:2028F200F0900417E0FEA3E0FF20E71FC3740F9E74808FF063F08095F04010EE2419F58204
:20291200EF3404F583E0FFF582800375823022E58290042AF0E090046FF090415575F080F1
:2029320012303FAD82AE83AFF0ED4E600A7F55EDC39FFDF582800375820022E58290042B07
:20295200F090042CE4F0A3F090042EF0A3F0900430F0A3F0900432F0A3F0900434F0A3F02E
:20297200900436F0A3F0900438F0A3F090043AF0A3F090043CF0A3F090043EF0A3F090041C
:2029920040F0A3F0900442F0A3F0900444F0A3F0900446F0A3F0900448F0A3F090044AF024
:2029B200A3F090044CF0A3F090044EF0A3F0900450F0A3F0900452F0A3F0900454F0A3F06F
:2029D200900456F0A3F0900458F0A3F0900458E0FEA3E0FFBE0D06BF0003022AD61227549B
:2029F200AE82AF83900458EEF0EFA3F08E048F05C3EC9430ED9400400774399CE49D50207C
:202A1200C3EC9461ED9400400774669CE49D5010C3EC9441ED9400405F74469CE49D4058CE
:202A32008E028F038A828B83C007C006122762D006D007900456E0FAA3E0FBEA2AF8EB3307
:202A5200F9E8242EF8E93404F98E82C003C002C001C000122921AF82D000D001D002D00336
:202A72007E0088828983EFF0EEA3F0900456042AF0E43BA3F00229DEBC0805BD0002800382
:202A92000229DE900456E0FEA3E0FF900456E0F5F0A3E045F070030229DE900008C007C0CF
:202AB20006122762900020122762900008122762D006D0071EBEFF011F900456EEF0EFA3E3
:202AD200F00229DE90042BE0FF900456E0FDA3E0FE7B007C00C3EB9DEC9E506EC005C006F0
:202AF20090042CE0F9A3E0FA900473EFF0E4A3F089828A83C007C006C005C004C00312311D
:202B1200B1E5828583F0D003D004D005D006D00790042CF0E5F0A3F0EB2BF9EC33FAE9241D
:202B32002EF582EA3404F583E0F9A3E0FA90042CE0F8A3E0FE90042CE928F0EA3EA3F00B4E
:202B5200BB00010CD006D005808B90042CE0FEA3E08E82F58322AF82AE83ADF0FC90045B30
:202B7200EFF0EEA3F0EDA3F0ECA3F090045AE0FF90045BE0FBA3E0FCA3E0FDA3E0FEC37496
:202B92000F9BE49CE49DE49E9200C374FF9BE49CE49DE49E9201C374FF9B740F9CE49DE428
:202BB2009E9202C374818FF063F08095F0503BBF02028026BF03028012BF042B2002289030
:202BD2000030C007122762D007801C200119900030C007122762D007800D20000A90003034
:202BF200C007122762D0071F80B9EFFD3395E0FEED245FF508EE3404F50990045BE0F50A41
:202C1200A3E0F50BA3E0F50CA3E0F50D740F550AF87C0088828C83C007122891AE82D0070E
:202C3200850882850983EEF0AB0AE50BC4CBC4540F6BCB540FCB6BCBFCE50CC454F04CFC52
:202C5200AD0CE50DC4CDC4540F6DCD540FCD6DCDFE90045BEBF0ECA3F0EDA3F0EEA3F00F04
:202C720090045BE0F5F0A3E042F0A3E042F0A3E045F06003022BFCEF14900469F0E0FFEF22
:202C920020E722EFFD3395E0FEED245FF582EE3404F583E0FE7D008E828D83C00712276205
:202CB200D0071F80DA22AFF0AE83E58290046CF0EEA3F0EFA3F090046CE0C0E0A3E0C0E0C3
:202CD200A3E0C0E090046AE0C0E0A3E0C0E0746CC0E07441C0E07480C0E012321FE58124C8
:202CF200F8F58122747AC0E07441C0E07480C0E012321F15811581158190046A7423F0E42D
:202D1200A3F090417D75F080122CB890046A7423F0E4A3F09041B375F080122CB890046A8C
:202D32007423F0E4A3F09041E975F080122CB890046A7423F0E4A3F090421F75F080122CDE
:202D5200B890046A7423F0E4A3F09041B375F080122CB890046A7423F0E4A3F090425575B6
:202D7200F080122CB8748DC0E07442C0E07480C0E012321F15811581158190046A7425F0A4
:202D9200E4A3F090429675F080122CB8747AC0E07441C0E07480C0E012321F15811581154C
:202DB2008174B7C0E07442C0E07480C0E012321F15811581158190046A7424F0E4A3F09019
:202DD20042BB75F080122CB874B7C0E07442C0E07480C0E012321F15811581158190046A31
:202DF2007424F0E4A3F09042ED75F080122CB890046A7424F0E4A3F09042F075F080122C46
:202E1200B890046A7424F0E4A3F09042ED75F080122CB8747AC0E07441C0E07480C0E012C8
:202E3200321F15811581158174B7C0E07442C0E07480C0E012321F15811581158190046A95
:202E52007424F0E4A3F09042ED75F080122CB890046A7421F0E4A3F090431D75F080122CBA
:202E7200B890046A7424F0E4A3F09042ED75F080122CB8747AC0E07441C0E07480C0E01268
:202E9200321F15811581158174B7C0E07442C0E07480C0E012321F15811581158190046A35
:202EB2007424F0E4A3F09042ED75F080122CB890046A7420F0E4A3F090434A75F080122C2E
:202ED200B890046A7424F0E4A3F09042ED75F080122CB8747AC0E07441C0E07480C0E01208
:202EF200321F15811581158174B7C0E07442C0E07480C0E012321F15811581158190046AD5
:202F12007424F0E4A3F09042ED75F080122CB890046A741FF0E4A3F090437775F080122CA1
:202F3200B890046A7424F0E4A3F09042ED75F080122CB8747AC0E07441C0E07480C0E012A7
:202F5200321F15811581158174B7C0E07442C0E07480C0E012321F15811581158190046A74
:202F72007424F0E4A3F09042ED75F080122CB890046A7422F0E4A3F09043A475F080122C11
:202F9200B890046A7424F0E4A3F09042ED75F080122CB8747AC0E07441C0E07480C0E01247
:202FB200321F15811581158174B7C0E07442C0E07480C0E012321F15811581158190046A14
:202FD2007424F0E4A3F09042BB75F080122CB8747AC0E07441C0E07480C0E012321F158108
:202FF2001581158190046A7423F0E4A3F090417D75F080122CB890046A7423F0E4A3F090E2
:2030120041B375F080122CB890046A7423F0E4A3F09041B375F080122CB890046A7423F0EF
:0D303200E4A3F090425575F080122CB822F6
:2041550030313233343536373839616263646566414243444546001B5B313B25646D2573E3
:204175001B5B306D000A0D002B2D2D2D2D2D2D2D2D2D2D2D2D2D2D2D2D2D2D2D2D2D2D2DCA
:204195002D2D2D2D2D2D2D2D2D2D2D2D2D2D2D2D2D2D2D2D2D2D2D2D2D2D2B0A0D007C209A
:2041B5002020202020202020202020202020202020202020202020202020202020202020EA
:2041D500202020202020202020202020202020207C0A0D007C20202020202020202020205B
:2041F5005553455220494E54455246414345204C6162203420526571756972656420202076
:204215002020202020207C0A0D007C202020202020202020202020202020202020204932DF
:2042350043202620454550524F4D2020202020202020202020202020202020207C0A0D0025
:204255002B2D2D2D2D2D2D2D2D2D2D2D2D2D2D2D2D2D2D2D2D2D2D2D2D2D2D2D2D2D2D2DAB
:204275002D2D2D2D2D2D2D2D2D2D2D2D2D2D2D2D2D2D2B0A0D0A0D002020202020202020A6
:2042950000506C656173652073656C65637420616E206F7074696F6E2062656C6F773A0AEA
:2042B5000D00202020002B2D2D2D2D2D2D2D2D2D2D2D2D2D2D2D2D2D2D2D2D2D2D2D2D2DEC
:2042D5002D2D2D2D2D2D2D2D2D2D2D2D2D2D2D2D2D2D2D2D2B0A0D007C20005B575D2057E1
:2042F5007269746520746F20454550524F4D202020202020202020202020202020202020CA
:2043150020202020202020005B525D20526561642066726F6D20454550524F4D20202020C6
:204335002020202020202020202020202020202020202020005B465D20454550524F4D20E2
:2043550044756D702020202020202020202020202020202020202020202020202020202032
:2043750020005B585D20526573657420454550524F4D20202020202020202020202020202D
:204395002020202020202020202020202020005B435D2046696C6C20454550524F4D207727
:1C43B50069746820307846462020202020202020202020202020202020202000F3
:06203500E478FFF6D8FD7F
:202013007900E94400601B7A009043DC78AC75A004E493F2A308B8000205A0D9F4DAF275A5
:02203300A0FF0C
:20303F00AFF0AE83E582900470F0EEA3F0EFA3F090046FE0FF900470E0FCA3E0FDA3E0FE80
:20305F008C828D838EF0123C4BFB6018EBB5070280120CBC00010D900470ECF0EDA3F0EE4A
:20307F00A3F080DC900470ECF0EDA3F0EEA3F08C828D838EF0123C4BB507078C828D838EBD
:09309F00F02290000075F00022FF
:2030A800C00E85810EE50E24FDF8868318868218E493A324DB600C2425600512319680F05D
:2030C8000231AED2D5E493A3C083C082B4731486F018868318868218123C4B6054A3123184
:2030E8009680F5B4630818E6181231968043B46417E630E74618E6F42401F608E6F4340057
:20310800F6742D1231968033B4782D868318868218E4123187E583123186E583123187E5F4
:2031280082123186E58212318730D5057430123196D082D0830230B8B475F6E6FA18E6F9FF
:20314800187C107D27123171FF7CE87D03123171C4F5837C647D001231714283E975F00A6A
:2031680084C445F0F582EF80A97B000BC3E99CF9EA9DFA50F61BE92CF9EA3DFAEB22C4543E
:203188000F700320D51FC2D52490D43440D4C083C082C0F0F582E8C0E0122762D0E0F8D0E3
:0931A800F0D082D08322D00E2267
:2031B100AA83AB828BF0900473E0A4F8A9F08AF0E0A429F98BF0A3E0A429F583888222225C
:20203B007800E84400600A790075A004E4F309D8FC78ACE84400600C7901900400E4F0A3F0
:04205B00D8FCD9FADA
:2031D100C00E85810E7E008E83122762D00E22AFF0AE83E582900476F0EEA3F0EFA3F0900E
:2031F1000476E0FDA3E0FEA3E0FF900475E0FC90048AE4F0A3F0A3F090048DEDF0EEA3F0E8
:20321100EFA3F0900490ECF09031D1023325C00EE581F50E24FBFF90048AE4F0A3F0A3F0C2
:20323100E50E24FBF890048DE6F008E6A3F008E6A3F0900490EFF09031D1123325D00E227B
:20325100E582900486F0E0FF90047CE0C0E0A3E0C0E0A3E0C0E012326C800D90047AE0C04C
:20327100E0A3E0C0E08F8222158115811581900484E02401F0A3E03400F022E582900487ED
:20329100F0E02430FF24C6500D74072FFF900479E060034307208F82023251E58290048837
:2032B100F0E0FFC4540FF582C00712328CD00753070F8F8202328CE582900489F090047F61
:2032D100E0FCA3E0FDA3E0FEA3E0FF900483E0FB900489E0FA79208B00E828F519EF2354ED
:2032F100014519FBEC2CFCED33FDEE33FEEF33FFC3EB9A4007EBC39AFB43040119E970D78F
:2033110090047FECF0EDA3F0EEA3F0EFA3F0900483EBF022AF83E582900491F0EFA3F09056
:203331000491E0FEA3E0FF90047AEEF0EFA3F090048AE0FDA3E0FEA3E0FF90047CEDF0EE40
:20335100A3F0EFA3F0900484E4F0A3F090048DE0FDA3E0FEA3E0FF8D828E838FF0123C4B8F
:20337100FC90048D74012DF0E43EA3F0EFA3F0EC7003023C27BC25028003023C1F900493A8
:20339100E4F0900494F0900495F0900496F0900497F0900498F0900499F090049AF09004F7
:2033B1009CF090049DF0A3F090049F14F0A3F090048DE0FDA3E0FEA3E0FF8D828E838FF052
:2033D100123C4BFBA3AD82AE8390048DEDF0EEA3F0EFA3F09004A3EBF0BB25088B821232F9
:2033F1005102335DBB300050030234BEEB24C650030234BE90049FE0F50FA3E0F51074FF79
:20341100B50F63B51060C005C006C00790049DE0FAA3E0FF900473EAF0EFA3F090000AC0B3
:2034310005C0031231B1AE82AF83D003D0058B027D00EA2EFEED3FFFEE24D0FEEF34FFFF69
:2034510090049DEEF0EFA3F0D007D006D00590049DE0F5F0A3E045F060030233CB9004940F
:203471007401F00233CBC005C006C007900473E50FF0E510A3F090000AC006C005C0031217
:2034910031B1AA82AF83D003D005D0067E00EB2AFAEE3FFFEA24D0FAEF34FFFF90049FEA8E
:2034B100F0EFA3F0D007D006D0050233CB9004A3E0FBBB2E2FC005C006C00790049FE0FA7E
:2034D100A3E0FFBAFF05BFFF028009D007D006D0050233CBD007D006D00590049FE4F0A3A4
:2034F100F00233CBBB61004014EB2485400F9004A374DF5BF09004797401F080059004799F
:20351100E4F09004A3E0FBBB20028075BB2B028067BB2D028059BB4202806FBB4302807C66
:20353100BB44030237B5BB46030237DBBB48030233CBBB49030237B5BB4A030233CBBB4C68
:20355100028050BB4F030237C3BB5003023723BB53028077BB54030233CBBB55030237CBE5
:20357100BB58030237D3BB5A030233CB0237E39004937401F00233CB9004957401F0023395
:20359100CB9004967401F00233CB9004987401F00233CB9004997401F00233CB900498E091
:2035B100600E900490E014F9F09004A3E7F0800F900490E024FEFFF08F019004A3E7F090AB
:2035D10004A3E0F5821232510237F2900490E024FDFFF08F018705098706098707191990FD
:2035F100047FEDF0EEA3F0EFA3F08D828E838FF0123C3385820F85831090049FE0FAA3E079
:20361100FDBAFF0DBDFF0A90049FE50FF0E510A3F0900493E0704B90049DE0FAA3E0FDC361
:20363100E50F9AE5109D503A90049DEAC3950FF0ED9510A3F090049DE0FAA3E0FD8A068D90
:20365100071ABAFF011DEE4F6010758220C005C002123251D002D00580E390049DEAF0ED7F
:20367100A3F090049FE0F512A3E0F51390047FE0FAA3E0FDA3E0FF8A828D838FF0123C4BDE
:20369100F511603CC3E4951274808513F063F08095F0502C151274FFB51202151385118236
:2036B10012325190047FE0FAA3E0FDA3E0FF0ABA00010D90047FEAF0EDA3F0EFA3F080AC88
:2036D100900493E070030237F290049DE0FEA3E0FFC3E50F9EE5109F40030237F290049D1B
:2036F100EEC3950FF0EF9510A3F090049DE0FEA3E0FF8E028F051EBEFF011FEA4D700302F1
:2037110037EA758220C007C006123251D006D00780E0900490E024FDFDF08D018714098766
:2037310015098716191990047FE514F0E515A3F0E516A3F0900481E0FDBD80004008900469
:20375100A37443F08020BD600040089004A37450F08013BD400040089004A37449F08006DC
:203771009004A37458F09004A3E0FDF582C00512325175823A1232517582301232517582E7
:2037910078123251D005BD4902800EBD50028009900480E0F5821232AC90047FE0F5821231
:2037B10032AC803D9004977401F090049C740AF0802F90049C7408F0802790049C740AF09F
:2037D100801F90049C7410F0801790049A7401F0800F8B82123251800890049DEEF0EFA311
:2037F100F090049AE06071900490E024FCFFF08F018703098705098706098707191919901F
:20381100047FEBF0EDA3F0EEA3F0EFA3F090047F74D1F07443A3F07480A3F090047FE0F5B5
:2038310014A3E0F515A3E0F51674012514FAE43515FBAF1690047FEAF0EBA3F0EFA3F08540
:2038510014828515838516F0123C4BFF700302335D8F8212325180C390049CE070030233DB
:203871005D900498E06047900490E014F9F087077E007D007B0090047FEFF0EEA3F0EDA31F
:20389100F0EBA3F0900497E0600302393590047FE0FBA3E0A3E0A3E07D007E007F00900446
:2038B1007FEBF0EDA3F0EEA3F0EFA3F08076900499E06028900490E024FCFFF08F01870362
:2038D10009870509870609870719191990047FEBF0EDA3F0EEA3F0EFA3F08048900490E08D
:2038F10024FEFFF08F01870609870719EF3395E0FDFB90047FEEF0EFA3F0EDA3F0EBA3F0D9
:20391100900497E0701E90047FE0FBA3E0FDA3E0A3E07E007F0090047FEBF0EDA3F0EEA38D
:20393100F0EFA3F0900497E0604190047FE0FBA3E0FDA3E0FEA3E0FF30E72B90047FE0FBB7
:20395100A3E0FDA3E0FEA3E0FFC3E49BFBE49DFDE49EFEE49FFF90047FEBF0EDA3F0EEA317
:20397100F0EFA3F08005900497E4F090049B7401F090049CE0F5127517A9751804E4F50FE7
:20399100F510900483E4F08512821232C890049BE07033900483E0C454F0F514900483E050
:2039B100C4540F4514F514851782851883E0FFE5144207851782851883EFF0151774FFB59D
:2039D10017021518800C900483E0FF851782851883F0050FE4B50F02051090049BE0B40149
:2039F10000E433F090047FE0FAA3E0FBA3E0FEA3E0FFEA4B4E4F708A9004AAE517F0E5184E
:203A1100A3F09004A1E50FF0E510A3F090049DE0F5F0A3E045F0700990049D7401F0E4A31D
:203A3100F0900494E0FFE07047900493E07041850F1785101890049DE0FAA3E0FBC007AFD8
:203A5100170F8F067F00C3EE9AEF9BD0075019758220C007C003C002123251D002D003D099
:203A7100071ABAFF011B80D590049DEAF0EBA3F0900497E0602075822DC007123251D0077F
:203A910090049DE024FFFDA3E034FFFE90049DEDF0EEA3F080569004A1E0F5F0A3E045F019
:203AB100604A900495E0602075822BC007123251D00790049DE024FFFDA3E034FFFE9004F4
:203AD1009DEDF0EEA3F08024900496E0601E758220C007123251D00790049DE024FFFDA390
:203AF100E034FFFE90049DEDF0EEA3F0900493E070489004A1E0F517A3E0F51890049DE094
:203B1100FAA3E0FBC0078A068B071ABAFF011BC3E5179EE5189FD0075053EF60067D307E51
:203B31000080047D207E008D82C007C003C002123251D002D003D00780CA90049DE0FEA36D
:203B5100E0FF9004A1E0F517A3E0F518C3E5179EE5189F500F90049DEEC39517F0EF951852
:203B7100A3F0801190049DE4F0A3F0800890049DEAF0EBA3F09004AAE0FEA3E0FF9004A194
:203B9100E0F517A3E0F518AA17AD18151774FFB517021518EA4D604590049BE0B40100E4F4
:203BB10033F090049BE070140EBE00010F8E828F83E0C4540FFD900483F0800E8E828F8385
:203BD100E0FD53050F900483EDF0900483E0F582C007C00612328CD006D00780AA900493D3
:203BF100E0700302335D90049DE0FEA3E0FF8E038F051EBEFF011FEB4D700302335D7582EA
:203C110020C007C006123251D006D00780E08C8212325102335D900484E0FEA3E08E82F591
:023C31008322EC
:0B43D1003C4E4F20464C4F41543E0034
:183C3300AA82AB83123C4B6003A380F8C3E5829AF582E5839BF5832230
:0D20060075812012260EE582600302200382
:1C3C4B0020F71430F6148883A88220F507E6A88375830022E280F7E49322E02288
:00000001FF
