:2000A900AF83E582900400F0EFA3F0900400E0FEA3E0FF7C007D00C3EC9EED9F50147A787C
:2000C9007B001ABAFF011BEA4B70F70CBC00E80D80E5227E007F00D294B291900032C0079E
:2000E900C0061200A9C294B2919000321200A9D006D0070EBE00010FC3EE9432EF9400409D
:20010900D6227E007F00D294B291900064C007C0061200A9C294B2919000641200A9D006DE
:11012900D0070EBE00010FC3EE9414EF940040D622FE
:20013A00AF83E582900405F0EFA3F0900405E0FEA3E0FF900515EEF0EFA3F0900052121AF0
:20015A0020AE82AF837C007D00C3EC9EED64808FF063F08095F050070CBC00ED0D80EA2270
:20017A00C292D29390F00075F0001229F830E70890000A12013A80EC229005797430F090CE
:20019A00057AF090057BF090057CF090057DF022C292C2939000A012013A90F0007430F077
:2001BA009000AA12013A90F0007430F090009612013A90F0007430F012017AC292C293903D
:2001DA00F0007438F012017AC292C29390F000740FF012017AC292C29390F0007401F01223
:2001FA00017AC292C29390F0007406F012017A020193C292D29390F000E0547FF58222E54A
:20021A0082900407F0C292C293900407E043E080F0900407E090F000F002017AE58290049D
:20023A0009F0E0FFE4BF300104FE700FBF31028011BF32028014BF3321801790040AE4F051
:20025A00801D90040A7440F0801590040A7410F0800D90040A7450F0800590040AE4F0EE3A
:20027A006012900408E0FFBF340A90040AE043E004F08055900409E0FFBF3412900408E013
:20029A00FFBF300A90040AE043E040F0803B900408E0FFBF41004013EF24B9400E8F06EE55
:2002BA0024C9FE90040AE04EF0801EBF30004011EF24C6400CEF24D0FF90040AE04FF0805B
:2002DA000890040AE043E008F090040AE0F58212021902017AE58290040BF012020CAF827D
:2002FA00D292C29390040BE090F000F0C00712017AD007BF0F02800FBF1F028022BF4F0220
:20031A008011BF5F3280249004087430F07582310202369004087430F07582320202369089
:20033A0004087430F07582300202369004087430F075823002023622AFF0AE83E582900424
:20035A000CF0EEA3F0EFA3F090040CE0FDA3E0FEA3E0FF7B007C00EB2DF8EC3EF98F0288C1
:20037A008289838AF01229F8FA60208A82C007C006C005C004C0031202EFD003D004D0054A
:20039A00D006D0070BBB00CF0C80CC22C292C29390F0007401F012017A75820012021990B8
:2003BA002A8075F0801203527582001202197488C0E0742AC0E0121917158115812274A18A
:2003DA00C0E0742AC0E0121917158115811215E1AE82D20010AF02C2008E82C0061202EF51
:2003FA00A20092AF7F00C00774CDC0E0742AC0E0121917E58124FCF58174E3C0E0742AC008
:20041A00E0121917158115812274E6C0E0742AC0E01219171581158190040F7401F0E4A31D
:20043A00F07E007F0090040FE0F5F0A3E045F0603DC007C0061215E1AC82AD83D006D00758
:20045A00BC0D0990040FE4F0A3F080D9900402E0FAA3E0FBA3E0FDEE2AFAEF3BFB8A828B11
:20047A00838DF0EC1218FC0EBE00BA0F80B7900402E0FBA3E0FCA3E0FDEE2BFEEF3CFF8D46
:20049A00028E828F838AF0E41218FCD20110AF02C201900402E0FDA3E0FEA3E0FF8D828E30
:2004BA00838FF0120352A20192AF900402E0C0E0A3E0C0E0A3E0C0E0740FC0E0742BC0E017
:2004DA00121917E58124FBF58174E3C0E0742AC0E012191715811581227425C0E0742BC068
:2004FA00E0121917158115811215E1121F3FAE828E057F00C006C005C0077455C0E0742B80
:20051A00C0E0121917E58124FCF5817468C0E0742BC0E0121917158115811215E1121F3F42
:20053A00AD828D047F00C005C004C0077498C0E0742BC0E0121917E58124FCF581D005D044
:20055A0006BE30004005EE24CC501ABD30004005ED24B9501074ABC0E0742BC0E012191764
:20057A001581158122D20210AF02C202900408EDF08E82120236A20292AF74C9C0E0742B86
:20059A00C0E0121917158115812274F0C0E0742BC0E0121917158115811215E1AE82900494
:2005BA0043EEF07E007F00900443E0FDBD0D028032C3EE9431EF648094805027EE2411F5E5
:2005DA0082EF3404F5830EBE00010FEDF0C007C0061215E1AC82AD83D006D007900443ECC4
:2005FA00F080C4EE2411F582EF3404F583E4F07411C0E07404C0E0E4C0E07420C0E0742C0B
:20061A00C0E07480C0E0121FCCE58124FAF581900505E4F0A3F0A3F09005087410F0E4A369
:20063A00F090041175F0001216CFAC82D20310AF02C2038C82120219A20392AF227437C078
:20065A00E0742CC0E0121917158115815388EF227451C0E0742CC0E01219171581158143B0
:20067A00881022746CC0E0742CC0E0121917158115819005797430F090057AF090057BF0D7
:20069A0090057CF090057DF022E582900445F0E0FFBF010B900444E0F582120219800FC294
:2006BA0092C293900444E090F000F012017AD292D29390F000E0F58222D20410AF02C20465
:2006DA007485C0E0742CC0E07480C0E0121FCC15811581158112020CE582900576F0748D51
:2006FA00C0E0742CC0E07480C0E0121FCC1581158115817E007F008E048F05C3745F9CE474
:20071A009D405DEC540F7021C007C006C006C00774ABC0E0742CC0E07480C0E0121FCCE516
:20073A008124FBF581D006D007900444EEF0758201C007C0061206A3AD827C00C005C004B2
:20075A0074B6C0E0742CC0E07480C0E0121FCCE58124FBF581D006D0070EBE009A0F8097B0
:20077A0074BEC0E0742CC0E07480C0E0121FCC1581158115817E407F008E048F05C3747FE1
:20079A009CE49D405DEC540F7021C007C006C006C00774ABC0E0742CC0E07480C0E0121FC7
:2007BA00CCE58124FBF581D006D007900444EEF0758200C007C0061206A3AD827C00C00546
:2007DA00C00474B6C0E0742CC0E07480C0E0121FCCE58124FBF581D006D0070EBE009A0F83
:2007FA00809774E3C0E0742AC0E07480C0E0121FCC158115811581900576E0F582120219B1
:20081A0074DEC0E0742CC0E07480C0E0121FCC158115811581A20492AF2274E3C0E0742C99
:20083A00C0E07480C0E0121FCC1581158115811215E11215C2AE82C0061215E11215C2AD26
:20085A0082AF83D006BE30004024EE24C6401FBD3000401AED24C640158E07EF24D0C45468
:20087A00F0FF8D04EC24D09004464FF0805ABE3002800DBE31028008BE34028003BE351B90
:20089A00BD41004016ED24B94011EE24D0C454F0FEED24C99004464EF0802D7422C0E0749E
:2008BA002DC0E07480C0E0121FCC1581158115817434C0E0742DC0E07480C0E0121FCC15CF
:2008DA008115811581020849900446E0F58222E58290044AF0E024D0C40354F8FF43074006
:2008FA008F057E00C007C006C005C005C0067451C0E0742DC0E0121917E58124FCF581D03B
:20091A0005D006D007900447E0F508A3E0F509A3E0F50A78007900C3E89408E96480948037
:20093A00400122C292C29388048F0390F000EC2BF0E82DFBE93EFCC007C006C005C001C0E6
:20095A0000C003C0047489C0E0742DC0E0121917E58124FCF58112017AD000D001D292C286
:20097A0093E82508FAE93509FBAC0A8A828B838CF01229F890F000F0C001C00012017AD0CC
:20099A0000D001D005D006D00708B80001090209317498C0E0742DC0E07480C0E0121FCC66
:2009BA0015811581158112020CAF82C00774A0C0E0742DC0E0121917158115811215E1AD2B
:2009DA00828D047E00C005C004C00674D1C0E0742DC0E0121917E58124FCF581D005D0070D
:2009FA007E00BE0800504B8E037C00C007C006C005C003C00474D6C0E0742DC0E0121917AB
:200A1A00E58124FCF581D005D006EE244BFBE43404FCC006C005C004C003120834AA82D049
:200A3A0003D004D005D006D0078B828C83EAF00E80B0D20510AF02C205900447744BF074B2
:200A5A0004A3F0E4A3F08D82C007C0051208E91204F3D005ED24D0F5821202EFD0078F82AF
:200A7A00120219A20592AF74DEC0E0742CC0E07480C0E0121FCC158115811581227498C0D4
:200A9A00E0742DC0E07480C0E0121FCC15811581158112020CE582900576F0900453E4F08B
:200ABA00900454F0900455740FF09004567408F0900457F090045804F0900459F090045A0C
:200ADA00F0D20610AF02C2069004477453F07404A3F0E4A3F07582311208E9900408743428
:200AFA00F07582311202367582011202EFA20692AF90045BE4F090045CF090045D7418F086
:200B1A0090045EE4F090045FF09004607402F0900461F0900462F0D20610AF02C2069004F8
:200B3A0047745BF07404A3F0E4A3F07582321208E99004087435F075823112023675820247
:200B5A001202EF900576E0F582120219A20692AF9004637409F0900464F0900465F0900437
:200B7A0066740FF09004677401F0900468F0900469E4F090046AF0D20610AF02C206900482
:200B9A00477463F07404A3F0E4A3F07582331208E99004087434F0758232120236758203DD
:200BBA001202EF900576E0F582120219A20692AF90046B7402F090046CF090046DF09004C6
:200BDA006E741AF090046F7402F0900470741EF0900471E4F0900472F0D20610AF02C206F0
:200BFA00900447746BF07404A3F0E4A3F07582341208E99004087435F07582321202367564
:200C1A0082041202EF900576E0F582120219A20692AF74DEC0E0742CC0E07480C0E0121FC2
:200C3A00CC158115811581227498C0E0742DC0E07480C0E0121FCC15811581158112020C8A
:200C5A00E582900576F0900473741FF0900474F09004757411F09004767415F09004777416
:200C7A0011F0900478741FF0900479F090047AF0D20710AF02C2079004477473F07404A39F
:200C9A00F0E4A3F07582311208E99004087434F07582311202367582011202EFA20792AF1D
:200CBA0090047B741FF090047CF090047D7411F090047E7415F090047F7411F09004807467
:200CDA001FF0900481F0900482F0D20710AF02C207900447747BF07404A3F0E4A3F075824A
:200CFA00321208E99004087435F07582311202367582021202EF900576E0F582120219A2D1
:200D1A000792AF900483741FF0900484F0900485F09004867410F0900487741BF090048882
:200D3A0004F0900489741FF090048AF0D20710AF02C2079004477483F07404A3F0E4A3F050
:200D5A007582331208E99004087434F07582321202367582031202EF900576E0F582120232
:200D7A0019A20792AF90048B741FF090048CF090048DF090048E7401F090048F741BF090DA
:200D9A0004907407F0900491741FF0900492F0D20710AF02C207900447748BF07404A3F044
:200DBA00E4A3F07582341208E99004087435F07582321202367582041202EF900576E0F5EE
:200DDA0082120219A20792AF74DEC0E0742CC0E07480C0E0121FCC15811581158122900425
:200DFA0093741FF0900494F0900495F0900496F0900497F0900498F0900499F090049AF006
:200E1A00D20810AF02C2089004477493F07404A3F0E4A3F07582311208E99004087437F09D
:200E3A007582331202367582011202EFA20892AF90049B741FF090049CF090049DF09004B7
:200E5A009EF090049FF09004A0F09004A1F09004A2F0D20810AF02C208900447749BF074A5
:200E7A0004A3F0E4A3F07582321208E99004087438F07582331202367582021202EF9005E1
:200E9A0076E0F582120219A20892AF9004A37403F09004A404F09004A523F09004A623F0F0
:200EBA009004A7F09004A8F09004A9F09004AAF0D20810AF02C20890044774A3F07404A304
:200EDA00F0E4A3F07582331208E99004087437F07582321202367582031202EF900576E0D2
:200EFA00F582120219A20892AF9004AB7418F09004AC7404F09004AD03F09004AE14F090DC
:200F1A0004AFF09004B0F09004B1F09004B2F0D20810AF02C20890044774ABF07404A3F01B
:200F3A00E4A3F07582341208E99004087438F07582321202367582041202EF900576E0F569
:200F5A0082120219A20892AF229004B3741FF09004B4F09004B5F09004B6F09004B7F0907B
:200F7A0004B8F09004B9F09004BAF0D20910AF02C20990044774B3F07404A3F0E4A3F075E0
:200F9A0082311208E99004087437F07582331202367582011202EFA20992AF9004BB741F0D
:200FBA00F09004BCF09004BDF09004BEF09004BFF09004C0F09004C1F09004C2F0D2091067
:200FDA00AF02C20990044774BBF07404A3F0E4A3F07582321208E99004087438F075823371
:200FFA001202367582021202EF900576E0F582120219A20992AF9004C37418F09004C47477
:20101A0004F09004C503F09004C614F09004C7F09004C8F09004C9F09004CAF0D20910AF4C
:20103A0002C20990044774C3F07404A3F0E4A3F07582331208E99004087436F075823212A7
:20105A0002367582031202EF900576E0F582120219A20992AF9004CB7403F09004CC04F0AC
:20107A009004CD23F09004CE23F09004CFF09004D0F09004D1F09004D2F0D20910AF02C2BD
:20109A000990044774CBF07404A3F0E4A3F07582341208E99004087435F0758232120236CB
:2010BA007582041202EF900576E0F582120219A20992AF229004D3E4F09004D4F09004D57F
:2010DA007407F09004D604F09004D723F09004D8F09004D9F09004DAF0D20A10AF02C20A2F
:2010FA0090044774D3F07404A3F0E4A3F07582311208E99004087437F075823312023675F7
:20111A0082011202EFA20A92AF9004DBE4F09004DCF09004DD741CF09004DE7402F0900442
:20113A00DF7409F09004E0741DF09004E17409F09004E27401F0D20A10AF02C20A90044753
:20115A0074DBF07404A3F0E4A3F07582321208E99004087438F075823312023675820212D1
:20117A0002EF900576E0F582120219A20A92AF9004E3E4F09004E4F09004E5F09004E6F062
:20119A009004E77403F09004E804F09004E9F09004EA14F0D20A10AF02C20A90044774E359
:2011BA00F07404A3F0E4A3F07582331208E99004087437F07582321202367582031202EFCF
:2011DA00900576E0F582120219A20A92AF9004EBE4F09004ECF09004EDF09004EEF090043F
:2011FA00EF7418F09004F07404F09004F1F09004F27418F0D20A10AF02C20A90044774EB64
:20121A00F07404A3F0E4A3F07582341208E99004087438F07582321202367582041202EF6B
:20123A00900576E0F582120219A20A92AF2274FCC0E0742DC0E012191715811581D20B104A
:1E125A00AF02C20B758200120219902E1E75F080120352758200120219A20B92AF2278
:202A800020202020202020001B5B313B33336D0A0D4C434420436C656172656421210D0A8E
:202AA000001B5B313B33336D0A0D456E7465722043686172616374657220746F2070757423
:202AC000206F6E204C43442021210D0A000A0D456E74657265642043686172203D2025630C
:202AE0000A0D000A0D001B5B313B33336D0A0D456E74657220537472696E6720746F2070B4
:202B00007574206F6E204C43442021210D0A00456E746572656420537472696E67203D2088
:202B200025730A0D001B5B313B33336D0A0D456E74657220582D436F2D6F7264696E6174A7
:202B40006520746F20707574206F6E204C43442021210D0A00582D436F7264696E6174650D
:202B6000203D2025630A0D001B5B313B33336D0A0D456E74657220592D436F2D6F7264693C
:202B80006E61746520746F20707574206F6E204C43442021210D0A00592D436F7264696EC3
:202BA000617465203D2025630A0D001B5B313B33316D496E76616C696420636F6F726469A5
:202BC0006E61746521210A0D001B5B313B33336D0A0D437572736F72204D6F76656D656EB3
:202BE0007420436F6D706C6574656421210D0A001B5B313B33336D0A0D456E746572206100
:202C000064647265737320746F20707574206F6E746F20746865204C43442021210D0A0006
:202C20004164647265737320456E7465726564203D2025730A0D001B5B313B33336D0A0DEF
:202C400054696D65205061757365642021210D0A001B5B313B33336D0A0D54696D6520521D
:202C60006573756D65642021210D0A001B5B313B33336D0A0D54696D6520526573657420BA
:202C800021210D0A001B5B313B33346D000A0D5072696E74696E672048657864756D7020A8
:202CA0006F6620444452414D0A0D000A0D3078253032783A200030782530327820000A0DAA
:202CC0000A0D5072696E74696E672048657864756D70206F6620434752414D0A0D001B5B8B
:202CE000306D000A0D456E74657220612068657861646563696D616C2076616C756520624D
:202D000065747765656E2028303020746F20314629206F722028343020746F203538293A20
:202D200020000A0D496E76616C696420696E7075742E2000506C6561736520656E7465725F
:202D400020612076616C696420696E7075743A20000A0D54686520637573746F6D2063683A
:202D600061726163746572207769746820636F6465203078257820686173206265656E203F
:202D8000637265617465642E000A0D4C43445F707472203D202578001B5B303B33336D00C0
:202DA000506C6561736520656E7465722074686520636F646520666F72207468652063759F
:202DC00073746F6D206368617261637465723A200025630A0D000A0D506C65617365206574
:202DE0006E746572207468652076616C756520666F7220726F772025643A20001B5B313BB8
:202E000033336D0A0D417574686F7220496E666F205072696E7465642021210D0A004B6986
:202E200072616E204A6F6A617265202020204553442053756D6D65722032303233204C612D
:0F2E40006220342020202020202020202020006D
:012FF80000D8
:0400000002003F3289
:03000B000212EEF0
:110098009004F7E4F0A3F09004FAE4F0A3F002000E60
:03000E000213DFFB
:20127800438E0C90000022AF83E5829004F3F0EFA3F09004F3E0FEA3E0FF7C007D00C3ECA6
:201298009EED9F50147AFB7B041ABAFF011BEA4B70F70CBC00E80D80E522AF83E5829004B8
:2012B800F5F0EFA3F09004F5E0FEA3E0FF7C007D00C3EC9EED9F501D9003E8C007C006C0BF
:2012D80005C00412127FD004D005D006D0070CBC00DF0D80DC22C022C0E0C0F0C082C0834B
:2012F800C007C006C005C004C003C002C001C000C0D075D000C2AFC28D12020CE58290040A
:20131800F9F09004F7E0FEA3E0FFBE021ABF0017B2919005777401F0E4A3F09004F7F0A3E8
:20133800F0900579E004F09004F7E02401F0A3E03400F0758AFD758C4B900579E0FFBF3A6E
:201358004A9005797430F090057AE004F0E0FFBF3A3990057A7430F090057BE004F0E0FF2F
:20137800BF362890057B7430F090057CE004F0E0FFBF3A1790057C7430F090057DE004F035
:20139800E0FFBF360690057D7430F09004F9E0F582120219D2AFD0D0D000D001D002D0033D
:2013B800D004D005D006D007D083D082D0F0D0E0D022325388CF438901758AFD758C4B4384
:2013D800A882D2B9D28C221215AA1201AA9004087430F0758230120236902E4F75F080128D
:2013F80003529004087430F0758231120236902E5575F0801203529004087430F075823028
:201418001202369000011212B23098FD9004FCE599F0C2989004FCE0FFBF41028019BF42DB
:20143800028070BF43030214F3BF440302153BBF5A0302159280D2D20C10AF02C20C1203A3
:20145800A69004087430F0758230120236902E6675F0801203529004087430F07582311253
:201478000236902E7775F0801203529004087430F07582301202361210CE9000011212B2A3
:201498009004FAE02401F0A3E03400F0A20C92AF0214211203A69004087430F075823012C0
:2014B8000236902E8875F0801203529004087430F0758231120236902E9975F08012035205
:2014D8009004087430F0758230120236120F6312010B9000011212B20214211203A69004C4
:2014F800087430F0758230120236902EAA75F0801203529004087430F075823112023690E1
:201518002EBB75F0801203529004087430F0758230120236120DF81200DC9000011212B271
:201538000214211203A69004087430F0758230120236902ECC75F0801203529004087430EA
:20155800F0758231120236902EDD75F0801203529004087430F0758232120236902EEE7566
:20157800F0801203529004087430F07582301202369000011212B20214211203A6900408E6
:121598007430F07582301202369000011212B20214219E
:202E4F0048656C6C6F0053544D333246343131452D446973636F007C2020204E657720555B
:202E6F007365722020207C007C202020456E726F6C6C65642020207C007C202020202020F4
:202E8F0055736572202020207C007C2020417574686F72697A656420207C007C20202020F5
:202EAF00205573657220202020207C007C20556E2D417574686F72697A65647C007C202045
:202ECF004578697374696E67202020207C007C20204461746120426173652020207C007C73
:102EEF00202020436C6561726564202020207C00C7
:072FF90000003030303030E1
:2015AA00759850438920758DFD758BFDC299759900D28ED2ACD2AF22AF83E5829004FDF0D8
:2015CA00EFA3F03099FD9004FDE0FEA3E0FF8E99C2998E828F832220985A12020CE58290D9
:2015EA0004FFF075825912021990057DE0F5821202EF90057CE0F5821202EF75823A120255
:20160A00EF90057BE0F5821202EF90057AE0F5821202EF75822E1202EF900579E0F582125F
:20162A0002EF9004FFE0F582120219900577E4F0A3F080A3C298AE997F008E828F8322AFEF
:20164A00F0AE83E582900502F0EEA3F0EFA3F0900502E0C0E0A3E0C0E0A3E0C0E09005007C
:20166A00E0C0E0A3E0C0E074FFC0E0742EC0E07480C0E0121FCCE58124F8F5812290050028
:20168A007423F0E4A3F0902F0D75F0801216499005007423F0E4A3F0902F4375F08012167E
:2016AA00499005007423F0E4A3F0902F7975F0801216499005007423F0E4A3F0902FAF7540
:0516CA00F0800216494A
:202EFF001B5B313B25646D25731B5B306D002B2D2D2D2D2D2D2D2D2D2D2D2D2D2D2D2D2D08
:202F1F002D2D2D2D2D2D2D2D2D2D2D2D2D2D2D2D2D2D2D2D2D2D2D2D2D2D2D2D2D2D2D2DF2
:202F3F002B0A0D007C202020202020202020202048656C6C6F2053544D33324634313145C6
:202F5F002D446973636F766572792020202020202020202020207C0A0D007C20202020203E
:202F7F00202020202020202020202020202020202020202020202020202020202020202032
:202F9F002020202020202020202020207C0A0D002B2D2D2D2D2D2D2D2D2D2D2D2D2D2D2D31
:202FBF002D2D2D2D2D2D2D2D2D2D2D2D2D2D2D2D2D2D2D2D2D2D2D2D2D2D2D2D2D2D2D2D52
:082FDF002D2D2B0A0D0A0D0037
:06006E00E478FFF6D8FD66
:2016CF00AFF0AE83E58290050AF0EEA3F0EFA3F090050AE0FDA3E0FEA3E0FF8D828E838F04
:2016EF00F01229F8FCBC20028003BC09070DBD00EA0E80E790050DEDF0EEA3F0EFA3F08D57
:20170F00828E838FF01229F8FCBC2D149005137401F090050D2DF0E43EA3F0EFA3F08005F4
:20172F00900513E4F0900513E0607990050DE0FDA3E0FEA3E0FF8D828E838FF01229F8FD6C
:20174F00BD20028022BD0902801D90050DE0FDA3E0FEA3E0FF8D828E838FF01229F8FFBF82
:20176F002D028003BF2B3D900505E0FDA3E0FEA3E0FF900505E0F5F0A3E045F0601F9005DC
:20178F000AE0FAA3E0FBA3E0FC8D828E838FF0EA1218FCA3EB1218FCA3EC1218FC900000B1
:2017AF00E4F5F02290050DE0FDA3E0FEA3E0FF900508E0FBA3E0FC90051A7410F07405A377
:2017CF00F0E4A3F090051DEBF0ECA3F08D828E838FF0121AA5AC82AD83AEF0FF900510E097
:2017EF00F50BA3E0F50CA3E0F50D90050DE0F8A3E0FAA3E0FBC00BC00CC00D88828A838B56
:20180F00F01200111581158115817043900505E0F50EA3E0F50FA3E0F510900505E0F5F046
:20182F00A3E045F0602290050AE0F8A3E0FAA3E0FB850E82850F838510F0E81218FCA3EAA1
:20184F001218FCA3EB1218FC900000E4F5F022900505E0F9A3E0FAA3E0FB900505E0F5F057
:20186F00A3E045F0601789828A838BF0E50B1218FCA3E50C1218FCA3E50D1218FC90051364
:20188F00E07021C374FF9C74FF9D74FF9E747F9F50129005747422F0E4A3F090FFFF75F0E8
:2018AF00FF747F22900513E0601EC3E49CE49DE49E74809F50129005747422F0E4A3F0902E
:2018CF000000E4F5F0748022900513E0600FC3E49CF8E49DF9E49EFAE49FFB80088C008DD3
:0D18EF00018E028F03888289838AF0EB222C
:20004C007908E94400601B7A01902FF8787675A005E493F2A308B8000205A0D9F4DAF275B0
:02006C00A0FFF3
:1B18FC0020F71130F6138883A88220F509F6A8837583002280FEF280F5F022EB
:20191700C018858118E51824FDF8868318868218E493A324DB600C24256005121A0580F08F
:20193700021A1DD2D5E493A3C083C082B4731486F0188683188682181229F86054A3121A51
:201957000580F5B4630818E618121A058043B46417E630E74618E6F42401F608E6F4340038
:20197700F6742D121A058033B4782D868318868218E41219F6E5831219F5E5831219F6E540
:20199700821219F5E5821219F630D5057430121A05D082D083021927B475F6E6FA18E6F94A
:2019B700187C107D271219E0FF7CE87D031219E0C4F5837C647D001219E04283E975F00A0E
:2019D70084C445F0F582EF80A97B000BC3E99CF9EA9DFA50F61BE92CF9EA3DFAEB22C454E7
:2019F7000F700320D51FC2D52490D43440D4C083C082C0F0F582E8C0E01215C2D0E0F8D03E
:091A1700F0D082D08322D0182205
:201A2000AA83AB828BF0900515E0A4F8A9F08AF0E0A429F98BF0A3E0A429F5838882222261
:201A4000E582900518F0E0FFBF3000400EEF24C64009EF24D0900519F08034900518E0FF83
:201A6000BF6100400EEF2485400990051974A92FF0801C900518E0FFBF4100400EEF24A5FF
:201A8000400990051974C92FF080047582FF22900519E0FF900517E0FEC3EF9E40047582B5
:201AA000FF228F8222AFF0AE83E58290051FF0EEA3F0EFA3F090051FE0FDA3E0FEA3E0FF60
:201AC000900529E4F090052AF08D828E838FF01229F8FCBC20028003BC09070DBD00EA0E08
:201AE00080E7900522EDF0EEA3F0EFA3F08D028E038F048D828E838FF01229F8FFBF2B0278
:201B00008009BF2D1490052A7401F090052274012AF0E43BA3F0ECA3F090051DE0FEA3E08E
:201B2000FF90051DE0F5F0A3E045F06003021BFA900522E0FBA3E0FCA3E0FD90052F74E74D
:201B4000F0742FA3F07480A3F09005327402F0E4A3F08B828C838DF0121E89E5828583F083
:201B600045F06034900522E0FBA3E0FCA3E0FD90052F74EAF0742FA3F07480A3F090053275
:201B80007402F0E4A3F08B828C838DF0121E89E5828583F045F0702590051D7410F0E4A340
:201BA000F0900522E0FBA3E0FCA3E0FD90052274022BF0E43CA3F0EDA3F0021C86900522CE
:201BC000E0FBA3E0FCA3E0FD8B828C838DF01229F8FABA301990051D7408F0E4A3F0900538
:201BE00022042BF0E43CA3F0EDA3F0021C8690051D740AF0E4A3F0021C86BE1005BF0002FE
:201C00008003021C86900522E0FDA3E0FEA3E0FF90052F74E7F0742FA3F07480A3F09005A5
:201C2000327402F0E4A3F08D828E838FF0121E89E5828583F045F06034900522E0FDA3E0FE
:201C4000FEA3E0FF90052F74EAF0742FA3F07480A3F09005327402F0E4A3F08D828E838FE2
:201C6000F0121E89E5828583F045F07019900522E0FDA3E0FEA3E0FF90052274022DF0E4D9
:201C80003EA3F0EFA3F0900522E0FDA3E0FEA3E0FF8D828E838FF01229F8FC90051DE0FA00
:201CA000A3E0FB900517EAF08C82C007C006C005C003C002121A40AC82D002D003D005D057
:201CC00006D007EC30E74390051AE0F511A3E0F512A3E0F51390051AE0F5F0A3E045F060AB
:201CE0002290051FE0F8A3E0F9A3E0FC8511828512838513F0E81218FCA3E91218FCA3EC32
:201D00001218FC900000E4F5F022900525E4F0A3F0A3F0A3F08A118B128D828E838FF012F2
:201D200029F8FA900517E511F08A82C007C006C005121A40AA82D005D006D007EA30E7037A
:201D4000021E0EC002900525E0F8A3E0F9A3E0FAA3E0FC90052BE8F0E9A3F0EAA3F0ECA369
:201D6000F0900570E511F0E512A3F0E5123395E0A3F0A3F0888289838AF0ECC007C006C070
:201D800005122A14A982AA83ABF0FCD005D006D007900525E9F0EAA3F0EBA3F0ECA3F090E0
:201DA0000525E0F514A3E0F515A3E0F516A3E0F51790052BE0F8A3E0FAA3E0FBA3E0FCC391
:201DC000E51498E5159AE5169BE5179CD00250069005297401F0900525E0F514A3E0F51535
:201DE000A3E0F516A3E0F5178A017A007B007C00900525E92514F0EA3515A3F0EB3516A35E
:201E0000F0EC3517A3F00DBD00010E021D1990051AE0FAA3E0FBA3E0FC90051AE0F5F0A359
:201E2000E045F060148A828B838CF0ED1218FCA3EE1218FCA3EF1218FC900529E060119062
:201E400005747422F0E4A3F090FFFF74FFF5F02290052AE0601D900525E0FCA3E0FDA3E04F
:201E6000FEA3E0FFC3E49CFCE49DFDE49EFEE49FFF800E900525E0FCA3E0FDA3E0FEA3E07B
:091E8000FF8C828D838EF0EF22AD
:062FE700307800305800B4
:200074007800E84400600A790075A004E4F309D8FC7876E84401600C7902900400E4F0A30B
:04009400D8FCD9FAC1
:201E8900AFF0AE83E582900534F0EEA3F0EFA3F0900532E0FEA3E0FF900532E0F5F0A3E010
:201EA90045F0700490000022900534E0FBA3E0FCA3E0FD90052FE0F8A3E0F9A3E0FA1EBEAA
:201EC900FF011FEE4F60418B828C838DF01229F8F5196034C006C007888289838AF0122936
:201EE900F8FFB519028006D007D006801BD007D0060BBB00010C900534EBF0ECA3F0EDA311
:201F0900F008B800B90980B6900534EBF0ECA3F0EDA3F08B828C838DF01229F8FB7F00889F
:161F29008289838AF01229F8F87E00EBC398FBEF9E8B82F583227C
:201F3F00AF83E582900537F0EFA3F0900537E0FEA3E0BE6100920D4019EE2485920D4012DF
:1F1F5F00900537E0FEA3E0FF74E02EFE74FF3FFF8008900537E0FEA3E0FF8E828F83220E
:201F7E00C0188581187E008E831215C2D01822AFF0AE83E58290053AF0EEA3F0EFA3F09042
:201F9E00053AE0FDA3E0FEA3E0FF900539E0FC90054EE4F0A3F0A3F0900551EDF0EEA3F039
:201FBE00EFA3F0900554ECF0901F7E0220D2C018E581F51824FBFF90054EE4F0A3F0A3F055
:201FDE00E51824FBF8900551E6F008E6A3F008E6A3F0900554EFF0901F7E1220D2D018220E
:201FFE00E58290054AF0E0FF900540E0C0E0A3E0C0E0A3E0C0E0122019800D90053EE0C0C8
:20201E00E0A3E0C0E08F8222158115811581900548E02401F0A3E03400F022E58290054BC8
:20203E00F0E02430FF24C6500D74072FFF90053DE060034307208F82021FFEE58290054C78
:20205E00F0E0FFC4540FF582C007122039D00753070F8F82022039E58290054DF090054306
:20207E00E0FCA3E0FDA3E0FEA3E0FF900547E0FB90054DE0FA79208B00E828F519EF2354C8
:20209E00014519FBEC2CFCED33FDEE33FEEF33FFC3EB9A4007EBC39AFB43040119E970D7F4
:2020BE00900543ECF0EDA3F0EEA3F0EFA3F0900547EBF022AF83E582900555F0EFA3F0906D
:2020DE000555E0FEA3E0FF90053EEEF0EFA3F090054EE0FDA3E0FEA3E0FF900540EDF0EE92
:2020FE00A3F0EFA3F0900548E4F0A3F0900551E0FDA3E0FEA3E0FF8D828E838FF01229F8D1
:20211E00FC90055174012DF0E43EA3F0EFA3F0EC70030229D4BC250280030229CC9005574F
:20213E00E4F0900558F0900559F090055AF090055BF090055CF090055DF090055EF09005F8
:20215E0060F0900561F0A3F090056314F0A3F0900551E0FDA3E0FEA3E0FF8D828E838FF0A4
:20217E001229F8FBA3AD82AE83900551EDF0EEA3F0EFA3F0900567EBF0BB25088B82121F4D
:20219E00FE02210ABB3000500302226BEB24C6500302226B900563E0F523A3E0F52474FF73
:2021BE00B52363B52460C005C006C007900561E0FAA3E0FF900515EAF0EFA3F090000AC089
:2021DE0005C003121A20AE82AF83D003D0058B027D00EA2EFEED3FFFEE24D0FEEF34FFFF77
:2021FE00900561EEF0EFA3F0D007D006D005900561E0F5F0A3E045F060030221789005588B
:20221E007401F0022178C005C006C007900515E523F0E524A3F090000AC006C005C0031216
:20223E001A20AA82AF83D003D005D0067E00EB2AFAEE3FFFEA24D0FAEF34FFFF900563EAD6
:20225E00F0EFA3F0D007D006D005022178900567E0FBBB2E2FC005C006C007900563E0FABE
:20227E00A3E0FFBAFF05BFFF028009D007D006D005022178D007D006D005900563E4F0A3A9
:20229E00F0022178BB61004014EB2485400F90056774DF5BF090053D7401F0800590053D1A
:2022BE00E4F0900567E0FBBB20028075BB2B028067BB2D028059BB4202806FBB4302807C07
:2022DE00BB4403022562BB4603022588BB4803022178BB4903022562BB4A03022178BB4CC7
:2022FE00028050BB4F03022570BB50030224D0BB53028077BB5403022178BB5503022578E0
:20231E00BB5803022580BB5A030221780225909005577401F00221789005597401F0022116
:20233E007890055A7401F002217890055C7401F002217890055D7401F002217890055CE064
:20235E00600E900554E014F9F0900567E7F0800F900554E024FEFFF08F01900567E7F090FC
:20237E000567E0F582121FFE02259F900554E024FDFFF08F018705098706098707191990A3
:20239E000543EDF0EEA3F0EFA3F08D828E838FF01229E0858223858324900563E0FAA3E092
:2023BE00FDBAFF0DBDFF0A900563E523F0E524A3F0900557E0704B900561E0FAA3E0FDC350
:2023DE00E5239AE5249D503A900561EAC39523F0ED9524A3F0900561E0FAA3E0FD8A068D1C
:2023FE00071ABAFF011DEE4F6010758220C005C002121FFED002D00580E3900561EAF0ED86
:20241E00A3F0900563E0F526A3E0F527900543E0FAA3E0FDA3E0FF8A828D838FF01229F8F7
:20243E00F525603CC3E4952674808527F063F08095F0502C152674FFB5260215278525820F
:20245E00121FFE900543E0FAA3E0FDA3E0FF0ABA00010D900543EAF0EDA3F0EFA3F080ACC9
:20247E00900557E0700302259F900561E0FEA3E0FFC3E5239EE5249F400302259F900561D3
:20249E00EEC39523F0EF9524A3F0900561E0FEA3E0FF8E028F051EBEFF011FEA4D70030269
:2024BE002597758220C007C006121FFED006D00780E0900554E024FDFDF08D0187280987BE
:2024DE002909872A1919900543E528F0E529A3F0E52AA3F0900545E0FDBD800040089005E0
:2024FE00677443F08020BD600040089005677450F08013BD400040089005677449F08006F4
:20251E009005677458F0900567E0FDF582C005121FFE75823A121FFE758230121FFE7582F4
:20253E0078121FFED005BD4902800EBD50028009900544E0F582122059900543E0F58212D7
:20255E002059803D90055B7401F0900560740AF0802F9005607408F08027900560740AF055
:20257E00801F9005607410F0801790055E7401F0800F8B82121FFE8008900561EEF0EFA38D
:20259E00F090055EE06071900554E024FCFFF08F01870309870509870609870719191990FA
:2025BE000543EBF0EDA3F0EEA3F0EFA3F090054374EDF0742FA3F07480A3F0900543E0F5C4
:2025DE0028A3E0F529A3E0F52A74012528FAE43529FBAF2A900543EAF0EBA3F0EFA3F08569
:2025FE002882852983852AF01229F8FF700302210A8F82121FFE80C3900560E07003022183
:20261E000A90055CE06047900554E014F9F087077E007D007B00900543EFF0EEA3F0EDA388
:20263E00F0EBA3F090055BE060030226E2900543E0FBA3E0A3E0A3E07D007E007F00900586
:20265E0043EBF0EDA3F0EEA3F0EFA3F0807690055DE06028900554E024FCFFF08F01870379
:20267E00098705098706098707191919900543EBF0EDA3F0EEA3F0EFA3F08048900554E068
:20269E0024FEFFF08F01870609870719EF3395E0FDFB900543EEF0EFA3F0EDA3F0EBA3F079
:2026BE0090055BE0701E900543E0FBA3E0FDA3E0A3E07E007F00900543EBF0EDA3F0EEA3A4
:2026DE00F0EFA3F090055BE06041900543E0FBA3E0FDA3E0FEA3E0FF30E72B900543E0FBCE
:2026FE00A3E0FDA3E0FEA3E0FFC3E49BFBE49DFDE49EFEE49FFF900543EBF0EDA3F0EEA3B8
:20271E00F0EFA3F0800590055BE4F090055F7401F0900560E0F526752B6D752C05E4F523E8
:20273E00F524900547E4F085268212207590055FE07033900547E0C454F0F528900547E0CA
:20275E00C4540F4528F528852B82852C83E0FFE5284207852B82852C83EFF0152B74FFB562
:20277E002B02152C800C900547E0FF852B82852C83F00523E4B52302052490055FE0B40198
:20279E0000E433F0900543E0FAA3E0FBA3E0FEA3E0FFEA4B4E4F708A90056EE52BF0E52C01
:2027BE00A3F0900565E523F0E524A3F0900561E0F5F0A3E045F070099005617401F0E4A30C
:2027DE00F0900558E0FFE07047900557E0704185232B85242C900561E0FAA3E0FBC007AF9F
:2027FE002B0F8F067F00C3EE9AEF9BD0075019758220C007C003C002121FFED002D003D051
:20281E00071ABAFF011B80D5900561EAF0EBA3F090055BE0602075822DC007121FFED007C0
:20283E00900561E024FFFDA3E034FFFE900561EDF0EEA3F08056900565E0F5F0A3E045F02F
:20285E00604A900559E0602075822BC007121FFED007900561E024FFFDA3E034FFFE900534
:20287E0061EDF0EEA3F0802490055AE0601E758220C007121FFED007900561E024FFFDA30D
:20289E00E034FFFE900561EDF0EEA3F0900557E07048900565E0F52BA3E0F52C900561E0BD
:2028BE00FAA3E0FBC0078A068B071ABAFF011BC3E52B9EE52C9FD0075053EF60067D307E8F
:2028DE000080047D207E008D82C007C003C002121FFED002D003D00780CA900561E0FEA374
:2028FE00E0FF900565E0F52BA3E0F52CC3E52B9EE52C9F500F900561EEC3952BF0EF952CB6
:20291E00A3F08011900561E4F0A3F08008900561EAF0EBA3F090056EE0FEA3E0FF900565E5
:20293E00E0F52BA3E0F52CAA2BAD2C152B74FFB52B02152CEA4D604590055FE0B40100E408
:20295E0033F090055FE070140EBE00010F8E828F83E0C4540FFD900547F0800E8E828F8360
:20297E00E0FD53050F900547EDF0900547E0F582C007C006122039D006D00780AA9005574E
:20299E00E0700302210A900561E0FEA3E0FF8E038F051EBEFF011FEB4D700302210A758254
:2029BE0020C007C006121FFED006D00780E08C82121FFE02210A900548E0FEA3E08E82F563
:0229DE00832252
:0B2FED003C4E4F20464C4F41543E002C
:1829E000AA82AB831229F86003A380F8C3E5829AF582E5839BF58322FC
:20001100E58124FCC3C8C0E0C082E608467006E5824583601218E58296F58208E5839642BD
:1B0031008208E5F0964582D082C8D0E0C82275812C121278E582600302000EAC
:1C29F80020F71430F6148883A88220F507E6A88375830022E280F7E49322E022EE
:202A1400A882A983AAF0FB88F0900570E0A4FCADF089F0E0A42DFDE435F0FE88F0A3E0A450
:202A34002DFDE5F03EFEE433FF89F0E0A42EFEE5F03FFF88F0A3E0A42EFEE5F03FFF8AF09D
:202A5400900570E0A42EFEE5F03FFF8BF0E0A42FFF8AF0A3E0A42FFF89F0A3E0A42FFF8848
:0C2A7400F0A3E0A42F8EF08D838C822252
:00000001FF
