:200062007597017412C0E07410C0E07480C0E01205AA158115811581227597FF7444C0E08B
:200082007410C0E07480C0E01205AA158115811581227476C0E07410C0E07480C0E01205A8
:2000A200AA158115811581D288D2A8D2AFC2AC4387012243870274A6C0E07410C0E0748084
:0C00C200C0E01205AA15811581158122ED
:201012001B5B313B33336D46636C6B5F706572697068204D696E696D756D20467265717583
:20103200656E637920616374697665202021210D0A001B5B313B33336D46636C6B5F706551
:2010520072697068204D6178696D756D204672657175656E637920616374697665202021FE
:20107200210D0A001B5B313B33336D4D6963726F636F6E74726F6C6C657220456E74657215
:20109200696E672049444C45206D6F6465202021210D0A001B5B313B33336D4D6963726FB5
:2010B200636F6E74726F6C6C657220456E746572696E6720504F574552444F574E206D6F9D
:0910D2006465202021210D0A00B3
:2000CE0075D90275EA0075FA0075EAAA75FAAA75D84075DA4C74DBC0E07410C0E07480C0E3
:2000EE00E01205AA1581158115812253D8BF75DA00740DC0E07411C0E07480C0E01205AA99
:07010E001581158115812206
:2010DB001B5B313B33336D4869676820537065656420546F67676C696E6720737461727406
:2010FB006564206F6E2050696E20312E3321210D0A001B5B313B33336D48696768205370A5
:20111B0065656420546F67676C696E672073746F70706564206F6E2050696E20312E3321F5
:04113B00210D0A0078
:03000000020006F5
:03005F0002000399
:03000300020131C6
:20011500438E0C90000022438F0143A880438920439850438840758DFDD2992212011C74AC
:200135003FC0E07411C0E012045315811581747CC0E07411C0E01204531581158174BEC0D5
:20015500E07411C0E01204531581158174F2C0E07411C0E0120453158115817434C0E07474
:2001750012C0E0120453158115817476C0E07412C0E01204531581158174B8C0E07412C0CC
:20019500E01204531581158174FAC0E07412C0E012045315811581743CC0E07413C0E01283
:2001B500045315811581747EC0E07413C0E01204531581158174C0C0E07413C0E0120453F5
:2001D5001581158174FBC0E07413C0E0120453158115817431C0E07414C0E01204531581A7
:2001F5001581746CC0E07414C0E01204531581158174A7C0E07414C0E0120453158115819F
:20021500120330AE828E057F008D828F83C00612033E90002012033ED006BE48028032BEB7
:2002350049028045BE4A02802EBE4D02802FBE4E028030BE5002803ABE5202800ABE5302EE
:20025500800ABE574B80341202C6808712030680821200CE0201E81200F90201E8120062B8
:200275000201E812007B0201E812009412044C0201E81200B512044C0201E874E8C0E0748F
:2002950014C0E01204531581158112031F0201E87406C0E07415C0E0120453158115817495
:1102B50023C0E07415C0E0120453158115810201E8CC
:20113F001B5B313B33356D0A0D7C2A2A2A2A2A2A2A2A2A2A2A2A2A2A2A2A2A2A2A2A2A2AAA
:20115F002A2A2A2A2A2A2A2A2A2A2A2A2A2A2A2A2A2A2A2A2A2A2A2A2A7C0A0D007C2A2AF3
:20117F002A2A2A2A201B5B313B33366D5553455220494E54455246414345204C616220335E
:20119F0020537570706C696D656E74616C201B5B313B33356D2A2A2A2A2A2A7C0A0D007C30
:2011BF00202043686F6F73652061206368617261637465722066726F6D2074686520626505
:2011DF006C6F77206F7074696F6E73202020207C0A0D007C20201B5B313B33356D521B5B24
:2011FF00313B33356D202020207C2052756E2050574D2054696D657220283333252044755D
:20121F007479204379636C652920202020202020207C0A0D007C20201B5B313B33356D5330
:20123F001B5B313B33356D202020207C2053746F702050574D2054696D6572202020202041
:20125F00202020202020202020202020202020202020207C0A0D007C20201B5B313B333576
:20127F006D481B5B313B33356D202020207C2048696768205370656564204F757470757485
:20129F002020202020202020202020202020202020202020207C0A0D007C20201B5B313B5E
:2012BF0033356D4D1B5B313B33356D202020207C204D696E2046636C6B70657270682066B1
:2012DF0072657175656E63792020202020202020202020202020207C0A0D007C20201B5BDE
:2012FF00313B33356D4E1B5B313B33356D202020207C204D61782046636C6B706572706888
:20131F00206672657175656E63792020202020202020202020202020207C0A0D007C20208D
:20133F001B5B313B33356D491B5B313B33356D202020207C20456E7465722049444C45205F
:20135F006D6F646520202020202020202020202020202020202020202020207C0A0D007CDA
:20137F0020201B5B313B33356D501B5B313B33356D202020207C20456E74657220504F5720
:20139F004552444F574E206D6F64652020202020202020202020202020202020207C0A0DC7
:2013BF00001B5B313B33356D7C2A2A2A2A2A2A2A2A2A2A2A2A2A2A2A2A2A2A2A2A2A2A2A15
:2013DF002A2A2A2A2A2A2A2A2A2A2A2A2A2A2A2A2A2A2A2A2A2A2A2A7C0A0D007C2A2A2A71
:2013FF002A2A2A2A2A2A2A2A2A2A2A2A2A2A2A2A2A2A2A2A2A2A2A2A2A2A2A2A2A2A2A2A8E
:20141F002A2A2A2A2A2A2A2A2A2A2A2A7C0A0D0A0D001B5B313B33366D7C2A2A2A2A2A2ADB
:20143F002A2A2A2A2A2A2A2A2A2A2A2A2A2A2A2A2A2A2A2A2A2A2A2A2A2A2A2A2A2A2A2A4D
:20145F002A2A2A2A2A2A2A2A2A7C0A0D001B5B313B33366D7C2020202020202020202020CC
:20147F002020202020456E7465722043686172616374657220202020202020202020202082
:20149F00202020207C0A0D001B5B313B33366D7C2A2A2A2A2A2A2A2A2A2A2A2A2A2A2A2A46
:2014BF002A2A2A2A2A2A2A2A2A2A2A2A2A2A2A2A2A2A2A2A2A2A2A2A2A2A2A2A2A2A2A7C7B
:2014DF000A0D1B5B313B306D001B5B313B33316D5741544348444F47204163746976617467
:2014FF00656421210A0D001B5B313B33316D496E76616C6964204368617261637465722163
:20151F00210A0D001B5B313B33316D53756767657374656420416374696F6E093A2041767E
:20153F0061696C61626C65204368617261637465727320522D532D482D4D2D4E2D495F5021
:05155F0021210A0D002E
:0115C5000124
:2002C60075D90075E90075F90075EA0075FA0075D80075DA0075D90275E90075F90075EA19
:2002E600AA75FAAA75D84075DA427464C0E07415C0E07480C0E01205AA158115811581223D
:2003060053DABD74A2C0E07415C0E07480C0E01205AA1581158115812243D940E5EE75EE43
:0A032600FFE5FE75FEFF75DE4822BC
:201564001B5B313B33336D50574D2073746172746564206F6E2050696E20312E33207769B1
:2015840074682033332050657263656E742044757479204379636C652021210D0A001B5B2F
:1615A400313B33336D50574D2073746F707065642021210D0A0066
:2003300010980280FBAE997F008E828F8322AF83E582900001F0EFA3F03099FD900001E0AB
:20035000FEA3E0FF8E99C2998E828F8322AF83E582900003F0EFA3F0900003E0FEA3E0FFB6
:200370007C007D00C007C006C005C004120330AA828A017B0089828B83C00212033ED002E7
:20039000D004D005D006D007BA0D028003BA0A13900003E0F9A3E0FBEC29F582ED3BF583BE
:2003B000E4F022EC2EF582ED3FF583EAF00CBC00B30D80B0AF83E582900005F0EFA3F09040
:2003D0000005E0FEA3E0FF8E828F83E0FD60207C008D828C83C007C00612033ED006D00702
:2003F0000EBE00010F900005EEF0EFA3F080D8900005EEF0EFA3F022AF83E582900007F08D
:20041000EFA3F0900007E0FEA3E0FF8E828F83E0FD60207C008D828C83C007C00612033E5A
:1C043000D006D0070EBE00010F900007EEF0EFA3F080D8900007EEF0EFA3F022BF
:07044C00C288C2A8D2AC2255
:06003500E478FFF6D8FD9F
:200013007901E94400601B7A019015C5784275A000E493F2A308B8000205A0D9F4DAF27576
:02003300A0FF2C
:20045300C008858108E50824FDF8868318868218E493A324DB600C2425600512054180F071
:20047300020559D2D5E493A3C083C082B4731486F018868318868218120FF66054A3120534
:200493004180F5B4630818E6181205418043B46417E630E74618E6F42401F608E6F43400AE
:2004B300F6742D1205418033B4782D868318868218E4120532E583120531E583120532E57A
:2004D30082120531E58212053230D5057430120541D082D083020463B475F6E6FA18E6F985
:2004F300187C107D2712051CFF7CE87D0312051CC4F5837C647D0012051C4283E975F00A6F
:2005130084C445F0F582EF80A97B000BC3E99CF9EA9DFA50F61BE92CF9EA3DFAEB22C454BF
:200533000F700320D51FC2D52490D43440D4C083C082C0F0F582E8C0E012033ED0E0F8D0AC
:09055300F0D082D08322D00822EE
:20003B007800E84400600A790175A000E4F309D8FC7841E84400600C7901900001E4F0A381
:04005B00D8FCD9FAFA
:20055C00C0088581087E008E8312033ED00822AFF0AE83E58290000AF0EEA3F0EFA3F09079
:20057C00000AE0FDA3E0FEA3E0FF900009E0FC90001EE4F0A3F0A3F0900021EDF0EEA3F049
:20059C00EFA3F0900024ECF090055C0206B0C008E581F50824FBFF90001EE4F0A3F0A3F093
:2005BC00E50824FBF8900021E6F008E6A3F008E6A3F0900024EFF090055C1206B0D008224C
:2005DC00E58290001AF0E0FF900010E0C0E0A3E0C0E0A3E0C0E01205F7800D90000EE0C0E0
:2005FC00E0A3E0C0E08F8222158115811581900018E02401F0A3E03400F022E58290001B6F
:20061C00F0E02430FF24C6500D74072FFF90000DE060034307208F820205DCE58290001C5A
:20063C00F0E0FFC4540FF582C007120617D00753070F8F82020617E58290001DF090001324
:20065C00E0FCA3E0FDA3E0FEA3E0FF900017E0FB90001DE0FA79208B00E828F513EF235474
:20067C00014513FBEC2CFCED33FDEE33FEEF33FFC3EB9A4007EBC39AFB43040119E970D736
:20069C00900013ECF0EDA3F0EEA3F0EFA3F0900017EBF022AF83E582900025F0EFA3F09048
:2006BC000025E0FEA3E0FF90000EEEF0EFA3F090001EE0FDA3E0FEA3E0FF900010EDF0EEA2
:2006DC00A3F0EFA3F0900018E4F0A3F0900021E0FDA3E0FEA3E0FF8D828E838FF0120FF693
:2006FC00FC90002174012DF0E43EA3F0EFA3F0EC7003020FB2BC25028003020FAA9000276E
:20071C00E4F0900028F0900029F090002AF090002BF090002CF090002DF090002EF09000AC
:20073C0030F0900031F0A3F090003314F0A3F0900021E0FDA3E0FEA3E0FF8D828E838FF0AF
:20075C00120FF6FBA3AD82AE83900021EDF0EEA3F0EFA3F0900037EBF0BB25088B82120529
:20077C00DC0206E8BB30005003020849EB24C65003020849900033E0F509A3E0F50A74FFEF
:20079C00B50963B50A60C005C006C007900031E0FAA3E0FF900040EAF0EFA3F090000AC008
:2007BC0005C003120FD6AE82AF83D003D0058B027D00EA2EFEED3FFFEE24D0FEEF34FFFF08
:2007DC00900031EEF0EFA3F0D007D006D005900031E0F5F0A3E045F06003020756900028A2
:2007FC007401F0020756C005C006C007900040E509F0E50AA3F090000AC006C005C003129D
:20081C000FD6AA82AF83D003D005D0067E00EB2AFAEE3FFFEA24D0FAEF34FFFF900033EA9C
:20083C00F0EFA3F0D007D006D005020756900037E0FBBB2E2FC005C006C007900033E0FAA0
:20085C00A3E0FFBAFF05BFFF028009D007D006D005020756D007D006D005900033E4F0A356
:20087C00F0020756BB61004014EB2485400F90003774DF5BF090000D7401F0800590000D31
:20089C00E4F0900037E0FBBB20028075BB2B028067BB2D028059BB4202806FBB4302807C78
:2008BC00BB4403020B40BB4603020B66BB4803020756BB4903020B40BB4A03020756BB4C2F
:2008DC00028050BB4F03020B4EBB5003020AAEBB53028077BB5403020756BB5503020B560C
:2008FC00BB5803020B5EBB5A03020756020B6E9000277401F00207569000297401F00207C7
:20091C005690002A7401F002075690002C7401F002075690002D7401F002075690002CE04A
:20093C00600E900024E014F9F0900037E7F0800F900024E024FEFFF08F01900037E7F0900C
:20095C000037E0F5821205DC020B7D900024E024FDFFF08F018705098706098707191990C1
:20097C000013EDF0EEA3F0EFA3F08D828E838FF0120FBE85820985830A900033E0FAA3E0A8
:20099C00FDBAFF0DBDFF0A900033E509F0E50AA3F0900027E0704B900031E0FAA3E0FDC35F
:2009BC00E5099AE50A9D503A900031EAC39509F0ED950AA3F0900031E0FAA3E0FD8A068D2A
:2009DC00071ABAFF011DEE4F6010758220C005C0021205DCD002D00580E3900031EAF0ED33
:2009FC00A3F0900033E0F50CA3E0F50D900013E0FAA3E0FDA3E0FF8A828D838FF0120FF6EE
:200A1C00F50B603CC3E4950C7480850DF063F08095F0502C150C74FFB50C02150D850B8201
:200A3C001205DC900013E0FAA3E0FDA3E0FF0ABA00010D900013EAF0EDA3F0EFA3F080ACAB
:200A5C00900027E07003020B7D900031E0FEA3E0FFC3E5099EE50A9F4003020B7D9000315A
:200A7C00EEC39509F0EF950AA3F0900031E0FEA3E0FF8E028F051EBEFF011FEA4D7003020E
:200A9C000B75758220C007C0061205DCD006D00780E0900024E024FDFDF08D01870E0987C1
:200ABC000F0987101919900013E50EF0E50FA3F0E510A3F0900015E0FDBD8000400890000D
:200ADC00377443F08020BD600040089000377450F08013BD400040089000377449F08006CA
:200AFC009000377458F0900037E0FDF582C0051205DC75823A1205DC7582301205DC75824F
:200B1C00781205DCD005BD4902800EBD50028009900014E0F582120637900013E0F58212F5
:200B3C000637803D90002B7401F0900030740AF0802F9000307408F08027900030740AF0A1
:200B5C00801F9000307410F0801790002E7401F0800F8B821205DC8008900031EEF0EFA3A4
:200B7C00F090002EE06071900024E024FCFFF08F01870309870509870609870719191990A0
:200B9C000013EBF0EDA3F0EEA3F0EFA3F090001374BAF07415A3F07480A3F0900013E0F5EC
:200BBC000EA3E0F50FA3E0F5107401250EFAE4350FFBAF10900013EAF0EBA3F0EFA3F08576
:200BDC000E82850F838510F0120FF6FF70030206E88F821205DC80C3900030E070030206F2
:200BFC00E890002CE06047900024E014F9F087077E007D007B00900013EFF0EEA3F0EDA386
:200C1C00F0EBA3F090002BE06003020CC0900013E0FBA3E0A3E0A3E07D007E007F0090006D
:200C3C0013EBF0EDA3F0EEA3F0EFA3F0807690002DE06028900024E024FCFFF08F0187034F
:200C5C00098705098706098707191919900013EBF0EDA3F0EEA3F0EFA3F08048900024E00E
:200C7C0024FEFFF08F01870609870719EF3395E0FDFB900013EEF0EFA3F0EDA3F0EBA3F0EA
:200C9C0090002BE0701E900013E0FBA3E0FDA3E0A3E07E007F00900013EBF0EDA3F0EEA37F
:200CBC00F0EFA3F090002BE06041900013E0FBA3E0FDA3E0FEA3E0FF30E72B900013E0FBA9
:200CDC00A3E0FDA3E0FEA3E0FFC3E49BFBE49DFDE49EFEE49FFF900013EBF0EDA3F0EEA329
:200CFC00F0EFA3F0800590002BE4F090002F7401F0900030E0F50C75113D751200E4F50961
:200D1C00F50A900017E4F0850C8212065390002FE07033900017E0C454F0F50E900017E064
:200D3C00C4540F450EF50E851182851283E0FFE50E4207851182851283EFF0151174FFB56E
:200D5C0011021512800C900017E0FF851182851283F00509E4B50902050A90002FE0B401F4
:200D7C0000E433F0900013E0FAA3E0FBA3E0FEA3E0FFEA4B4E4F708A90003EE511F0E512DB
:200D9C00A3F0900035E509F0E50AA3F0900031E0F5F0A3E045F070099000317401F0E4A31B
:200DBC00F0900028E0FFE07047900027E07041850911850A12900031E0FAA3E0FBC007AFE2
:200DDC00110F8F067F00C3EE9AEF9BD0075019758220C007C003C0021205DCD002D003D0E3
:200DFC00071ABAFF011B80D5900031EAF0EBA3F090002BE0602075822DC0071205DCD007A3
:200E1C00900031E024FFFDA3E034FFFE900031EDF0EEA3F08056900035E0F5F0A3E045F00A
:200E3C00604A900029E0602075822BC0071205DCD007900031E024FFFDA3E034FFFE90001B
:200E5C0031EDF0EEA3F0802490002AE0601E758220C0071205DCD007900031E024FFFDA31F
:200E7C00E034FFFE900031EDF0EEA3F0900027E07048900035E0F511A3E0F512900031E001
:200E9C00FAA3E0FBC0078A068B071ABAFF011BC3E5119EE5129FD0075053EF60067D307EFF
:200EBC000080047D207E008D82C007C003C0021205DCD002D003D00780CA900031E0FEA321
:200EDC00E0FF900035E0F511A3E0F512C3E5119EE5129F500F900031EEC39511F0EF9512F8
:200EFC00A3F08011900031E4F0A3F08008900031EAF0EBA3F090003EE0FEA3E0FF900035F6
:200F1C00E0F511A3E0F512AA11AD12151174FFB511021512EA4D604590002FE0B40100E42F
:200F3C0033F090002FE070140EBE00010F8E828F83E0C4540FFD900017F0800E8E828F8306
:200F5C00E0FD53050F900017EDF0900017E0F582C007C006120617D006D00780AA90002765
:200F7C00E070030206E8900031E0FEA3E0FF8E038F051EBEFF011FEB4D70030206E875823F
:200F9C0020C007C0061205DCD006D00780E08C821205DC0206E8900018E0FEA3E08E82F589
:020FBC0083228E
:0B15BA003C4E4F20464C4F41543E0079
:180FBE00AA82AB83120FF66003A380F8C3E5829AF582E5839BF5832254
:200FD600AA83AB828BF0900040E0A4F8A9F08AF0E0A429F98BF0A3E0A429F5838882222290
:0D000600758113120115E5826003020003ED
:1C0FF60020F71430F6148883A88220F507E6A88375830022E280F7E49322E0220A
:00000001FF
