:1000A200AF83E582900403F0EFA3F0900403E0FE37
:1000B200A3E0FF9004AEEEF0EFA3F0900052121B0B
:1000C20009AE82AF837C007D00C3EC9EED64808F1D
:1000D200F063F08095F050070CBC00ED0D80EA2231
:1000E200C292D29390F00075F000122AE130E70834
:1000F20090000A1200A280EC229005127430F09057
:100102000513F0900514F0900515F0900516F022F5
:10011200C292C2939000A01200A290F0007430F03C
:100122009000AA1200A290F0007430F09000961293
:1001320000A290F0007430F01200E2C292C29390DA
:10014200F0007438F01200E2C292C29390F0007490
:100152000FF01200E2C292C29390F0007401F0120A
:1001620000E2C292C29390F0007406F01200E20222
:1001720000FBC292D29390F000E0547FF58222E518
:1001820082900405F0C292C293900405E043E0809D
:10019200F0900405E090F000F00200E2E5829004A5
:1001A20007F0E0FFE4BF300104FE700FBF310280B0
:1001B20011BF32028014BF33218017900408E4F08B
:1001C200801D9004087440F080159004087410F0AB
:1001D200800D9004087450F08005900408E4F0EE5D
:1001E2006012900406E0FFBF340A900408E043E086
:1001F20004F08055900407E0FFBF3412900406E03B
:10020200FFBF300A900408E043E040F0803B9004D6
:1002120006E0FFBF41004013EF24B9400E8F06EE07
:1002220024C9FE900408E04EF0801EBF3000401149
:10023200EF24C6400CEF24D0FF900408E04FF0807A
:1002420008900408E043E008F0900408E0F5821208
:1002520001810200E2E582900409F0120174AF828A
:10026200D292C293900409E090F000F0C00712000D
:10027200E2D007BF0F02800FBF1F028022BF4F02D2
:100282008011BF5F3280249004067430F075823191
:1002920002019E9004067430F075823202019E9033
:1002A20004067430F075823002019E9004067430A8
:1002B200F075823002019E22AFF0AE83E582900497
:1002C2000AF0EEA3F0EFA3F090040AE0FDA3E0FE33
:1002D200A3E0FF7B007C00EB2DF8EC3EF98F028857
:1002E2008289838AF0122AE1FA60208A82C007C0DA
:1002F20006C005C004C003120257D003D004D005C3
:10030200D006D0070BBB00CF0C80CC22C292C29386
:1003120090F0007401F01200E275820012018190E7
:100322002B6975F0801202BA758200120181747114
:10033200C0E0742BC0E0121A001581158122748A64
:10034200C0E0742BC0E0121A001581158112114A07
:10035200AE82D20010AF02C2008E82C006120257D5
:10036200A20092AF7F00C00774B6C0E0742BC0E059
:10037200121A00E58124FCF58174CCC0E0742BC014
:10038200E0121A00158115812274CFC0E0742BC0CF
:10039200E0121A001581158190040D7401F0E4A396
:1003A200F07E007F0090040DE0F5F0A3E045F060E0
:1003B2003DC007C00612114AAC82AD83D006D007F9
:1003C200BC0D0990040DE4F0A3F080D9900400E084
:1003D200FAA3E0FBA3E0FDEE2AFAEF3BFB8A828B55
:1003E200838DF0EC1219E50EBE00BA0F80B79004AF
:1003F20000E0FBA3E0FCA3E0FDEE2BFEEF3CFF8D53
:10040200028E828F838AF0E41219E5D20110AF02C4
:10041200C201900400E0FDA3E0FEA3E0FF8D828E06
:10042200838FF01202BAA20192AF900400E0C0E002
:10043200A3E0C0E0A3E0C0E074F8C0E0742BC0E029
:10044200121A00E58124FBF58174CCC0E0742BC044
:10045200E0121A001581158122740EC0E0742CC0BE
:10046200E0121A001581158112114A122028AE825B
:100472008E057F00C006C005C007743EC0E0742C24
:10048200C0E0121A00E58124FCF5817451C0E074C9
:100492002CC0E0121A001581158112114A1220286F
:1004A200AD828D047F00C005C004C0077481C0E026
:1004B200742CC0E0121A00E58124FCF581D005D02D
:1004C20006BE30004005EE24CC501ABD3000400577
:1004D200ED24B950107494C0E0742CC0E0121A00DC
:1004E2001581158122D20210AF02C202900406EDDC
:1004F200F08E8212019EA20292AF74B2C0E0742CFE
:10050200C0E0121A00158115812274D9C0E0742C42
:10051200C0E0121A001581158112114AAE829004B0
:1005220041EEF07E007F00900441E0FDBD0D0280AF
:1005320032C3EE9431EF648094805027EE240FF59D
:1005420082EF3404F5830EBE00010FEDF0C007C048
:100552000612114AAC82AD83D006D007900441EC5A
:10056200F080C4EE240FF582EF3404F583E4F074D6
:100572000FC0E07404C0E0E4C0E07409C0E0742D70
:10058200C0E07480C0E01220B5E58124FAF58190C4
:10059200049EE4F0A3F0A3F09004A17410F0E4A38D
:1005A200F090040F75F0001217B8AC82D20310AFAE
:1005B20002C2038C82120181A20392AF227420C074
:1005C200E0742DC0E0121A00158115815388EF22C4
:1005D200743AC0E0742DC0E0121A001581158143EF
:1005E2008810227455C0E0742DC0E0121A001581E3
:1005F20015819005127430F0900513F0900514F0F7
:10060200900515F0900516F022E582900443F0E083
:10061200FFBF010B900442E0F582120181800FC2FC
:1006220092C293900442E090F000F01200E2D29263
:10063200D29390F000E0F58222D20410AF02C204FD
:10064200746EC0E0742DC0E07480C0E01220B51555
:100652008115811581120174E58290050FF074767F
:10066200C0E0742DC0E07480C0E01220B515811581
:100672008115817E007F008E048F05C3745F9CE428
:100682009D405DEC540F7021C007C006C006C00734
:100692007494C0E0742DC0E07480C0E01220B5E50F
:1006A2008124FBF581D006D007900442EEF07582DA
:1006B20001C007C00612060BAD827C00C005C00453
:1006C200749FC0E0742DC0E07480C0E01220B5E5D4
:1006D2008124FBF581D006D0070EBE009A0F8097C9
:1006E20074A7C0E0742DC0E07480C0E01220B5157C
:1006F20081158115817E407F008E048F05C3747F32
:100702009CE49D405DEC540F7021C007C006C006FA
:10071200C0077494C0E0742DC0E07480C0E0122061
:10072200B5E58124FBF581D006D007900442EEF0B6
:10073200758200C007C00612060BAD827C00C005A0
:10074200C004749FC0E0742DC0E07480C0E0122029
:10075200B5E58124FBF581D006D0070EBE009A0FC5
:10076200809774CCC0E0742BC0E07480C0E012208B
:10077200B515811581158190050FE0F58212018171
:1007820074C7C0E0742DC0E07480C0E01220B515BB
:100792008115811581A20492AF2274CCC0E0742D20
:1007A200C0E07480C0E01220B51581158115811258
:1007B200114A12112BAE82C00612114A12112BAD30
:1007C20082AF83D006BE30004024EE24C6401FBD57
:1007D2003000401AED24C640158E07EF24D0C454D1
:1007E200F0FF8D04EC24D09004444FF0805ABE30C8
:1007F20002800DBE31028008BE34028003BE351B6A
:10080200BD41004016ED24B94011EE24D0C454F08D
:10081200FEED24C99004444EF0802D740BC0E074A8
:100822002EC0E07480C0E01220B5158115811581BB
:10083200741DC0E0742EC0E07480C0E01220B515B3
:1008420081158115810207B1900444E0F58222E509
:1008520082900448F0E024D0C40354F8FF430740D8
:100862008F057E00C007C006C005C005C006743AE9
:10087200C0E0742EC0E0121A00E58124FCF581D09C
:1008820005D006D007900445E0F508A3E0F509A3DA
:10089200E0F50A78007900C3E89408E9648094805E
:1008A200400122C292C29388048F0390F000EC2B85
:1008B200F0E82DFBE93EFCC007C006C005C001C040
:1008C20000C003C0047472C0E0742EC0E0121A00AB
:1008D200E58124FCF5811200E2D000D001D292C25F
:1008E20093E82508FAE93509FBAC0A8A828B838CE6
:1008F200F0122AE190F000F0C001C0001200E2D034
:1009020000D001D005D006D00708B80001090208BE
:10091200997481C0E0742EC0E07480C0E01220B5EA
:10092200158115811581120174AF82C0077489C0C7
:10093200E0742EC0E0121A001581158112114AAD21
:10094200828D047E00C005C004C00674BAC0E07483
:100952002EC0E0121A00E58124FCF581D005D007F3
:100962007E00BE0800504B8E037C00C007C006C04C
:1009720005C003C00474BFC0E0742EC0E0121A00A8
:10098200E58124FCF581D005D006EE2449FBE43450
:1009920004FCC006C005C004C00312079CAA82D092
:1009A20003D004D005D006D0078B828C83EAF00EE8
:1009B20080B0D20510AF02C2059004457449F074AC
:1009C20004A3F0E4A3F08D82C007C00512085112FF
:1009D200045BD005ED24D0F582120257D0078F8236
:1009E200120181A20592AF74C7C0E0742DC0E074F9
:1009F20080C0E01220B5158115811581227481C055
:100A0200E0742EC0E07480C0E01220B5158115811B
:100A12001581120174E58290050FF0900451E4F003
:100A2200900452F0900453740FF09004547408F040
:100A3200900455F090045604F0900457F090045836
:100A4200F0D20610AF02C2069004457451F074044D
:100A5200A3F0E4A3F07582311208519004067434B5
:100A6200F075823112019E758201120257A206921E
:100A7200AF900459E4F090045AF090045B7418F0BB
:100A820090045CE4F090045DF090045E7402F090D7
:100A9200045FF0900460F0D20610AF02C206900428
:100AA200457459F07404A3F0E4A3F075823212087D
:100AB200519004067435F075823112019E758202DE
:100AC20012025790050FE0F582120181A20692AF41
:100AD2009004617409F0900462F0900463F0900451
:100AE20064740FF09004657401F0900466F0900451
:100AF20067E4F0900468F0D20610AF02C2069004D8
:100B0200457461F07404A3F0E4A3F0758233120813
:100B1200519004067434F075823212019E7582037C
:100B220012025790050FE0F582120181A20692AFE0
:100B32009004697402F090046AF090046BF09004DF
:100B42006C741AF090046D7402F090046E741EF0CE
:100B520090046FE4F0900470F0D20610AF02C20667
:100B62009004457469F07404A3F0E4A3F075823430
:100B72001208519004067435F075823212019E7586
:100B8200820412025790050FE0F582120181A2063B
:100B920092AF74C7C0E0742DC0E07480C0E0122030
:100BA200B5158115811581227481C0E0742EC0E0D3
:100BB2007480C0E01220B51581158115811201746F
:100BC200E58290050FF0900471741FF0900472F0AA
:100BD2009004737411F09004747415F09004757499
:100BE20011F0900476741FF0900477F0900478F07E
:100BF200D20710AF02C2079004457471F07404A3C7
:100C0200F0E4A3F07582311208519004067434F0B6
:100C120075823112019E758201120257A20792AFAC
:100C2200900479741FF090047AF090047B7411F0B0
:100C320090047C7415F090047D7411F090047E741D
:100C42001FF090047FF0900480F0D20710AF02C230
:100C5200079004457479F07404A3F0E4A3F075825C
:100C6200321208519004067435F075823112019ED9
:100C720075820212025790050FE0F582120181A2DD
:100C82000792AF900481741FF0900482F090048365
:100C9200F09004847410F0900485741BF090048624
:100CA20004F0900487741FF0900488F0D20710AF0C
:100CB20002C2079004457481F07404A3F0E4A3F027
:100CC2007582331208519004067434F07582321220
:100CD200019E75820312025790050FE0F582120100
:100CE20081A20792AF900489741FF090048AF09059
:100CF200048BF090048C7401F090048D741BF090BE
:100D0200048E7407F090048F741FF0900490F0D258
:100D12000710AF02C2079004457489F07404A3F06F
:100D2200E4A3F07582341208519004067435F0750C
:100D3200823212019E75820412025790050FE0F56D
:100D420082120181A20792AF74C7C0E0742DC0E085
:100D52007480C0E01220B51581158115812274E5D9
:100D6200C0E0742EC0E0121A0015811581D208105D
:100D7200AF02C208758200120181902F0775F080C0
:0E0D82001202BA758200120181A20892AF22FD
:102B690020202020202020001B5B313B33336D0ABD
:102B79000D4C434420436C656172656421210D0A43
:102B8900001B5B313B33336D0A0D456E7465722052
:102B990043686172616374657220746F2070757423
:102BA900206F6E204C43442021210D0A000A0D4557
:102BB9006E74657265642043686172203D202563E7
:102BC9000A0D000A0D001B5B313B33336D0A0D45BD
:102BD9006E74657220537472696E6720746F207009
:102BE9007574206F6E204C43442021210D0A004545
:102BF9006E746572656420537472696E67203D2036
:102C090025730A0D001B5B313B33336D0A0D456E8D
:102C190074657220582D436F2D6F7264696E6174EB
:102C29006520746F20707574206F6E204C434420AA
:102C390021210D0A00582D436F7264696E61746514
:102C4900203D2025630A0D001B5B313B33336D0AA0
:102C59000D456E74657220592D436F2D6F7264692D
:102C69006E61746520746F20707574206F6E204CCE
:102C790043442021210D0A00592D436F7264696E66
:102C8900617465203D2025630A0D001B5B313B33D0
:102C9900316D496E76616C696420636F6F72646926
:102CA9006E61746521210A0D001B5B313B33336D65
:102CB9000A0D437572736F72204D6F76656D656E7F
:102CC9007420436F6D706C6574656421210D0A0071
:102CD9001B5B313B33336D0A0D456E7465722061A0
:102CE90064647265737320746F20707574206F6EDD
:102CF900746F20746865204C43442021210D0A001B
:102D09004164647265737320456E746572656420ED
:102D19003D2025730A0D001B5B313B33336D0A0DD2
:102D290054696D65205061757365642021210D0A10
:102D3900001B5B313B33336D0A0D54696D652052BD
:102D49006573756D65642021210D0A001B5B313B9C
:102D590033336D0A0D54696D6520526573657420AE
:102D690021210D0A001B5B313B33346D000A0D50E4
:102D790072696E74696E672048657864756D702034
:102D89006F6620444452414D0A0D000A0D307825E2
:102D99003032783A200030782530327820000A0D18
:102DA9000A0D5072696E74696E672048657864759A
:102DB9006D70206F6620434752414D0A0D001B5B21
:102DC900306D000A0D456E74657220612068657862
:102DD90061646563696D616C2076616C75652062FB
:102DE90065747765656E2028303020746F20314610
:102DF90029206F722028343020746F203538293A01
:102E090020000A0D496E76616C696420696E7075DF
:102E1900742E2000506C6561736520656E7465724F
:102E290020612076616C696420696E7075743A203E
:102E3900000A0D54686520637573746F6D206368AB
:102E490061726163746572207769746820636F6465
:102E590065203078257820686173206265656E2069
:102E6900637265617465642E000A0D4C43445F709A
:102E79007472203D202578001B5B303B33336D0095
:102E8900506C6561736520656E7465722074686540
:102E990020636F646520666F7220746865206375AE
:102EA90073746F6D206368617261637465723A202F
:102EB9000025630A0D000A0D506C65617365206574
:102EC9006E746572207468652076616C756520661C
:102ED9006F7220726F772025643A20001B5B313BAB
:102EE90033336D0A0D417574686F7220496E666FD0
:102EF900205072696E7465642021210D0A004B69A6
:102F090072616E204A6F6A617265202020204553E4
:102F1900442053756D6D65722032303233204C6117
:0F2F290062203420202020202020202020200083
:0133000000CC
:0400000002003F3289
:03000B00020D974C
:0A009800900491E4F0A3F002000EC2
:03000E00020E8857
:100D9000438E0C90000022C022C0E0C0F0C082C090
:100DA00083C007C006C005C004C003C002C001C0A4
:100DB00000C0D075D000C2AFC28D120174E5829020
:100DC0000493F0900491E0FEA3E0FFBE021ABF007E
:100DD00017B2919005107401F0E4A3F0900491F023
:100DE000A3F0900512E004F0900491E02401F0A338
:100DF000E03400F0758AFD758C4B900512E0FFBF62
:100E00003A4A9005127430F0900513E004F0E0FFC8
:100E1000BF3A399005137430F0900514E004F0E007
:100E2000FFBF36289005147430F0900515E004F0EB
:100E3000E0FFBF3A179005157430F0900516E004F6
:100E4000F0E0FFBF36069005167430F0900493E092
:100E5000F582120181D2AFD0D0D000D001D002D023
:100E600003D004D005D006D007D083D082D0F0D0F4
:100E7000E0D022325388CF438901758AFD758C4BAF
:100E800043A882D2B9D28C22121113120112120E6F
:100E9000741211F0900510E0FEA3E0FF4E605812AE
:100EA0000174E582900494F07582591201819005D5
:100EB00016E0F582120257900515E0F582120257EE
:100EC00075823A120257900514E0F582120257908B
:100ED0000513E0F58212025775822E120257900513
:100EE00012E0F582120257900510E4F0A3F090048E
:100EF00094E0F58212018130989A900495E599F07A
:100F0000E0FFFD7E008D828E83C00712112B7438A6
:100F1000C0E0742FC0E07480C0E01220B5158115C8
:100F2000811581C29890002012112BD007BF41007B
:100F30005003021101EF24A55003021101EF24BF59
:100F4000FF240A83F582EF241E83F583E47393ABB9
:100F5000C3DB0B233B536B95BF82010101E9010108
:100F600001010101010101F30F0F0F0F101010100B
:100F70001010100F11111110111111111111111167
:100F8000110FD20910AF02C2091211F0A20992AFDB
:100F9000020E949004997424F0E4A3F0902F387515
:100FA000F0801211B2120340020E9490049974243E
:100FB000F0E4A3F0902F3875F0801211B212038B79
:100FC000020E949004997424F0E4A3F0902F3875E5
:100FD000F0801211B212050C020E94900499742440
:100FE000F0E4A3F0902F3875F0801211B212045B78
:100FF000020E949004997424F0E4A3F0902F3875B5
:10100000F0801211B212030E020E9490049974240F
:10101000F0E4A3F0902F3875F0801211B21205BFE2
:10102000020E949004997424F0E4A3F0902F387584
:10103000F0801211B21205D2020E94900499742419
:10104000F0E4A3F0902F3875F0801211B21205E58C
:10105000020E949004997424F0E4A3F0902F387554
:10106000F0801211B212063B020E9490049974247F
:10107000F0E4A3F0902F3875F0801211B21209132A
:101080009004997424F0E4A3F0902F3875F0801246
:1010900011B2020E949004997424F0E4A3F0902FFE
:1010A0003875F0801211B2120BAA9004997424F0D2
:1010B000E4A3F0902F3875F0801211B2020E9490D4
:1010C00004997424F0E4A3F0902F3875F080121185
:1010D000B21209FF9004997424F0E4A3F0902F3821
:1010E00075F0801211B2020E949004997424F0E409
:1010F000A3F0902F3875F0801211B2120D60020E1D
:1011000094743BC0E0742FC0E0121A001581158161
:03111000020E9438
:102F38000A0D001B5B313B33316D496E76616C695C
:102F4800642043686172616374657221210A0D000F
:0733010000003030303030D5
:10111300759850438920758DFD758BFDC29975991E
:1011230000D28ED2ACD2AF22AF83E582900496F088
:10113300EFA3F03099FD900496E0FEA3E0FF8E99B3
:10114300C2998E828F832220985A120174E582906D
:101153000498F0758259120181900516E0F5821208
:101163000257900515E0F58212025775823A120272
:1011730057900514E0F582120257900513E0F582AB
:1011830012025775822E120257900512E0F5821251
:101193000257900498E0F582120181900510E4F063
:1011A300A3F080A3C298AE997F008E828F8322AF73
:1011B300F0AE83E58290049BF0EEA3F0EFA3F090F2
:1011C300049BE0C0E0A3E0C0E0A3E0C0E09004998A
:1011D300E0C0E0A3E0C0E07458C0E0742FC0E07446
:1011E30080C0E01220B5E58124F8F58122900499AE
:1011F3007423F0E4A3F0902F6675F0801211B2907F
:1012030004997423F0E4A3F0902F9C75F0801211DD
:10121300B29004997423F0E4A3F0902FD275F08078
:101223001211B29004997423F0E4A3F0903008757E
:10123300F0801211B27440C0E07430C0E07480C01A
:10124300E01220B51581158115819004997422F05F
:10125300E4A3F090304975F0801211B2746AC0E0D3
:101263007430C0E07480C0E01220B515811581157B
:1012730081746DC0E07430C0E07480C0E01220B5AA
:101283001581158115819004997424F0E4A3F090DD
:10129300307175F0801211B2746DC0E07430C0E02B
:1012A3007480C0E01220B5158115811581900499D1
:1012B3007424F0E4A3F09030A375F0801211B2907F
:1012C3000499741FF0E4A3F09030A675F080121116
:1012D300B29004997424F0E4A3F09030A375F080E5
:1012E3001211B2746AC0E07430C0E07480C0E012BE
:1012F30020B5158115811581746DC0E07430C0E08F
:101303007480C0E01220B515811581158190049970
:101313007424F0E4A3F09030A375F0801211B2901E
:1013230004997420F0E4A3F09030D375F080121187
:10133300B29004997424F0E4A3F09030A375F08084
:101343001211B2746AC0E07430C0E07480C0E0125D
:1013530020B5158115811581746DC0E07430C0E02E
:101363007480C0E01220B515811581158190049910
:101373007424F0E4A3F09030A375F0801211B290BE
:1013830004997421F0E4A3F090310075F0801211F8
:10139300B29004997424F0E4A3F09030A375F08024
:1013A3001211B2746AC0E07430C0E07480C0E012FD
:1013B30020B5158115811581746DC0E07430C0E0CE
:1013C3007480C0E01220B5158115811581900499B0
:1013D3007424F0E4A3F09030A375F0801211B2905E
:1013E3000499741FF0E4A3F090312D75F08012116D
:1013F300B29004997424F0E4A3F09030A375F080C4
:101403001211B2746AC0E07430C0E07480C0E0129C
:1014130020B5158115811581746DC0E07430C0E06D
:101423007480C0E01220B51581158115819004994F
:101433007424F0E4A3F09030A375F0801211B290FD
:1014430004997420F0E4A3F090315A75F0801211DE
:10145300B29004997424F0E4A3F09030A375F08063
:101463001211B2746AC0E07430C0E07480C0E0123C
:1014730020B5158115811581746DC0E07430C0E00D
:101483007480C0E01220B5158115811581900499EF
:101493007424F0E4A3F09030A375F0801211B2909D
:1014A30004997421F0E4A3F090318775F080121150
:1014B300B29004997424F0E4A3F09030A375F08003
:1014C3001211B2746AC0E07430C0E07480C0E012DC
:1014D30020B5158115811581746DC0E07430C0E0AD
:1014E3007480C0E01220B51581158115819004998F
:1014F3007424F0E4A3F09030A375F0801211B2903D
:101503000499741FF0E4A3F09031B475F0801211C4
:10151300B29004997424F0E4A3F09030A375F080A2
:101523001211B2746AC0E07430C0E07480C0E0127B
:1015330020B5158115811581746DC0E07430C0E04C
:101543007480C0E01220B51581158115819004992E
:101553007424F0E4A3F09030A375F0801211B290DC
:1015630004997420F0E4A3F09031E175F080121136
:10157300B29004997424F0E4A3F09030A375F08042
:101583001211B2746AC0E07430C0E07480C0E0121B
:1015930020B5158115811581746DC0E07430C0E0EC
:1015A3007480C0E01220B5158115811581900499CE
:1015B3007424F0E4A3F09030A375F0801211B2907C
:1015C30004997421F0E4A3F090320E75F0801211A7
:1015D300B29004997424F0E4A3F09030A375F080E2
:1015E3001211B2746AC0E07430C0E07480C0E012BB
:1015F30020B5158115811581746DC0E07430C0E08C
:101603007480C0E01220B51581158115819004996D
:101613007424F0E4A3F09030A375F0801211B2901B
:1016230004997421F0E4A3F090323B75F080121119
:10163300B29004997424F0E4A3F09030A375F08081
:101643001211B2746AC0E07430C0E07480C0E0125A
:1016530020B5158115811581746DC0E07430C0E02B
:101663007480C0E01220B51581158115819004990D
:101673007424F0E4A3F09030A375F0801211B290BB
:1016830004997421F0E4A3F090326875F08012118C
:10169300B29004997424F0E4A3F09030A375F08021
:1016A3001211B2746AC0E07430C0E07480C0E012FA
:1016B30020B5158115811581746DC0E07430C0E0CB
:1016C3007480C0E01220B5158115811581900499AD
:1016D3007424F0E4A3F09030A375F0801211B2905B
:1016E3000499741FF0E4A3F090329575F080121101
:1016F300B29004997424F0E4A3F09030A375F080C1
:101703001211B2746AC0E07430C0E07480C0E01299
:1017130020B5158115811581746DC0E07430C0E06A
:101723007480C0E01220B51581158115819004994C
:101733007424F0E4A3F09030A375F0801211B290FA
:1017430004997420F0E4A3F09032C275F080121172
:10175300B29004997424F0E4A3F09030A375F08060
:101763001211B2746AC0E07430C0E07480C0E01239
:1017730020B5158115811581746DC0E07430C0E00A
:101783007480C0E01220B5158115811581900499EC
:101793007424F0E4A3F090307175F0801211B274E8
:1017A3006AC0E07430C0E07480C0E01220B51581D7
:0517B3001581158122E3
:102F58001B5B313B25646D25731B5B306D002B2D8E
:102F68002D2D2D2D2D2D2D2D2D2D2D2D2D2D2D2D89
:102F78002D2D2D2D2D2D2D2D2D2D2D2D2D2D2D2D79
:102F88002D2D2D2D2D2D2D2D2D2D2D2D2D2D2D2D69
:102F98002B0A0D007C20202020202020202020200B
:102FA8005553455220494E54455246414345204CBD
:102FB8006162203420506172742032202020202049
:102FC8002020202020207C0A0D007C20202020208A
:102FD80020202020202020202020202020202020E9
:102FE800204C434420202020202020202020202066
:102FF8002020202020202020202020207C0A0D00B6
:103008002B2D2D2D2D2D2D2D2D2D2D2D2D2D2D2DEA
:103018002D2D2D2D2D2D2D2D2D2D2D2D2D2D2D2DD8
:103028002D2D2D2D2D2D2D2D2D2D2D2D2D2D2D2DC8
:103038002D2D2B0A0D0A0D002020202020202020D5
:1030480000506C656173652073656C6563742061FD
:103058006E206F7074696F6E2062656C6F773A0AC4
:103068000D000A0D00202020002B2D2D2D2D2D2D9B
:103078002D2D2D2D2D2D2D2D2D2D2D2D2D2D2D2D78
:103088002D2D2D2D2D2D2D2D2D2D2D2D2D2D2D2D68
:103098002D2D2D2D2D2D2D2B0A0D007C20005B4173
:1030A8005D2057726974652061206368617261638D
:1030B80074657220746F204C434420202020202007
:1030C80020202020202020202020005B425D205747
:1030D80072697465206120737472696E6720746FF9
:1030E800204C434420202020202020202020202065
:1030F80020202020202020005B435D20476F207483
:103108006F2041646472657373202830784E4E29AD
:1031180020202020202020202020202020202020A7
:1031280020202020005B445D20476F20746F2043DF
:103138006F2D6F7264696E617465732028782C79BD
:10314800292020202020202020202020202020206E
:1031580020005B455D2053746F7020456C6170736F
:1031680065642054696D65202020202020202020BF
:103178002020202020202020202020202020005B2C
:10318800465D20526573756D6520456C6170736589
:10319800642054696D6520202020202020202020D4
:1031A8002020202020202020202020005B475D2098
:1031B80052657365742074696D6520746F203030B2
:1031C8003A30303A30202020202020202020202093
:1031D8002020202020202020005B485D204C4344F4
:1031E800204845582044756D70202020202020203C
:1031F80020202020202020202020202020202020C7
:103208002020202020005B495D20496E70757420C5
:10321800437573746F6D204368617261637465727E
:103228007320202020202020202020202020202043
:103238002020005B4A5D204C6F616420536D696CEF
:103248006579204C6F676F202020202020202020C7
:103258002020202020202020202020202020200086
:103268005B4B5D204C6F6164204355204C6F676F4A
:103278002020202020202020202020202020202046
:10328800202020202020202020202020005B505DAE
:10329800205072696E7420417574686F7220496E8F
:1032A800666F202020202020202020202020202081
:1032B800202020202020202020005B5A5D20436C05
:1032C800656172204C43442053637265656E20200B
:1032D80020202020202020202020202020202020E6
:0732E800202020202020001F
:06006E00E478FFF6D8FD66
:1017B800AFF0AE83E5829004A3F0EEA3F0EFA3F0C0
:1017C8009004A3E0FDA3E0FEA3E0FF8D828E838F4B
:1017D800F0122AE1FCBC20028003BC09070DBD0001
:1017E800EA0E80E79004A6EDF0EEA3F0EFA3F08DEB
:1017F800828E838FF0122AE1FCBC2D149004AC7405
:1018080001F09004A62DF0E43EA3F0EFA3F08005CC
:101818009004ACE4F09004ACE060799004A6E0FD9C
:10182800A3E0FEA3E0FF8D828E838FF0122AE1FDF4
:10183800BD20028022BD0902801D9004A6E0FDA300
:10184800E0FEA3E0FF8D828E838FF0122AE1FFBFB6
:101858002D028003BF2B3D90049EE0FDA3E0FEA374
:10186800E0FF90049EE0F5F0A3E045F0601F9004CF
:10187800A3E0FAA3E0FBA3E0FC8D828E838FF0EA5D
:101888001219E5A3EB1219E5A3EC1219E590000073
:10189800E4F5F0229004A6E0FDA3E0FEA3E0FF90AB
:1018A80004A1E0FBA3E0FC9004B374A9F07404A3C2
:1018B800F0E4A3F09004B6EBF0ECA3F08D828E83F5
:1018C8008FF0121B8EAC82AD83AEF0FF9004A9E0BE
:1018D800F50BA3E0F50CA3E0F50D9004A6E0F8A342
:1018E800E0FAA3E0FBC00BC00CC00D88828A838B92
:1018F800F0120011158115811581704390049EE046
:10190800F50EA3E0F50FA3E0F51090049EE0F5F0C6
:10191800A3E045F060229004A3E0F8A3E0FAA3E076
:10192800FB850E82850F838510F0E81219E5A3EA7E
:101938001219E5A3EB1219E5900000E4F5F02290E6
:10194800049EE0F9A3E0FAA3E0FB90049EE0F5F022
:10195800A3E045F0601789828A838BF0E50B1219A2
:10196800E5A3E50C1219E5A3E50D1219E59004AC01
:10197800E07021C374FF9C74FF9D74FF9E747F9F69
:10198800501290050D7422F0E4A3F090FFFF75F05B
:10199800FF747F229004ACE0601EC3E49CE49DE4E5
:1019A8009E74809F501290050D7422F0E4A3F0906D
:1019B8000000E4F5F07480229004ACE0600FC3E40A
:1019C8009CF8E49DF9E49EFAE49FFB80088C008D66
:0D19D800018E028F03888289838AF0EB2242
:10004C007908E94400601B7A01903300780F75A0A1
:10005C0005E493F2A308B8000205A0D9F4DAF2750E
:02006C00A0FFF3
:1019E50020F71130F6138883A88220F509F6A8831D
:1019F5007583002280FEF280F5F022C018858118DB
:101A0500E51824FDF8868318868218E493A324DB61
:101A1500600C24256005121AEE80F0021B06D2D553
:101A2500E493A3C083C082B4731486F01886831828
:101A3500868218122AE16054A3121AEE80F5B46367
:101A45000818E618121AEE8043B46417E630E74624
:101A550018E6F42401F608E6F43400F6742D121A9B
:101A6500EE8033B4782D868318868218E4121ADF47
:101A7500E583121ADEE583121ADFE582121ADEE526
:101A850082121ADF30D5057430121AEED082D08357
:101A9500021A10B475F6E6FA18E6F9187C107D27D7
:101AA500121AC9FF7CE87D03121AC9C4F5837C6448
:101AB5007D00121AC94283E975F00A84C445F0F520
:101AC50082EF80A97B000BC3E99CF9EA9DFA50F6E9
:101AD5001BE92CF9EA3DFAEB22C4540F700320D51B
:101AE5001FC2D52490D43440D4C083C082C0F0F541
:101AF50082E8C0E012112BD0E0F8D0F0D082D0837C
:101B050022D01822AA83AB828BF09004AEE0A4F811
:101B1500A9F08AF0E0A429F98BF0A3E0A429F583C4
:101B250088822222E5829004B1F0E0FFBF300040B8
:101B35000EEF24C64009EF24D09004B2F080349013
:101B450004B1E0FFBF6100400EEF24854009900419
:101B5500B274A92FF0801C9004B1E0FFBF41004092
:101B65000EEF24A540099004B274C92FF0800475C6
:101B750082FF229004B2E0FF9004B0E0FEC3EF9E26
:101B850040047582FF228F8222AFF0AE83E58290FA
:101B950004B8F0EEA3F0EFA3F09004B8E0FDA3E0E5
:101BA500FEA3E0FF9004C2E4F09004C3F08D828EA2
:101BB500838FF0122AE1FCBC20028003BC09070DCB
:101BC500BD00EA0E80E79004BBEDF0EEA3F0EFA3B5
:101BD500F08D028E038F048D828E838FF0122AE1A1
:101BE500FFBF2B028009BF2D149004C37401F09030
:101BF50004BB74012AF0E43BA3F0ECA3F09004B617
:101C0500E0FEA3E0FF9004B6E0F5F0A3E045F06048
:101C150003021CE39004BBE0FBA3E0FCA3E0FD9002
:101C250004C874EFF07432A3F07480A3F09004CB71
:101C35007402F0E4A3F08B828C838DF0121F72E5A1
:101C4500828583F045F060349004BBE0FBA3E0FCA3
:101C5500A3E0FD9004C874F2F07432A3F07480A37D
:101C6500F09004CB7402F0E4A3F08B828C838DF0AA
:101C7500121F72E5828583F045F070259004B674D5
:101C850010F0E4A3F09004BBE0FBA3E0FCA3E0FDAF
:101C95009004BB74022BF0E43CA3F0EDA3F0021D0D
:101CA5006F9004BBE0FBA3E0FCA3E0FD8B828C837B
:101CB5008DF0122AE1FABA30199004B67408F0E4EE
:101CC500A3F09004BB042BF0E43CA3F0EDA3F002D9
:101CD5001D6F9004B6740AF0E4A3F0021D6FBE10E8
:101CE50005BF00028003021D6F9004BBE0FDA3E069
:101CF500FEA3E0FF9004C874EFF07432A3F0748083
:101D0500A3F09004CB7402F0E4A3F08D828E838F50
:101D1500F0121F72E5828583F045F060349004BBB4
:101D2500E0FDA3E0FEA3E0FF9004C874F2F0743276
:101D3500A3F07480A3F09004CB7402F0E4A3F08DBB
:101D4500828E838FF0121F72E5828583F045F070D5
:101D5500199004BBE0FDA3E0FEA3E0FF9004BB7473
:101D6500022DF0E43EA3F0EFA3F09004BBE0FDA349
:101D7500E0FEA3E0FF8D828E838FF0122AE1FC90B6
:101D850004B6E0FAA3E0FB9004B0EAF08C82C00749
:101D9500C006C005C003C002121B29AC82D002D008
:101DA50003D005D006D007EC30E7439004B3E0F547
:101DB50011A3E0F512A3E0F5139004B3E0F5F0A349
:101DC500E045F060229004B8E0F8A3E0F9A3E0FC58
:101DD5008511828512838513F0E81219E5A3E912AE
:101DE50019E5A3EC1219E5900000E4F5F022900442
:101DF500BEE4F0A3F0A3F0A3F08A118B128D828EBE
:101E0500838FF0122AE1FA9004B0E511F08A82C0BE
:101E150007C006C005121B29AA82D005D006D00727
:101E2500EA30E703021EF7C0029004BEE0F8A3E023
:101E3500F9A3E0FAA3E0FC9004C4E8F0E9A3F0EA12
:101E4500A3F0ECA3F0900509E511F0E512A3F0E588
:101E5500123395E0A3F0A3F0888289838AF0ECC061
:101E650007C006C005122AFDA982AA83ABF0FCD0E3
:101E750005D006D0079004BEE9F0EAA3F0EBA3F085
:101E8500ECA3F09004BEE0F514A3E0F515A3E0F58E
:101E950016A3E0F5179004C4E0F8A3E0FAA3E0FB6D
:101EA500A3E0FCC3E51498E5159AE5169BE5179C98
:101EB500D00250069004C27401F09004BEE0F514FF
:101EC500A3E0F515A3E0F516A3E0F5178A017A005E
:101ED5007B007C009004BEE92514F0EA3515A3F0DB
:101EE500EB3516A3F0EC3517A3F00DBD00010E027E
:101EF5001E029004B3E0FAA3E0FBA3E0FC9004B358
:101F0500E0F5F0A3E045F060148A828B838CF0ED58
:101F15001219E5A3EE1219E5A3EF1219E59004C213
:101F2500E0601190050D7422F0E4A3F090FFFF74BA
:101F3500FFF5F0229004C3E0601D9004BEE0FCA311
:101F4500E0FDA3E0FEA3E0FFC3E49CFCE49DFDE40B
:101F55009EFEE49FFF800E9004BEE0FCA3E0FDA37F
:0D1F6500E0FEA3E0FF8C828D838EF0EF2262
:0632EF00307800305800A9
:100074007800E84400600A790075A004E4F309D824
:10008400FC780FE84401600C7902900400E4F0A3CA
:04009400D8FCD9FAC1
:101F7200AFF0AE83E5829004CDF0EEA3F0EFA3F0D4
:101F82009004CBE0FEA3E0FF9004CBE0F5F0A3E0E9
:101F920045F07004900000229004CDE0FBA3E0FC29
:101FA200A3E0FD9004C8E0F8A3E0F9A3E0FA1EBEA6
:101FB200FF011FEE4F60418B828C838DF0122AE16C
:101FC200F5196034C006C007888289838AF0122A14
:101FD200E1FFB519028006D007D006801BD007D0DA
:101FE200060BBB00010C9004CDEBF0ECA3F0EDA3CB
:101FF200F008B800B90980B69004CDEBF0ECA3F07C
:10200200EDA3F08B828C838DF0122AE1FB7F008896
:102012008289838AF0122AE1F87E00EBC398FBEFF3
:102022009E8B82F58322AF83E5829004D0F0EFA3EA
:10203200F09004D0E0FEA3E0BE6100920A4019EEE7
:102042002485920A40129004D0E0FEA3E0FF74E0DF
:102052002EFE74FF3FFF80089004D0E0FEA3E0FF55
:102062008E828F8322C0188581187E008E83121182
:102072002BD01822AFF0AE83E5829004D3F0EEA30A
:10208200F0EFA3F09004D3E0FDA3E0FEA3E0FF9005
:1020920004D2E0FC9004E7E4F0A3F0A3F09004EA99
:1020A200EDF0EEA3F0EFA3F09004EDECF0902067DA
:1020B2000221BBC018E581F51824FBFF9004E7E478
:1020C200F0A3F0A3F0E51824FBF89004EAE6F00888
:1020D200E6A3F008E6A3F09004EDEFF0902067127B
:1020E20021BBD01822E5829004E3F0E0FF9004D9EE
:1020F200E0C0E0A3E0C0E0A3E0C0E0122102800D56
:102102009004D7E0C0E0A3E0C0E08F8222158115E1
:102112008115819004E1E02401F0A3E03400F02273
:10212200E5829004E4F0E02430FF24C6500D7407E9
:102132002FFF9004D6E060034307208F820220E73E
:10214200E5829004E5F0E0FFC4540FF582C0071267
:102152002122D00753070F8F82022122E5829004A9
:10216200E6F09004DCE0FCA3E0FDA3E0FEA3E0FFC8
:102172009004E0E0FB9004E6E0FA79208B00E82886
:10218200F519EF2354014519FBEC2CFCED33FDEE60
:1021920033FEEF33FFC3EB9A4007EBC39AFB4304D2
:1021A2000119E970D79004DCECF0EDA3F0EEA3F096
:1021B200EFA3F09004E0EBF022AF83E5829004EE0F
:1021C200F0EFA3F09004EEE0FEA3E0FF9004D7EE60
:1021D200F0EFA3F09004E7E0FDA3E0FEA3E0FF90A0
:1021E20004D9EDF0EEA3F0EFA3F09004E1E4F0A344
:1021F200F09004EAE0FDA3E0FEA3E0FF8D828E836F
:102202008FF0122AE1FC9004EA74012DF0E43EA35F
:10221200F0EFA3F0EC7003022ABDBC25028003029A
:102222002AB59004F0E4F09004F1F09004F2F090FA
:1022320004F3F09004F4F09004F5F09004F6F090BA
:1022420004F7F09004F9F09004FAF0A3F09004FC83
:1022520014F0A3F09004EAE0FDA3E0FEA3E0FF8DFA
:10226200828E838FF0122AE1FBA3AD82AE839004AB
:10227200EAEDF0EEA3F0EFA3F0900500EBF0BB2542
:10228200088B821220E70221F3BB300050030223A5
:1022920054EB24C650030223549004FCE0F523A31C
:1022A200E0F52474FFB52363B52460C005C006C001
:1022B200079004FAE0FAA3E0FF9004AEEAF0EFA37D
:1022C200F090000AC005C003121B09AE82AF83D092
:1022D20003D0058B027D00EA2EFEED3FFFEE24D0F7
:1022E200FEEF34FFFF9004FAEEF0EFA3F0D007D038
:1022F20006D0059004FAE0F5F0A3E045F060030291
:1023020022619004F17401F0022261C005C006C08E
:10231200079004AEE523F0E524A3F090000AC0067E
:10232200C005C003121B09AA82AF83D003D005D017
:10233200067E00EB2AFAEE3FFFEA24D0FAEF34FFE2
:10234200FF9004FCEAF0EFA3F0D007D006D005021C
:102352002261900500E0FBBB2E2FC005C006C0071E
:102362009004FCE0FAA3E0FFBAFF05BFFF02800978
:10237200D007D006D005022261D007D006D0059042
:1023820004FCE4F0A3F0022261BB61004014EB24E0
:1023920085400F90050074DF5BF09004D67401F065
:1023A20080059004D6E4F0900500E0FBBB2002809B
:1023B20075BB2B028067BB2D028059BB4202806F26
:1023C200BB4302807CBB440302264BBB460302266E
:1023D20071BB4803022261BB490302264BBB4A037D
:1023E200022261BB4C028050BB4F03022659BB50F4
:1023F200030225B9BB53028077BB5403022261BB9F
:102402005503022661BB5803022669BB5A03022206
:10241200610226799004F07401F00222619004F2C4
:102422007401F00222619004F37401F002226190BF
:1024320004F57401F00222619004F67401F00222A4
:10244200619004F5E0600E9004EDE014F9F090055F
:1024520000E7F0800F9004EDE024FEFFF08F019082
:102462000500E7F0900500E0F5821220E7022688D9
:102472009004EDE024FDFFF08F018705098706092E
:10248200870719199004DCEDF0EEA3F0EFA3F08DAD
:10249200828E838FF0122AC9858223858324900439
:1024A200FCE0FAA3E0FDBAFF0DBDFF0A9004FCE5D3
:1024B20023F0E524A3F09004F0E0704B9004FAE0DE
:1024C200FAA3E0FDC3E5239AE5249D503A9004FA6D
:1024D200EAC39523F0ED9524A3F09004FAE0FAA361
:1024E200E0FD8A068D071ABAFF011DEE4F601075D6
:1024F2008220C005C0021220E7D002D00580E390FE
:1025020004FAEAF0EDA3F09004FCE0F526A3E0F56E
:10251200279004DCE0FAA3E0FDA3E0FF8A828D832A
:102522008FF0122AE1F525603CC3E495267480857C
:1025320027F063F08095F0502C152674FFB5260223
:1025420015278525821220E79004DCE0FAA3E0FD3E
:10255200A3E0FF0ABA00010D9004DCEAF0EDA3F05B
:10256200EFA3F080AC9004F0E070030226889004A0
:10257200FAE0FEA3E0FFC3E5239EE5249F400302A9
:1025820026889004FAEEC39523F0EF9524A3F090E9
:1025920004FAE0FEA3E0FF8E028F051EBEFF011FBC
:1025A200EA4D7003022680758220C007C006122001
:1025B200E7D006D00780E09004EDE024FDFDF08D29
:1025C20001872809872909872A19199004DCE52837
:1025D200F0E529A3F0E52AA3F09004DEE0FDBD803A
:1025E2000040089005007443F08020BD6000400860
:1025F2009005007450F08013BD4000400890050023
:102602007449F080069005007458F0900500E0FDD2
:10261200F582C0051220E775823A1220E7758230F2
:102622001220E77582781220E7D005BD4902800E9C
:10263200BD500280099004DDE0F58212214290042F
:10264200DCE0F582122142803D9004F47401F090A6
:1026520004F9740AF0802F9004F97408F08027902E
:1026620004F9740AF0801F9004F97410F080179036
:1026720004F77401F0800F8B821220E78008900427
:10268200FAEEF0EFA3F09004F7E060719004EDE051
:1026920024FCFFF08F018703098705098706098754
:1026A200071919199004DCEBF0EDA3F0EEA3F0EF9B
:1026B200A3F09004DC74F5F07432A3F07480A3F0FC
:1026C2009004DCE0F528A3E0F529A3E0F52A7401E3
:1026D2002528FAE43529FBAF2A9004DCEAF0EBA3C3
:1026E200F0EFA3F0852882852983852AF0122AE15A
:1026F200FF70030221F38F821220E780C39004F956
:10270200E070030221F39004F5E060479004EDE0ED
:1027120014F9F087077E007D007B009004DCEFF067
:10272200EEA3F0EDA3F0EBA3F09004F4E06003025B
:1027320027CB9004DCE0FBA3E0A3E0A3E07D007ED6
:10274200007F009004DCEBF0EDA3F0EEA3F0EFA32A
:10275200F080769004F6E060289004EDE024FCFF1F
:10276200F08F018703098705098706098707191969
:10277200199004DCEBF0EDA3F0EEA3F0EFA3F080F0
:10278200489004EDE024FEFFF08F018706098707D9
:1027920019EF3395E0FDFB9004DCEEF0EFA3F0EDD2
:1027A200A3F0EBA3F09004F4E0701E9004DCE0FBD5
:1027B200A3E0FDA3E0A3E07E007F009004DCEBF049
:1027C200EDA3F0EEA3F0EFA3F09004F4E0604190EB
:1027D20004DCE0FBA3E0FDA3E0FEA3E0FF30E72B77
:1027E2009004DCE0FBA3E0FDA3E0FEA3E0FFC3E472
:1027F2009BFBE49DFDE49EFEE49FFF9004DCEBF076
:10280200EDA3F0EEA3F0EFA3F080059004F4E4F062
:102812009004F87401F09004F9E0F526752B067522
:102822002C05E4F523F5249004E0E4F085268212D9
:10283200215E9004F8E070339004E0E0C454F0F5B7
:10284200289004E0E0C4540F4528F528852B8285A2
:102852002C83E0FFE5284207852B82852C83EFF04D
:10286200152B74FFB52B02152C800C9004E0E0FFB1
:10287200852B82852C83F00523E4B5230205249061
:1028820004F8E0B40100E433F09004DCE0FAA3E0E1
:10289200FBA3E0FEA3E0FFEA4B4E4F708A900507D0
:1028A200E52BF0E52CA3F09004FEE523F0E524A34C
:1028B200F09004FAE0F5F0A3E045F070099004FA14
:1028C2007401F0E4A3F09004F1E0FFE0704790049B
:1028D200F0E0704185232B85242C9004FAE0FAA3C2
:1028E200E0FBC007AF2B0F8F067F00C3EE9AEF9B72
:1028F200D0075019758220C007C003C0021220E71A
:10290200D002D003D0071ABAFF011B80D59004FA77
:10291200EAF0EBA3F09004F4E0602075822DC0078A
:102922001220E7D0079004FAE024FFFDA3E034FF71
:10293200FE9004FAEDF0EEA3F080569004FEE0F56E
:10294200F0A3E045F0604A9004F2E0602075822B2B
:10295200C0071220E7D0079004FAE024FFFDA3E0AD
:1029620034FFFE9004FAEDF0EEA3F080249004F31D
:10297200E0601E758220C0071220E7D0079004FA9B
:10298200E024FFFDA3E034FFFE9004FAEDF0EEA395
:10299200F09004F0E070489004FEE0F52BA3E0F51F
:1029A2002C9004FAE0FAA3E0FBC0078A068B071A10
:1029B200BAFF011BC3E52B9EE52C9FD0075053EFB6
:1029C20060067D307E0080047D207E008D82C007FF
:1029D200C003C0021220E7D002D003D00780CA9001
:1029E20004FAE0FEA3E0FF9004FEE0F52BA3E0F57D
:1029F2002CC3E52B9EE52C9F500F9004FAEEC39555
:102A02002BF0EF952CA3F080119004FAE4F0A3F0E0
:102A120080089004FAEAF0EBA3F0900507E0FEA329
:102A2200E0FF9004FEE0F52BA3E0F52CAA2BAD2CE1
:102A3200152B74FFB52B02152CEA4D60459004F856
:102A4200E0B40100E433F09004F8E070140EBE002C
:102A5200010F8E828F83E0C4540FFD9004E0F0805A
:102A62000E8E828F83E0FD53050F9004E0EDF0900F
:102A720004E0E0F582C007C006122122D006D0078A
:102A820080AA9004F0E070030221F39004FAE0FEC1
:102A9200A3E0FF8E038F051EBEFF011FEB4D7003E7
:102AA2000221F3758220C007C0061220E7D006D0AB
:102AB2000780E08C821220E70221F39004E1E0FE1D
:072AC200A3E08E82F58322E0
:0B32F5003C4E4F20464C4F41543E0021
:102AC900AA82AB83122AE16003A380F8C3E5829A44
:082AD900F582E5839BF58322E1
:10001100E58124FCC3C8C0E0C082E608467006E55D
:10002100824583601218E58296F58208E58396423F
:100031008208E5F0964582D082C8D0E0C822758159
:0B0041002C120D90E582600302000EFF
:102AE10020F71430F6148883A88220F507E6A8831E
:102AF10075830022E280F7E49322E022A882A98371
:102B0100AAF0FB88F0900509E0A4FCADF089F0E0A3
:102B1100A42DFDE435F0FE88F0A3E0A42DFDE5F041
:102B21003EFEE433FF89F0E0A42EFEE5F03FFF888E
:102B3100F0A3E0A42EFEE5F03FFF8AF0900509E046
:102B4100A42EFEE5F03FFF8BF0E0A42FFF8AF0A357
:102B5100E0A42FFF89F0A3E0A42FFF88F0A3E0A455
:082B61002F8EF08D838C82227F
:00000001FF
