:1000A900AF83E582900403F0EFA3F0900403E0FE30
:1000B900A3E0FF900513EEF0EFA3F09000521219A0
:1000C90089AE82AF837C007D00C3EC9EED64808F96
:1000D900F063F08095F050070CBC00ED0D80EA222A
:1000E900C292D29390F00075F00012296130E708AE
:1000F90090000A1200A980EC229005777430F090E4
:100109000578F0900579F090057AF090057BF0225A
:10011900C292C2939000A01200A990F0007430F02E
:100129009000AA1200A990F0007430F09000961285
:1001390000A990F0007430F01200E9C292C29390C5
:10014900F0007438F01200E9C292C29390F0007482
:100159000FF01200E9C292C29390F0007401F012FC
:1001690000E9C292C29390F0007406F01200E9020D
:100179000102C292D29390F000E0547FF58222E509
:1001890082900405F0C292C293900405E043E08096
:10019900F0900405E090F000F00200E9E582900497
:1001A90007F0E0FFE4BF300104FE700FBF310280A9
:1001B90011BF32028014BF33218017900408E4F084
:1001C900801D9004087440F080159004087410F0A4
:1001D900800D9004087450F08005900408E4F0EE56
:1001E9006012900406E0FFBF340A900408E043E07F
:1001F90004F08055900407E0FFBF3412900406E034
:10020900FFBF300A900408E043E040F0803B9004CF
:1002190006E0FFBF41004013EF24B9400E8F06EE00
:1002290024C9FE900408E04EF0801EBF3000401142
:10023900EF24C6400CEF24D0FF900408E04FF08073
:1002490008900408E043E008F0900408E0F5821201
:1002590001880200E9E582900409F012017BAF826E
:10026900D292C293900409E090F000F0C007120006
:10027900E9D007BF0F02800FBF1F028022BF4F02C4
:100289008011BF5F3280249004067430F07582318A
:100299000201A59004067430F07582320201A5901E
:1002A90004067430F07582300201A590040674309A
:1002B900F07582300201A522AFF0AE83E582900489
:1002C9000AF0EEA3F0EFA3F090040AE0FDA3E0FE2C
:1002D900A3E0FF7B007C00EB2DF8EC3EF98F028850
:1002E9008289838AF0122961FA60208A82C007C054
:1002F90006C005C004C00312025ED003D004D005B5
:10030900D006D0070BBB00CF0C80CC22C292C2937F
:1003190090F0007401F01200E975820012018890D2
:1003290029E975F0801202C175820012018874F101
:10033900C0E07429C0E01218801581158122740A61
:10034900C0E0742AC0E01218801581158112154A7F
:10035900AE82D20010AF02C2008E82C00612025EC7
:10036900A20092AF7F00C0077436C0E0742AC0E0D3
:10037900121880E58124FCF581744CC0E0742AC010
:10038900E01218801581158122744FC0E0742AC0CB
:10039900E01218801581158190040D7401F0E4A311
:1003A900F07E007F0090040DE0F5F0A3E045F060D9
:1003B9003DC007C00612154AAC82AD83D006D007EE
:1003C900BC0D0990040DE4F0A3F080D9900400E07D
:1003D900FAA3E0FBA3E0FDEE2AFAEF3BFB8A828B4E
:1003E900838DF0EC1218650EBE00BA0F80B7900429
:1003F90000E0FBA3E0FCA3E0FDEE2BFEEF3CFF8D4C
:10040900028E828F838AF0E4121865D20110AF023E
:10041900C201900400E0FDA3E0FEA3E0FF8D828EFF
:10042900838FF01202C1A20192AF900400E0C0E0F4
:10043900A3E0C0E0A3E0C0E07478C0E0742AC0E0A3
:10044900121880E58124FBF581744CC0E0742AC040
:10045900E01218801581158122748EC0E0742AC0BB
:10046900E01218801581158112154A121EA8AE8254
:100479008E057F00C006C005C00774BEC0E0742A9F
:10048900C0E0121880E58124FCF58174D1C0E074C4
:100499002AC0E01218801581158112154A121EA86A
:1004A900AD828D047F00C005C004C0077401C0E09F
:1004B900742BC0E0121880E58124FCF581D005D0A9
:1004C90006BE30004005EE24CC501ABD3000400570
:1004D900ED24B950107414C0E0742BC0E0121880D8
:1004E9001581158122D20210AF02C202900406EDD5
:1004F900F08E821201A5A20292AF7432C0E0742B71
:10050900C0E012188015811581227459C0E0742B3E
:10051900C0E01218801581158112154AAE82900427
:1005290041EEF07E007F00900441E0FDBD0D0280A8
:1005390032C3EE9431EF648094805027EE240FF596
:1005490082EF3404F5830EBE00010FEDF0C007C041
:100559000612154AAC82AD83D006D007900441EC4F
:10056900F080C4EE240FF582EF3404F583E4F074CF
:100579000FC0E07404C0E0E4C0E07489C0E0742BEB
:10058900C0E07480C0E0121F35E58124FAF581903E
:100599000503E4F0A3F0A3F09005067410F0E4A3BA
:1005A900F090040F75F000121638AC82D20310AF28
:1005B90002C2038C82120188A20392AF2274A0C0E6
:1005C900E0742BC0E0121880158115815388EF2241
:1005D90074BAC0E0742BC0E01218801581158143EC
:1005E90088102274D5C0E0742BC0E01218801581E0
:1005F90015819005777430F0900578F0900579F0C1
:1006090090057AF090057BF022E582900443F0E0B2
:10061900FFBF010B900442E0F582120188800FC2EE
:1006290092C293900442E090F000F01200E9D29255
:10063900D29390F000E0F58222D20410AF02C204F6
:1006490074EEC0E0742BC0E07480C0E0121F351551
:10065900811581158112017BE582900574F074F68C
:10066900C0E0742BC0E07480C0E0121F35158115FD
:100679008115817E007F008E048F05C3745F9CE421
:100689009D405DEC540F7021C007C006C006C0072D
:100699007414C0E0742CC0E07480C0E0121F35E50A
:1006A9008124FBF581D006D007900442EEF07582D3
:1006B90001C007C006120612AD827C00C005C00445
:1006C900741FC0E0742CC0E07480C0E0121F35E5CF
:1006D9008124FBF581D006D0070EBE009A0F8097C2
:1006E9007427C0E0742CC0E07480C0E0121F351577
:1006F90081158115817E407F008E048F05C3747F2B
:100709009CE49D405DEC540F7021C007C006C006F3
:10071900C0077414C0E0742CC0E07480C0E0121FDC
:1007290035E58124FBF581D006D007900442EEF02F
:10073900758200C007C006120612AD827C00C00592
:10074900C004741FC0E0742CC0E07480C0E0121FA4
:1007590035E58124FBF581D006D0070EBE009A0F3E
:100769008097744CC0E0742AC0E07480C0E0121F06
:1007790035158115811581900574E0F5821201887E
:100789007447C0E0742CC0E07480C0E0121F3515B6
:100799008115811581A20492AF22744CC0E0742C9A
:1007A900C0E07480C0E0121F3515811581158112D2
:1007B900154A12152BAE82C00612154A12152BAD19
:1007C90082AF83D006BE30004024EE24C6401FBD50
:1007D9003000401AED24C640158E07EF24D0C454CA
:1007E900F0FF8D04EC24D09004444FF0805ABE30C1
:1007F90002800DBE31028008BE34028003BE351B63
:10080900BD41004016ED24B94011EE24D0C454F086
:10081900FEED24C99004444EF0802D748BC0E07421
:100829002CC0E07480C0E0121F3515811581158137
:10083900749DC0E0742CC0E07480C0E0121F3515AF
:1008490081158115810207B8900444E0F58222E5FB
:1008590082900448F0E024D0C40354F8FF430740D1
:100869008F057E00C007C006C005C005C00674BA62
:10087900C0E0742CC0E0121880E58124FCF581D019
:1008890005D006D007900445E0F508A3E0F509A3D3
:10089900E0F50A78007900C3E89408E96480948057
:1008A900400122C292C29388048F0390F000EC2B7E
:1008B900F0E82DFBE93EFCC007C006C005C001C039
:1008C90000C003C00474F2C0E0742CC0E0121880A8
:1008D900E58124FCF5811200E9D000D001D292C251
:1008E90093E82508FAE93509FBAC0A8A828B838CDF
:1008F900F012296190F000F0C001C0001200E9D0A7
:1009090000D001D005D006D00708B80001090208B7
:10091900A07401C0E0742DC0E07480C0E0121F35DE
:1009290015811581158112017BAF82C0077409C039
:10093900E0742DC0E01218801581158112154AAD99
:10094900828D047E00C005C004C006743AC0E074FC
:100959002DC0E0121880E58124FCF581D005D0076F
:100969007E00BE0800504B8E037C00C007C006C045
:1009790005C003C004743FC0E0742DC0E0121880A4
:10098900E58124FCF581D005D006EE2449FBE43449
:1009990004FCC006C005C004C0031207A3AA82D084
:1009A90003D004D005D006D0078B828C83EAF00EE1
:1009B90080B0D20510AF02C2059004457449F074A5
:1009C90004A3F0E4A3F08D82C007C00512085812F1
:1009D9000462D005ED24D0F58212025ED0078F8221
:1009E900120188A20592AF7447C0E0742CC0E0746C
:1009F90080C0E0121F35158115811581227401C04F
:100A0900E0742DC0E07480C0E0121F351581158196
:100A1900158112017BE582900574F0900451E4F090
:100A2900900452F0900453740FF09004547408F039
:100A3900900455F090045604F0900457F09004582F
:100A4900F0D20610AF02C2069004457451F0740446
:100A5900A3F0E4A3F07582311208589004067434A7
:100A6900F07582311201A575820112025EA2069209
:100A7900AF900459E4F090045AF090045B7418F0B4
:100A890090045CE4F090045DF090045E7402F090D0
:100A9900045FF0900460F0D20610AF02C206900421
:100AA900457459F07404A3F0E4A3F0758232120876
:100AB900589004067435F07582311201A5758202C9
:100AC90012025E900574E0F582120188A20692AFC7
:100AD9009004617409F0900462F0900463F090044A
:100AE90064740FF09004657401F0900466F090044A
:100AF90067E4F0900468F0D20610AF02C2069004D1
:100B0900457461F07404A3F0E4A3F075823312080C
:100B1900589004067434F07582321201A575820367
:100B290012025E900574E0F582120188A20692AF66
:100B39009004697402F090046AF090046BF09004D8
:100B49006C741AF090046D7402F090046E741EF0C7
:100B590090046FE4F0900470F0D20610AF02C20660
:100B69009004457469F07404A3F0E4A3F075823429
:100B79001208589004067435F07582321201A57571
:100B8900820412025E900574E0F582120188A206C1
:100B990092AF7447C0E0742CC0E07480C0E0121FAB
:100BA90035158115811581227401C0E0742DC0E0CD
:100BB9007480C0E0121F3515811581158112017BE2
:100BC900E582900574F0900471741FF0900472F03E
:100BD9009004737411F09004747415F09004757492
:100BE90011F0900476741FF0900477F0900478F077
:100BF900D20710AF02C2079004457471F07404A3C0
:100C0900F0E4A3F07582311208589004067434F0A8
:100C19007582311201A575820112025EA20792AF97
:100C2900900479741FF090047AF090047B7411F0A9
:100C390090047C7415F090047D7411F090047E7416
:100C49001FF090047FF0900480F0D20710AF02C229
:100C5900079004457479F07404A3F0E4A3F0758255
:100C6900321208589004067435F07582311201A5C4
:100C790075820212025E900574E0F582120188A263
:100C89000792AF900481741FF0900482F09004835E
:100C9900F09004847410F0900485741BF09004861D
:100CA90004F0900487741FF0900488F0D20710AF05
:100CB90002C2079004457481F07404A3F0E4A3F020
:100CC9007582331208589004067434F07582321212
:100CD90001A575820312025E900574E0F582120186
:100CE90088A20792AF900489741FF090048AF0904B
:100CF900048BF090048C7401F090048D741BF090B7
:100D0900048E7407F090048F741FF0900490F0D251
:100D19000710AF02C2079004457489F07404A3F068
:100D2900E4A3F07582341208589004067435F075FE
:100D390082321201A575820412025E900574E0F5F3
:100D490082120188A20792AF7447C0E0742CC0E0F8
:100D59007480C0E0121F3515811581158122900418
:100D690091741FF0900492F0900493F0900494F021
:100D7900900495F0900496F0900497F0900498F000
:100D8900D20810AF02C2089004457491F07404A30C
:100D9900F0E4A3F07582311208589004067437F014
:100DA9007582331201A575820112025EA20892AF03
:100DB900900499741FF090049AF090049BF09004A9
:100DC9009CF090049DF090049EF090049FF0900494
:100DD900A0F0D20810AF02C2089004457499F074CB
:100DE90004A3F0E4A3F07582321208589004067443
:100DF90038F07582331201A575820212025E9005E0
:100E090074E0F582120188A20892AF9004A17403DC
:100E1900F09004A204F09004A323F09004A423F01A
:100E29009004A5F09004A6F09004A7F09004A8F00F
:100E3900D20810AF02C20890044574A1F07404A34B
:100E4900F0E4A3F07582331208589004067437F061
:100E59007582321201A575820312025E900574E053
:100E6900F582120188A20892AF9004A97418F09033
:100E790004AA7404F09004AB03F09004AC14F0904D
:100E890004ADF09004AEF09004AFF09004B0F0D24D
:100E99000810AF02C20890044574A9F07404A3F0C5
:100EA900E4A3F07582341208589004067438F0757A
:100EB90082321201A575820412025E900574E0F572
:100EC90082120188A20892AF229004B1741FF09097
:100ED90004B2F09004B3F09004B4F09004B5F0902B
:100EE90004B6F09004B7F09004B8F0D20910AF023C
:100EF900C20990044574B1F07404A3F0E4A3F07539
:100F090082311208589004067437F0758233120141
:100F1900A575820112025EA20992AF9004B9741FED
:100F2900F09004BAF09004BBF09004BCF09004BDBA
:100F3900F09004BEF09004BFF09004C0F0D2091004
:100F4900AF02C20990044574B9F07404A3F0E4A394
:100F5900F07582321208589004067438F07582339D
:100F69001201A575820212025E900574E0F58212E3
:100F79000188A20992AF9004C17418F09004C27458
:100F890004F09004C303F09004C414F09004C5F075
:100F99009004C6F09004C7F09004C8F0D20910AFCD
:100FA90002C20990044574C1F07404A3F0E4A3F0EB
:100FB9007582331208589004067436F0758232121D
:100FC90001A575820312025E900574E0F582120193
:100FD90088A20992AF9004C97403F09004CA04F07E
:100FE9009004CB23F09004CC23F09004CDF090042E
:100FF900CEF09004CFF09004D0F0D20910AF02C225
:101009000990044574C9F07404A3F0E4A3F075824F
:10101900341208589004067435F07582321201A50D
:1010290075820412025E900574E0F582120188A2AD
:101039000992AF229004D1E4F09004D2F09004D345
:101049007407F09004D404F09004D523F09004D6EA
:10105900F09004D7F09004D8F0D20A10AF02C20A77
:1010690090044574D1F07404A3F0E4A3F0758231BF
:101079001208589004067437F07582331201A57569
:10108900820112025EA20A92AF9004D9E4F09004A0
:10109900DAF09004DB741CF09004DC7402F0900424
:1010A900DD7409F09004DE741DF09004DF7409F01A
:1010B9009004E07401F0D20A10AF02C20A9004450C
:1010C90074D9F07404A3F0E4A3F0758232120858BD
:1010D9009004067438F07582331201A575820212E4
:1010E900025E900574E0F582120188A20A92AF901F
:1010F90004E1E4F09004E2F09004E3F09004E4F0F9
:101109009004E57403F09004E604F09004E7F0908D
:1011190004E814F0D20A10AF02C20A90044574E13F
:10112900F07404A3F0E4A3F0758233120858900414
:10113900067437F07582321201A575820312025EB8
:10114900900574E0F582120188A20A92AF9004E931
:10115900E4F09004EAF09004EBF09004ECF09004D1
:10116900ED7418F09004EE7404F09004EFF090041C
:10117900F07418F0D20A10AF02C20A90044574E95B
:10118900F07404A3F0E4A3F07582341208589004B3
:10119900067438F07582321201A575820412025E56
:1011A900900574E0F582120188A20A92AF22746553
:1011B900C0E0742DC0E012188015811581D20B1082
:1011C900AF02C20B758200120188902D8775F080DD
:0E11D9001202C1758200120188A20B92AF2291
:1029E90020202020202020001B5B313B33336D0A3F
:1029F9000D4C434420436C656172656421210D0AC5
:102A0900001B5B313B33336D0A0D456E74657220D3
:102A190043686172616374657220746F20707574A4
:102A2900206F6E204C43442021210D0A000A0D45D8
:102A39006E74657265642043686172203D20256368
:102A49000A0D000A0D001B5B313B33336D0A0D453E
:102A59006E74657220537472696E6720746F20708A
:102A69007574206F6E204C43442021210D0A0045C6
:102A79006E746572656420537472696E67203D20B7
:102A890025730A0D001B5B313B33336D0A0D456E0F
:102A990074657220582D436F2D6F7264696E61746D
:102AA9006520746F20707574206F6E204C4344202C
:102AB90021210D0A00582D436F7264696E61746596
:102AC900203D2025630A0D001B5B313B33336D0A22
:102AD9000D456E74657220592D436F2D6F726469AF
:102AE9006E61746520746F20707574206F6E204C50
:102AF90043442021210D0A00592D436F7264696EE8
:102B0900617465203D2025630A0D001B5B313B3351
:102B1900316D496E76616C696420636F6F726469A7
:102B29006E61746521210A0D001B5B313B33336DE6
:102B39000A0D437572736F72204D6F76656D656E00
:102B49007420436F6D706C6574656421210D0A00F2
:102B59001B5B313B33336D0A0D456E746572206121
:102B690064647265737320746F20707574206F6E5E
:102B7900746F20746865204C43442021210D0A009C
:102B89004164647265737320456E7465726564206F
:102B99003D2025730A0D001B5B313B33336D0A0D54
:102BA90054696D65205061757365642021210D0A92
:102BB900001B5B313B33336D0A0D54696D6520523F
:102BC9006573756D65642021210D0A001B5B313B1E
:102BD90033336D0A0D54696D652052657365742030
:102BE90021210D0A001B5B313B33346D000A0D5066
:102BF90072696E74696E672048657864756D7020B6
:102C09006F6620444452414D0A0D000A0D30782563
:102C19003032783A200030782530327820000A0D99
:102C29000A0D5072696E74696E672048657864751B
:102C39006D70206F6620434752414D0A0D001B5BA2
:102C4900306D000A0D456E746572206120686578E3
:102C590061646563696D616C2076616C756520627C
:102C690065747765656E2028303020746F20314691
:102C790029206F722028343020746F203538293A82
:102C890020000A0D496E76616C696420696E707561
:102C9900742E2000506C6561736520656E746572D1
:102CA90020612076616C696420696E7075743A20C0
:102CB900000A0D54686520637573746F6D2063682D
:102CC90061726163746572207769746820636F64E7
:102CD90065203078257820686173206265656E20EB
:102CE900637265617465642E000A0D4C43445F701C
:102CF9007472203D202578001B5B303B33336D0017
:102D0900506C6561736520656E74657220746865C1
:102D190020636F646520666F72207468652063752F
:102D290073746F6D206368617261637465723A20B0
:102D39000025630A0D000A0D506C656173652065F5
:102D49006E746572207468652076616C756520669D
:102D59006F7220726F772025643A20001B5B313B2C
:102D690033336D0A0D417574686F7220496E666F51
:102D7900205072696E7465642021210D0A004B6927
:102D890072616E204A6F6A61726520202020455366
:102D9900442053756D6D65722032303233204C6199
:0F2DA90062203420202020202020202020200005
:012F6100006F
:0400000002003F3289
:03000B0002125D81
:100098009004F5E4F0A3F09004F8E4F0A3F0020073
:0100A8000E49
:03000E0002134E8C
:1011E700438E0C90000022AF83E5829004F1F0EF6C
:1011F700A3F09004F1E0FEA3E0FF7C007D00C3ECC8
:101207009EED9F50147AFB7B041ABAFF011BEA4B31
:1012170070F70CBC00E80D80E522AF83E5829004EF
:10122700F3F0EFA3F09004F3E0FEA3E0FF7C007D72
:1012370000C3EC9EED9F501D9003E8C007C006C099
:1012470005C0041211EED004D005D006D0070CBC9F
:1012570000DF0D80DC22C022C0E0C0F0C082C08366
:10126700C007C006C005C004C003C002C001C0005B
:10127700C0D075D000C2AFC28D12017BE582900449
:10128700F7F09004F5E0FEA3E0FFBE021ABF0017D7
:10129700B2919005757401F0E4A3F09004F5F0A302
:1012A700F0900577E004F09004F5E02401F0A3E066
:1012B7003400F0758AFD758C4B900577E0FFBF3AD7
:1012C7004A9005777430F0900578E004F0E0FFBFAE
:1012D7003A399005787430F0900579E004F0E0FF32
:1012E700BF36289005797430F090057AE004F0E075
:1012F700FFBF3A1790057A7430F090057BE004F051
:10130700E0FFBF360690057B7430F09004F7E0F5F8
:1013170082120188D2AFD0D0D000D001D002D00342
:10132700D004D005D006D007D083D082D0F0D0E04B
:10133700D022325388CF438901758AFD758C4B4380
:10134700A882D2B9D28C2212151312011990040661
:101357007430F07582301201A5902DB875F08012A7
:1013670002C19004067430F07582311201A5902DE8
:10137700BE75F0801202C19004067430F075823099
:101387001201A59000011212213098FD9004FAE590
:1013970099F0C2989004FAE0FFBF41028019BF425A
:1013A700028070BF430302145FBF44030214A4BF4B
:1013B7005A030214FB80D2D20C10AF02C20C1203E4
:1013C700159004067430F07582301201A5902DCF68
:1013D70075F0801202C19004067430F075823112E4
:1013E70001A5902DE075F0801202C19004067430BB
:1013F700F07582301201A512103D900001121221E2
:101407009004F8E02401F0A3E03400F0A20C92AFBE
:101417000213901203159004067430F0758230128F
:1014270001A5902DF175F0801202C1900406743069
:10143700F07582311201A5902E0275F0801202C15B
:101447009004067430F07582301201A5120ED29006
:101457000001121221021390120315900406743032
:10146700F07582301201A5902E1375F0801202C11B
:101477009004067430F07582311201A5902E247500
:10148700F0801202C19004067430F07582301201A8
:10149700A5120D6790000112122102139012031575
:1014A7009004067430F07582301201A5902E3575C0
:1014B700F0801202C19004067430F0758231120177
:1014C700A5902E4675F0801202C19004067430F084
:1014D7007582321201A5902E5775F0801202C190C5
:1014E70004067430F07582301201A59000011212C3
:1014F700210213901203159004067430F0758230A0
:0C1507001201A5900001121221021390A5
:102DB80048656C6C6F0053544D333246343131459D
:102DC8002D446973636F007C2020204E6577205561
:102DD8007365722020207C007C202020456E726F55
:102DE8006C6C65642020207C007C20202020202022
:102DF80055736572202020207C007C20204175744A
:102E0800686F72697A656420207C007C202020200D
:102E1800205573657220202020207C007C20556E70
:102E28002D417574686F72697A65647C007C202016
:102E38004578697374696E67202020207C007C20A7
:102E4800204461746120426173652020207C007CED
:102E5800202020436C6561726564202020207C005E
:072F62000000303030303078
:10151300759850438920758DFD758BFDC29975991A
:1015230000D28ED2ACD2AF22AF83E5829004FBF01F
:10153300EFA3F03099FD9004FBE0FEA3E0FF8E994A
:10154300C2998E828F832220985A12017BE5829062
:1015530004FDF075825912018890057BE0F5821233
:10156300025E90057AE0F58212025E75823A1202FB
:101573005E900579E0F58212025E900578E0F582CF
:1015830012025E75822E12025E900577E0F58212DA
:10159300025E9004FDE0F582120188900575E4F087
:1015A300A3F080A3C298AE997F008E828F8322AF6F
:1015B300F0AE83E582900500F0EEA3F0EFA3F09088
:1015C3000500E0C0E0A3E0C0E0A3E0C0E09004FEBB
:1015D300E0C0E0A3E0C0E07468C0E0742EC0E07433
:1015E30080C0E0121F35E58124F8F581229004FEC6
:1015F3007423F0E4A3F0902E7675F0801215B29068
:1016030004FE7423F0E4A3F0902EAC75F080121561
:10161300B29004FE7423F0E4A3F0902EE275F08000
:101623001215B29004FE7423F0E4A3F0902F187502
:05163300F0800215B279
:102E68001B5B313B25646D25731B5B306D002B2D7F
:102E78002D2D2D2D2D2D2D2D2D2D2D2D2D2D2D2D7A
:102E88002D2D2D2D2D2D2D2D2D2D2D2D2D2D2D2D6A
:102E98002D2D2D2D2D2D2D2D2D2D2D2D2D2D2D2D5A
:102EA8002B0A0D007C2020202020202020202020FC
:102EB80048656C6C6F2053544D333246343131457C
:102EC8002D446973636F7665727920202020202055
:102ED8002020202020207C0A0D007C20202020207B
:102EE80020202020202020202020202020202020DA
:102EF80020202020202020202020202020202020CA
:102F08002020202020202020202020207C0A0D00A6
:102F18002B2D2D2D2D2D2D2D2D2D2D2D2D2D2D2DDB
:102F28002D2D2D2D2D2D2D2D2D2D2D2D2D2D2D2DC9
:102F38002D2D2D2D2D2D2D2D2D2D2D2D2D2D2D2DB9
:082F48002D2D2B0A0D0A0D00CE
:06006E00E478FFF6D8FD66
:10163800AFF0AE83E582900508F0EEA3F0EFA3F0DB
:10164800900508E0FDA3E0FEA3E0FF8D828E838F66
:10165800F0122961FCBC20028003BC09070DBD0003
:10166800EA0E80E790050BEDF0EEA3F0EFA3F08D06
:10167800828E838FF0122961FCBC2D1490051174A1
:1016880001F090050B2DF0E43EA3F0EFA3F08005E8
:10169800900511E4F0900511E0607990050BE0FDEC
:1016A800A3E0FEA3E0FF8D828E838FF0122961FDF7
:1016B800BD20028022BD0902801D90050BE0FDA31C
:1016C800E0FEA3E0FF8D828E838FF0122961FFBFB9
:1016D8002D028003BF2B3D900503E0FDA3E0FEA390
:1016E800E0FF900503E0F5F0A3E045F0601F9005EA
:1016F80008E0FAA3E0FBA3E0FC8D828E838FF0EA7A
:10170800121865A3EB121865A3EC12186590000077
:10171800E4F5F02290050BE0FDA3E0FEA3E0FF90C6
:101728000506E0FBA3E0FC900518740EF07405A311
:10173800F0E4A3F090051BEBF0ECA3F08D828E8310
:101748008FF0121A0EAC82AD83AEF0FF90050EE05A
:10175800F50BA3E0F50CA3E0F50D90050BE0F8A35D
:10176800E0FAA3E0FBC00BC00CC00D88828A838B13
:10177800F01200111581158115817043900503E061
:10178800F50EA3E0F50FA3E0F510900503E0F5F0E2
:10179800A3E045F06022900508E0F8A3E0FAA3E092
:1017A800FB850E82850F838510F0E8121865A3EA81
:1017B800121865A3EB121865900000E4F5F022906A
:1017C8000503E0F9A3E0FAA3E0FB900503E0F5F0D8
:1017D800A3E045F0601789828A838BF0E50B121825
:1017E80065A3E50C121865A3E50D1218659005119F
:1017F800E07021C374FF9C74FF9D74FF9E747F9FEB
:1018080050129005727422F0E4A3F090FFFF75F077
:10181800FF747F22900511E0601EC3E49CE49DE400
:101828009E74809F50129005727422F0E4A3F09089
:101838000000E4F5F0748022900511E0600FC3E425
:101848009CF8E49DF9E49EFAE49FFB80088C008DE7
:0D185800018E028F03888289838AF0EB22C3
:10004C007908E94400601B7A01902F61787475A0DF
:10005C0005E493F2A308B8000205A0D9F4DAF2750E
:02006C00A0FFF3
:1018650020F71130F6138883A88220F509F6A8839E
:101875007583002280FEF280F5F022C0188581185C
:10188500E51824FDF8868318868218E493A324DBE3
:10189500600C2425600512196E80F0021986D2D5D8
:1018A500E493A3C083C082B4731486F018868318AA
:1018B5008682181229616054A312196E80F5B463EB
:1018C5000818E61812196E8043B46417E630E74627
:1018D50018E6F42401F608E6F43400F6742D12191E
:1018E5006E8033B4782D868318868218E412195FCA
:1018F500E58312195EE58312195FE58212195EE52B
:101905008212195F30D505743012196ED082D083DA
:10191500021890B475F6E6FA18E6F9187C107D27DA
:10192500121949FF7CE87D03121949C4F5837C64CB
:101935007D001219494283E975F00A84C445F0F522
:1019450082EF80A97B000BC3E99CF9EA9DFA50F66A
:101955001BE92CF9EA3DFAEB22C4540F700320D59C
:101965001FC2D52490D43440D4C083C082C0F0F5C2
:1019750082E8C0E012152BD0E0F8D0F0D082D083F9
:1019850022D01822AA83AB828BF0900513E0A4F82D
:10199500A9F08AF0E0A429F98BF0A3E0A429F58346
:1019A50088822222E582900516F0E0FFBF300040D4
:1019B5000EEF24C64009EF24D0900517F08034902F
:1019C5000516E0FFBF6100400EEF24854009900534
:1019D5001774A92FF0801C900516E0FFBF41004049
:1019E5000EEF24A5400990051774C92FF0800475E2
:1019F50082FF22900517E0FF900515E0FEC3EF9EDC
:101A050040047582FF228F8222AFF0AE83E582907B
:101A1500051DF0EEA3F0EFA3F090051DE0FDA3E09A
:101A2500FEA3E0FF900527E4F0900528F08D828E57
:101A3500838FF0122961FCBC20028003BC09070DCD
:101A4500BD00EA0E80E7900520EDF0EEA3F0EFA3D0
:101A5500F08D028E038F048D828E838FF0122961A3
:101A6500FFBF2B028009BF2D149005287401F0904B
:101A7500052074012AF0E43BA3F0ECA3F090051BCC
:101A8500E0FEA3E0FF90051BE0F5F0A3E045F06064
:101A950003021B63900520E0FBA3E0FCA3E0FD909F
:101AA500052D7450F0742FA3F07480A3F0900530C9
:101AB5007402F0E4A3F08B828C838DF0121DF2E5A5
:101AC500828583F045F06034900520E0FBA3E0FCBF
:101AD500A3E0FD90052D7453F0742FA3F07480A33B
:101AE500F09005307402F0E4A3F08B828C838DF0C6
:101AF500121DF2E5828583F045F0702590051B7473
:101B050010F0E4A3F0900520E0FBA3E0FCA3E0FDCA
:101B150090052074022BF0E43CA3F0EDA3F0021B2A
:101B2500EF900520E0FBA3E0FCA3E0FD8B828C8316
:101B35008DF0122961FABA301990051B7408F0E48A
:101B4500A3F0900520042BF0E43CA3F0EDA3F002F4
:101B55001BEF90051B740AF0E4A3F0021BEFBE1007
:101B650005BF00028003021BEF900520E0FDA3E006
:101B7500FEA3E0FF90052D7450F0742FA3F0748040
:101B8500A3F09005307402F0E4A3F08D828E838F6C
:101B9500F0121DF2E5828583F045F0603490052052
:101BA500E0FDA3E0FEA3E0FF90052D7453F0742F34
:101BB500A3F07480A3F09005307402F0E4A3F08DD7
:101BC500828E838FF0121DF2E5828583F045F070D9
:101BD50019900520E0FDA3E0FEA3E0FF9005207429
:101BE500022DF0E43EA3F0EFA3F0900520E0FDA365
:101BF500E0FEA3E0FF8D828E838FF0122961FC90B9
:101C0500051BE0FAA3E0FB900515EAF08C82C007FE
:101C1500C006C005C003C0021219A9AC82D002D00B
:101C250003D005D006D007EC30E743900518E0F562
:101C350011A3E0F512A3E0F513900518E0F5F0A364
:101C4500E045F0602290051DE0F8A3E0F9A3E0FC73
:101C55008511828512838513F0E8121865A3E912B0
:101C65001865A3EC121865900000E4F5F0229005C4
:101C750023E4F0A3F0A3F0A3F08A118B128D828EDA
:101C8500838FF0122961FA900515E511F08A82C05B
:101C950007C006C0051219A9AA82D005D006D0072B
:101CA500EA30E703021D77C002900523E0F8A3E0C0
:101CB500F9A3E0FAA3E0FC900529E8F0E9A3F0EA2E
:101CC500A3F0ECA3F090056EE511F0E512A3F0E5A5
:101CD500123395E0A3F0A3F0888289838AF0ECC0E3
:101CE50007C006C00512297DA982AA83ABF0FCD0E6
:101CF50005D006D007900523E9F0EAA3F0EBA3F0A1
:101D0500ECA3F0900523E0F514A3E0F515A3E0F5A9
:101D150016A3E0F517900529E0F8A3E0FAA3E0FB88
:101D2500A3E0FCC3E51498E5159AE5169BE5179C19
:101D3500D00250069005277401F0900523E0F514B4
:101D4500A3E0F515A3E0F516A3E0F5178A017A00DF
:101D55007B007C00900523E92514F0EA3515A3F0F6
:101D6500EB3516A3F0EC3517A3F00DBD00010E02FF
:101D75001C82900518E0FAA3E0FBA3E0FC9005188F
:101D8500E0F5F0A3E045F060148A828B838CF0EDDA
:101D9500121865A3EE121865A3EF121865900527B2
:101DA500E060119005727422F0E4A3F090FFFF74D7
:101DB500FFF5F022900528E0601D900523E0FCA3C7
:101DC500E0FDA3E0FEA3E0FFC3E49CFCE49DFDE48D
:101DD5009EFEE49FFF800E900523E0FCA3E0FDA39B
:0D1DE500E0FEA3E0FF8C828D838EF0EF22E4
:062F50003078003058004B
:100074007800E84400600A790075A004E4F309D824
:10008400FC7874E84401600C7902900400E4F0A365
:04009400D8FCD9FAC1
:101DF200AFF0AE83E582900532F0EEA3F0EFA3F0F0
:101E0200900530E0FEA3E0FF900530E0F5F0A3E09E
:101E120045F0700490000022900532E0FBA3E0FC44
:101E2200A3E0FD90052DE0F8A3E0F9A3E0FA1EBEC1
:101E3200FF011FEE4F60418B828C838DF01229616E
:101E4200F5196034C006C007888289838AF0122996
:101E520061FFB519028006D007D006801BD007D0DB
:101E6200060BBB00010C900532EBF0ECA3F0EDA3E6
:101E7200F008B800B90980B6900532EBF0ECA3F097
:101E8200EDA3F08B828C838DF0122961FB7F008899
:101E92008289838AF0122961F87E00EBC398FBEFF6
:101EA2009E8B82F58322AF83E582900535F0EFA306
:101EB200F0900535E0FEA3E0BE6100920D4019EE00
:101EC2002485920D4012900535E0FEA3E0FF74E0F8
:101ED2002EFE74FF3FFF8008900535E0FEA3E0FF71
:101EE2008E828F8322C0188581187E008E83121500
:101EF2002BD01822AFF0AE83E582900538F0EEA326
:101F0200F0EFA3F0900538E0FDA3E0FEA3E0FF9020
:101F12000537E0FC90054CE4F0A3F0A3F090054FE8
:101F2200EDF0EEA3F0EFA3F0900552ECF0901EE777
:101F320002203BC018E581F51824FBFF90054CE414
:101F4200F0A3F0A3F0E51824FBF890054FE6F008A3
:101F5200E6A3F008E6A3F0900552EFF0901EE71218
:101F6200203BD01822E582900548F0E0FF90053E24
:101F7200E0C0E0A3E0C0E0A3E0C0E0121F82800D59
:101F820090053CE0C0E0A3E0C0E08F8222158115FD
:101F9200811581900546E02401F0A3E03400F0228F
:101FA200E582900549F0E02430FF24C6500D740705
:101FB2002FFF90053BE060034307208F82021F67DB
:101FC200E58290054AF0E0FFC4540FF582C0071283
:101FD2001FA2D00753070F8F82021FA2E58290052E
:101FE2004BF0900541E0FCA3E0FDA3E0FEA3E0FF7F
:101FF200900545E0FB90054BE0FA79208B00E8283C
:10200200F519EF2354014519FBEC2CFCED33FDEEE1
:1020120033FEEF33FFC3EB9A4007EBC39AFB430453
:102022000119E970D7900541ECF0EDA3F0EEA3F0B1
:10203200EFA3F0900545EBF022AF83E582900553C4
:10204200F0EFA3F0900553E0FEA3E0FF90053CEE15
:10205200F0EFA3F090054CE0FDA3E0FEA3E0FF90BB
:10206200053EEDF0EEA3F0EFA3F0900546E4F0A3F9
:10207200F090054FE0FDA3E0FEA3E0FF8D828E838A
:102082008FF0122961FC90054F74012DF0E43EA3FC
:10209200F0EFA3F0EC700302293DBC25028003029D
:1020A2002935900555E4F0900556F0900557F090CB
:1020B2000558F0900559F090055AF090055BF090A4
:1020C200055CF090055EF090055FF0A3F09005616D
:1020D20014F0A3F090054FE0FDA3E0FEA3E0FF8D16
:1020E200828E838FF0122961FBA3AD82AE839005AD
:1020F2004FEDF0EEA3F0EFA3F0900565EBF0BB25FA
:10210200088B82121F67022073BB3000500302212A
:10211200D4EB24C650030221D4900561E0F523A339
:10212200E0F52474FFB52363B52460C005C006C082
:102132000790055FE0FAA3E0FF900513EAF0EFA332
:10214200F090000AC005C003121989AE82AF83D095
:1021520003D0058B027D00EA2EFEED3FFFEE24D078
:10216200FEEF34FFFF90055FEEF0EFA3F0D007D053
:1021720006D00590055FE0F5F0A3E045F0600302AC
:1021820020E19005567401F00220E1C005C006C0AE
:1021920007900513E523F0E524A3F090000AC0069A
:1021A200C005C003121989AA82AF83D003D005D01B
:1021B200067E00EB2AFAEE3FFFEA24D0FAEF34FF64
:1021C200FF900561EAF0EFA3F0D007D006D0050238
:1021D20020E1900565E0FBBB2E2FC005C006C007BD
:1021E200900561E0FAA3E0FFBAFF05BFFF02800994
:1021F200D007D006D0050220E1D007D006D0059046
:102202000561E4F0A3F00220E1BB61004014EB247D
:1022120085400F90056574DF5BF090053B7401F01B
:10222200800590053BE4F0900565E0FBBB20028051
:1022320075BB2B028067BB2D028059BB4202806FA7
:10224200BB4302807CBB44030224CBBB4603022473
:10225200F1BB48030220E1BB49030224CBBB4A0382
:102262000220E1BB4C028050BB4F030224D9BB5079
:1022720003022439BB53028077BB54030220E1BB23
:1022820055030224E1BB58030224E9BB5A0302208E
:10229200E10224F99005557401F00220E1900557FE
:1022A2007401F00220E19005587401F00220E190DF
:1022B200055A7401F00220E190055B7401F00220DE
:1022C200E190055AE0600E900552E014F9F0900595
:1022D20065E7F0800F900552E024FEFFF08F019039
:1022E2000565E7F0900565E0F582121F6702250893
:1022F200900552E024FDFFF08F018705098706094A
:1023020087071919900541EDF0EEA3F0EFA3F08DC8
:10231200828E838FF012294985822385832490053A
:1023220061E0FAA3E0FDBAFF0DBDFF0A900561E589
:1023320023F0E524A3F0900555E0704B90055FE093
:10234200FAA3E0FDC3E5239AE5249D503A90055F88
:10235200EAC39523F0ED9524A3F090055FE0FAA37C
:10236200E0FD8A068D071ABAFF011DEE4F60107557
:102372008220C005C002121F67D002D00580E39000
:10238200055FEAF0EDA3F0900561E0F526A3E0F524
:1023920027900541E0FAA3E0FDA3E0FF8A828D8346
:1023A2008FF0122961F525603CC3E495267480857F
:1023B20027F063F08095F0502C152674FFB52602A5
:1023C2001527852582121F67900541E0FAA3E0FDDB
:1023D200A3E0FF0ABA00010D900541EAF0EDA3F077
:1023E200EFA3F080AC900555E0700302250890053C
:1023F2005FE0FEA3E0FFC3E5239EE5249F400302C6
:10240200250890055FEEC39523F0EF9524A3F09085
:10241200055FE0FEA3E0FF8E028F051EBEFF011FD7
:10242200EA4D7003022500758220C007C006121F04
:1024320067D006D00780E0900552E024FDFDF08DC4
:1024420001872809872909872A1919900541E52852
:10245200F0E529A3F0E52AA3F0900543E0FDBD8055
:102462000040089005657443F08020BD600040087C
:102472009005657450F08013BD40004008900565DA
:102482007449F080069005657458F0900565E0FD8A
:10249200F582C005121F6775823A121F6775823076
:1024A200121F67758278121F67D005BD4902800E20
:1024B200BD50028009900542E0F582121FC29005CC
:1024C20041E0F582121FC2803D9005597401F090DF
:1024D200055E740AF0802F90055E7408F0802790E4
:1024E200055E740AF0801F90055E7410F0801790EC
:1024F200055C7401F0800F8B82121F6780089005C3
:102502005FEEF0EFA3F090055CE06071900552E0A1
:1025120024FCFFF08F0187030987050987060987D5
:1025220007191919900541EBF0EDA3F0EEA3F0EFB6
:10253200A3F09005417456F0742FA3F07480A3F0B9
:10254200900541E0F528A3E0F529A3E0F52A7401FE
:102552002528FAE43529FBAF2A900541EAF0EBA3DE
:10256200F0EFA3F0852882852983852AF01229615C
:10257200FF70030220738F82121F6780C390055E73
:10258200E0700302207390055AE06047900552E024
:1025920014F9F087077E007D007B00900541EFF083
:1025A200EEA3F0EDA3F0EBA3F0900559E060030277
:1025B200264B900541E0FBA3E0A3E0A3E07D007E73
:1025C200007F00900541EBF0EDA3F0EEA3F0EFA346
:1025D200F0807690055BE06028900552E024FCFFD5
:1025E200F08F0187030987050987060987071919EB
:1025F20019900541EBF0EDA3F0EEA3F0EFA3F0800C
:1026020048900552E024FEFFF08F018706098707F4
:1026120019EF3395E0FDFB900541EEF0EFA3F0EDED
:10262200A3F0EBA3F0900559E0701E900541E0FB8A
:10263200A3E0FDA3E0A3E07E007F00900541EBF064
:10264200EDA3F0EEA3F0EFA3F0900559E060419006
:102652000541E0FBA3E0FDA3E0FEA3E0FF30E72B92
:10266200900541E0FBA3E0FDA3E0FEA3E0FFC3E48D
:102672009BFBE49DFDE49EFEE49FFF900541EBF091
:10268200EDA3F0EEA3F0EFA3F08005900559E4F07E
:1026920090055D7401F090055EE0F526752B6B7573
:1026A2002C05E4F523F524900545E4F085268212F5
:1026B2001FDE90055DE07033900545E0C454F0F5EF
:1026C20028900545E0C4540F4528F528852B8285BE
:1026D2002C83E0FFE5284207852B82852C83EFF0CF
:1026E200152B74FFB52B02152C800C900545E0FFCD
:1026F200852B82852C83F00523E4B52302052490E3
:10270200055DE0B40100E433F0900541E0FAA3E096
:10271200FBA3E0FEA3E0FFEA4B4E4F708A90056CEC
:10272200E52BF0E52CA3F0900563E523F0E524A367
:10273200F090055FE0F5F0A3E045F0700990055FC9
:102742007401F0E4A3F0900556E0FFE070479005B5
:1027520055E0704185232B85242C90055FE0FAA378
:10276200E0FBC007AF2B0F8F067F00C3EE9AEF9BF3
:10277200D0075019758220C007C003C002121F671C
:10278200D002D003D0071ABAFF011B80D590055F93
:10279200EAF0EBA3F0900559E0602075822DC007A6
:1027A200121F67D00790055FE024FFFDA3E034FF0E
:1027B200FE90055FEDF0EEA3F08056900563E0F524
:1027C200F0A3E045F0604A900557E0602075822B47
:1027D200C007121F67D00790055FE024FFFDA3E04A
:1027E20034FFFE90055FEDF0EEA3F08024900558D3
:1027F200E0601E758220C007121F67D00790055F38
:10280200E024FFFDA3E034FFFE90055FEDF0EEA3B0
:10281200F0900555E07048900563E0F52BA3E0F5D4
:102822002C90055FE0FAA3E0FBC0078A068B071A2B
:10283200BAFF011BC3E52B9EE52C9FD0075053EF37
:1028420060067D307E0080047D207E008D82C00780
:10285200C003C002121F67D002D003D00780CA9003
:10286200055FE0FEA3E0FF900563E0F52BA3E0F532
:102872002CC3E52B9EE52C9F500F90055FEEC39570
:102882002BF0EF952CA3F0801190055FE4F0A3F0FC
:10289200800890055FEAF0EBA3F090056CE0FEA3E0
:1028A200E0FF900563E0F52BA3E0F52CAA2BAD2CFD
:1028B200152B74FFB52B02152CEA4D604590055D72
:1028C200E0B40100E433F090055DE070140EBE0048
:1028D200010F8E828F83E0C4540FFD900545F08076
:1028E2000E8E828F83E0FD53050F900545EDF0902B
:1028F2000545E0F582C007C006121FA2D006D00728
:1029020080AA900555E0700302207390055FE0FEF7
:10291200A3E0FF8E038F051EBEFF011FEB4D700368
:10292200022073758220C007C006121F67D006D02E
:102932000780E08C82121F67022073900546E0FE3A
:07294200A3E08E82F5832261
:0B2F56003C4E4F20464C4F41543E00C3
:10294900AA82AB831229616003A380F8C3E5829A46
:08295900F582E5839BF5832262
:10001100E58124FCC3C8C0E0C082E608467006E55D
:10002100824583601218E58296F58208E58396423F
:100031008208E5F0964582D082C8D0E0C822758159
:0B0041002C1211E7E582600302000EA4
:1029610020F71430F6148883A88220F507E6A8839F
:1029710075830022E280F7E49322E022A882A983F2
:10298100AAF0FB88F090056EE0A4FCADF089F0E0C0
:10299100A42DFDE435F0FE88F0A3E0A42DFDE5F0C3
:1029A1003EFEE433FF89F0E0A42EFEE5F03FFF8810
:1029B100F0A3E0A42EFEE5F03FFF8AF090056EE063
:1029C100A42EFEE5F03FFF8BF0E0A42FFF8AF0A3D9
:1029D100E0A42FFF89F0A3E0A42FFF88F0A3E0A4D7
:0829E1002F8EF08D838C822201
:00000001FF
