:024493007017A0
:202062007495C0E07444C0E012361B1581158174D0C0E07444C0E012361B158115817495FA
:20208200C0E07444C0E012361B15811581901B707430F0901B71F0901B72F0901B73F09051
:2020A2001B74E4F07404C0E07445C0E012361B158115817441C0E07445C0E012361B158114
:2020C2001581747CC0E07445C0E012361B15811581901B701232DA901B70E0FFBF3000408E
:2020E20032EF24C6402D901B71E0FFBF30004023EF24C6401E901B72E0FFBF30004014EFB4
:2021020024C6400F901B73E0FFBF30004005EF24C6502D74B7C0E07445C0E07480C0E01233
:202122003A4B15811581158174FAC0E07445C0E07480C0E0123A4B1581158115810220A63A
:20214200901B7075F0001234DCAE82AF83C3EE9440EF64809480400E74E09E74958FF063E2
:20216200F08095F050127432C0E07446C0E012361B158115810220A6901C847420F0E4A3D4
:20218200F08E828F83C007C0061238E9E5828583F0D006D00745F060127473C0E07446C0B7
:1021A200E012361B158115810220A68E828F8322B2
:204495001B5B313B33336D7C2A2A2A2A2A2A2A2A2A2A2A2A2A2A2A2A2A2A2A2A2A2A2A2AE6
:2044B5002A2A2A2A2A2A2A2A2A2A2A2A2A2A2A2A2A2A2A2A2A2A2A7C0A0D007C202042751B
:2044D50066666572203020616E6420427566666572203120416C6C6F636174696F6E205020
:2044F500726F63657373696E6720207C0A0D001B5B313B33366D0A0D7C2A2A2A2A2A2A2A96
:204515002A2A2A2A2A2A2A2A2A2A2A2A2A2A2A2A2A2A2A2A2A2A2A2A2A2A2A2A2A2A2A2A46
:204535002A2A2A2A2A2A2A2A7C0A0D001B5B313B33366D7C20202020202020456E74657271
:20455500207468652073697A6520666F7220627566666572302026206275666665723120A8
:204575002020207C0A0D001B5B313B33366D7C2A2A2A2A2A2A2A2A2A2A2A2A2A2A2A2A2A35
:204595002A2A2A2A2A2A2A2A2A2A2A2A2A2A2A2A2A2A2A2A2A2A2A2A2A2A2A2A2A2A7C0A94
:2045B5000D001B5B303B33316D0A496E76616C696420696E7075742E20506C65617365203E
:2045D500656E74657220666F757220646967697473206265747765656E203020616E64205B
:2045F500392E0A0D001B5B303B33316D56616C696420496E707574204578616D706C6573F7
:20461500203A20303036342C393837362C303030312C303039362C206574630A001B5B3017
:204635003B33316D0A496E76616C696420696E7075742E496E707574206461746120736845
:204655006F756C64206265206265747765656E20363420616E6420353630302E0A001B5B2A
:20467500303B33316D0A496E76616C696420696E7075742E496E707574206E6F742064692C
:1046950076697369626C652062792033322E0A006F
:2021B200901D96E0FEA3E0FD7F007B007C00901DA4E0F9A3E0FAC3EB99EC64808AF063F06B
:2021D2008095F0501AEB2EF8EC3DF98F02888289838AF074301236000BBB00D20C80CF2229
:2021F200AF83E582901B77F0EFA3F0901B797401F0901B8EE0FEA3E0FD7F00C007C006C0B4
:202212000574A5C0E07446C0E07480C0E0123A4B158115811581D005D006D007901B77E023
:20223200FBA3E0FCE4BB1004BC000104F50AE4BB2004BC000104F9E4F508F509C001901DD5
:2022520092E0F8A3E0F9C3E50898E509648089F063F08095F0D001400122901B79E07003F0
:202272000222F8C001E5082EF8E5093DF98F02C007C006C005C004C003C001C000C001C0CC
:202292000274AFC0E07446C0E07480C0E0123A4BE58124FAF581D001D003D004D005D006C5
:2022B200D007E5082EF8E5093DF98F02C007C006C005C004C003C001C000C001C00274B468
:2022D200C0E07446C0E07480C0E0123A4BE58124FAF581D001D003D004D005D006D0079043
:2022F2001B79E4F0D001C001E5082EF8E5093DF98F02888289838AF0124477F50B7430B554
:202312000B028004D001802CD001C007C006C005C004C003C00174C0C0E07446C0E01236BC
:202332001B15811581D001D003D004D005D006D0070223C5E50A6031A80B7A00C007C00626
:20235200C005C004C003C001C000C00274CBC0E07446C0E012361BE58124FCF581D001D0A3
:2023720003D004D005D006D007E96047C001E5082EF8E5093DF98F02888289838AF01244F3
:2023920077F87A00C007C006C005C004C003C001C000C00274D6C0E07446C0E012361BE59A
:2023B2008124FCF581D001D003D004D005D006D007D00174012508F8E43509FA901C84EB58
:2023D200F0ECA3F088828A83C007C006C005C004C003C0011238E9E5828583F0D001D00395
:2023F200D004D005D006D00745F0702DC007C006C005C004C003C00174A5C0E07446C0E0F6
:2024120012361B15811581D001D003D004D005D006D007901B797401F00508E4B5080205E3
:202432000902224EAF83E582901B8CF0EFA3F0901B8AE0FEA3E0FF901D92EEF0EFA3F09009
:202452001B8CE0F5F0A3E045F07003022E89901B7AE0FFBF2B02801BBF2D030226EFBF3D8D
:2024720003022B98BF3F03022BB0BF4003022A61022E8974E1C0E07446C0E012361B158114
:202492001581741CC0E07447C0E012361B1581158174E1C0E07446C0E012361B158115819C
:2024B200901B7BE0FDA3E0FEA3E0FF8D828E838FF0124477FBA3124477FC0BBB00010C8DD1
:2024D200828E838FF0EB123600A3EC123600C007C006C0057457C0E07447C0E012361B153E
:2024F2008115817492C0E07447C0E012361B158115817457C0E07447C0E012361B1581154F
:2025120081901CC41232DA901CC475F0001234DCAB82AC83D005D006D007C3EB941EEC6415
:20253200809480400E742C9B74818CF063F08095F0501274CDC0E07447C0E012361B15810C
:202552001581022E898B828C83C007C006C005C004C003123760A982AA83D003D004D005A8
:20257200D006D007890C8A0DE50C450D70127419C0E07448C0E012361B15811581022E89DA
:202592008D828E838FF0124477F8A3124477FA18B8FF011AE828F8EA33FAE824A4F582EA41
:2025B200341DF583EBF0ECA3F0901B81E0FAA3E0FBA3E0FC8A828B838CF0124477F8A312D3
:2025D2004477F908B80001098A828B838CF0E8123600A3E91236008D828E838FF012447765
:2025F200F8A3124477F918B8FF0119E828F8E933F9E8248EF582E9341BF583E50CF0E50DCE
:20261200A3F08D828E838FF0124477F8A3124477F9E828F8E933F9E824CAF582E9341CF5B0
:20263200837401F0E4A3F08D828E838FF0124477F8A3124477F918B8FF0119C007C006C026
:2026520005C004C003C002C000C001744EC0E07448C0E012361BE58124FCF581D002D003D7
:20267200D004D005D006D0078D828E838FF0124477FDA3124477FEC004C003C002C005C04D
:20269200067485C0E07448C0E012361BE58124FCF581D002D003D004901B7EE0FDA3E0FECE
:2026B200A3E0FF8D828E838FF0124477FDA3124477FE8A828B838CF0124477FAA3124477E2
:2026D200FBC005C006C002C00374C8C0E07448C0E012361BE58124FAF581022E8974E1C07A
:2026F200E07446C0E012361B15811581740CC0E07449C0E012361B1581158174E1C0E0748A
:2027120046C0E012361B15811581901CC8E4F0A3F07457C0E07447C0E012361B1581158102
:202732007447C0E07449C0E012361B15811581901B7BE0FDA3E0FEA3E0FF8D828E838FF09B
:20275200124477FBA3124477FCC007C006C005C003C0047482C0E07449C0E012361BE5819E
:2027720024FCF58174BEC0E07449C0E012361B158115817457C0E07447C0E012361B158134
:202792001581D005D006D007C007C006C0051232ADAB828B027C008A828C83C004C003C034
:2027B200021232BBD002D003D004D005D006D007BB30004005EB24C6501DC007C006C00547
:2027D20074F9C0E07449C0E012361B15811581D005D006D0078050EA24D0FAEC34FFFC9019
:2027F2001CC8E0F9A3E0FB901C82E9F0EBA3F090000AC007C006C005C004C0021238C9E59D
:20281200828583F0D002D004901CC82AF0EC35F0A3F01232ADAB82AC83D005D006D007BBCA
:202832000D02800302279A901CC8E0FBA3E0FC4B7012742CC0E0744AC0E012361B158115EA
:2028520081022E89EB2BF9EC33FAE924CAF582EA341CF583E0F9A3E0497018C003C00474DC
:202872005FC0E0744AC0E012361BE58124FCF581022E898D828E838FF0124477F9A3124473
:2028920077FAC3EB99EC64808AF063F08095F04012749FC0E0744AC0E012361B15811581DA
:2028B200022E89C005C006C007C007C006C005C003C00474D4C0E0744AC0E012361BE58113
:2028D20024FCF5817400C0E0744BC0E07480C0E0123A4B158115811581901CC8E0FBA3E01E
:2028F200FCEB2BFBEC33FCEB248EF582EC341BF583E0FBA3E0FC7A008B828C838AF0123328
:2029120085D005D006D007901CC8E0FBA3E0FCEB2BFBEC33FCEB24CAF582EC341CF583E4BC
:20293200F0A3F0901B7EE0FAA3E0FBA3E0FC8A828B838CF0124477F8A3124477F908B8007E
:2029520001098A828B838CF0E8123600A3E9123600901CC8E0F8A3E0F9E828FEE933FFEEE2
:20297200248EF582EF341BF583E0FEA3E04ED007D006D0057031C007C006C005C004C003BB
:20299200C002C000C0017426C0E0744BC0E07480C0E0123A4BE58124FBF581D002D003D0AE
:2029B20004D005D006D007C007C006C005C004C003C002901CC8E0C0E0A3E0C0E07444C055
:2029D200E0744BC0E012361BE58124FCF581D002D003D004D005D006D0078D828E838FF0AD
:2029F200124477FDA3124477FEC004C003C002C005C0067473C0E0744BC0E012361BE5810A
:202A120024FCF581D002D003D0048A828B838CF0124477FAA3124477FB901B81E0FDA3E041
:202A3200FEA3E0FF8D828E838FF0124477FDA3124477FEC002C003C005C00674C8C0E074CD
:202A520048C0E012361BE58124FAF581022E8974E1C0E07446C0E012361B1581158174AF65
:202A7200C0E0744BC0E012361B1581158174E1C0E07446C0E012361B15811581901B7BE0D2
:202A9200F50EA3E0F50FA3E0F5107B007C00850E82850F838510F0124477F9A3124477FA3A
:202AB200C3EB99EC64808AF063F08095F04003022B51EB2BF9EC33FAE9248EF9EA341BFA6B
:202AD20089828A83E0F8A3E0FF88118F12751300E84F6046AD11AE12AF138D828E838FF0F4
:202AF200C004C003C002C001123385D001D002D003D00489828A83E4F0A3F0C004C003C0E0
:202B120003C00474EAC0E0744BC0E012361BE58124FCF581D003D004801DC004C003C00392
:202B3200C0047403C0E0744CC0E012361BE58124FCF581D003D0040BBB00010C022AA0851E
:202B52000E82850F838510F0E4123600A3123600901B81E0FDA3E0FEA3E0FF8D828E838F65
:202B7200F0E4123600A3123600901B7EE0FDA3E0FEA3E0FF8D828E838FF0E4123600A312B3
:202B92003600900001227427C0E0744CC0E012361B158115819000101221F2022E8974E13D
:202BB200C0E07446C0E012361B158115817464C0E0744CC0E012361B1581158174E1C0E01E
:202BD2007446C0E012361B15811581749FC0E0744CC0E012361B1581158174DDC0E0744CA7
:202BF200C0E012361B158115817419C0E0744DC0E012361B15811581901B84E0F516A3E0DA
:202C1200F517A3E0F518901B87E0FAA3E0FBA3E0FC901B7BE0F511A3E0F512A3E0F5137864
:202C3200007900C002C003C0048511828512838513F0124477FBA3124477FCC3E89BE9643F
:202C5200808CF063F08095F0D004D003D0024003022E4FE828F50EE933F50FE50E248EF506
:202C72000CE50F341BF50D850C82850D83E0F514A3E0F515E51445156006E51445157026B1
:202C9200C004C003C002C001C0007455C0E0744DC0E012361B15811581D000D001D002D0BC
:202CB20003D004022E47C002C003C004C004C003C002C001C000C000C001747EC0E0744DCD
:202CD200C0E07480C0E0123A4BE58124FBF581D000D001D002D003D004850C82850D83E0FA
:202CF200FBA3E0FC7A00C004C003C002C001C000C003C004C002C000C0017499C0E0744DCC
:202D1200C0E07480C0E0123A4BE58124F8F581D000D001D002D003D004850C82850D83E0BC
:202D3200F514A3E0F515E50E24A4FAE50F341DFC8A828C83E0FBA3E0FFEB2514FBEF351525
:202D5200FF7E00C004C003C002C001C000C003C007C006C000C00174C7C0E0744DC0E07499
:202D720080C0E0123A4BE58124F8F581D000D001D002D003D0048A828C83E0FAA3E0FCC044
:202D920004C003C002C001C000C002C004C000C00174F5C0E0744DC0E07480C0E0123A4B7B
:202DB200E58124F9F581D000D001D002D003D004D004D003D002E849707B8516828517831D
:202DD2008518F0124477FEA3124477FFC004C003C002C001C000C006C007C000C0017423AB
:202DF200C0E0744EC0E012361BE58124FAF581D000D001D002D003D0048A828B838CF012A0
:202E12004477FEA3124477FFC004C003C002C001C000C006C007C000C0017423C0E0744EA7
:202E3200C0E012361BE58124FAF581D000D001D002D003D00408B8000109022C358516821F
:202E52008517838518F0E4123600A31236008A828B838CF0123600A31236009000201221F1
:1B2E7200F21221B2746AC0E0744EC0E012361B15811581900002229000002299
:2046A5001B5B313B33346D0A0D002570203A001B5B313B33346D2570203A001B5B313B337F
:2046C500346D205858001B5B313B33346D202578001B5B313B33346D202564001B5B313BB0
:2046E50033336D7C2A2A2A2A2A2A2A2A2A2A2A2A2A2A2A2A2A2A2A2A2A2A2A2A2A2A2A2ACE
:204705002A2A2A2A2A2A2A2A2A2A2A2A2A2A2A2A2A2A2A7C0A0D001B5B313B33336D7C2A88
:204725002A2A2A2A2A2A2A2A2A2A2A2050726F63657373696E67205B2B5D202A2A2A2A2A74
:204745002A2A2A2A2A2A2A2A2A2A2A2A2A2A7C0A0D001B5B313B33366D7C2A2A2A2A2A2A45
:204765002A2A2A2A2A2A2A2A2A2A2A2A2A2A2A2A2A2A2A2A2A2A2A2A2A2A2A2A2A2A2A2AF4
:204785002A2A2A2A2A2A2A2A2A7C0A0D001B5B313B33366D7C2A2A2A2A2A2A2A2A2A2045F4
:2047A5006E7465722073697A6520666F72206E6577206275666572202A2A2A2A2A2A2A2AEB
:2047C5002A2A2A2A7C0A0D001B5B313B33316D496E76616C696420496E707574203A205421
:2047E5006865206275666665722073697A652073686F756C6420626520696E207468652064
:2048050072616E6765205B33302C203330305D0A0D0A0D001B5B313B33316D496E76616C91
:20482500696420696E707574203A204661696C656420746F20616C6C6F6361746520627538
:20484500666665720A0D0A0D001B5B313B306D4E65772062756666657220616C6C6F6361B3
:20486500746564207375636365737366756C6C79203A204275666665725B25645D0A0D0085
:204885001B5B313B306D546F74616C204E756D626572206F66204275666665727320696E2E
:2048A500636C7564696E67206275666665723020262062756666657231203D205B25645D74
:2048C5000A0D001B5B313B306D546F74616C2046696C6C65642042756666657273203D205F
:2048E5005B25645D200D0A546F74616C20456D7074792042756666657273203D205B2564BA
:204905005D200A0D0A0D001B5B313B33336D7C2A2A2A2A2A2A2A2A2A2A2A2A2050726F630A
:20492500657373696E67205B2D5D202A2A2A2A2A2A2A2A2A2A2A2A2A2A2A2A2A2A2A7C0A20
:204945000D001B5B313B33366D7C2A2A2A2A2A2A2A2A2A20456E74657220627566666572DF
:2049650020746F2062652064656C65746564202A2A2A2A2A2A2A2A2A2A7C0A0D001B5B3153
:204985003B33366D7C2A2A2A2A2A2A2A2A2A2043757272656E74204E6F206F6620627566D9
:2049A500666572733A5B25645D202A2A2A2A2A2A2A2A2A2A2A7C0A0D001B5B313B33366D8E
:2049C5007C2A2A2A2A2A2A2A2A2A204E6F7465203A20496E6465782053746172747320777C
:2049E5006974682030202A2A2A2A2A2A2A2A2A2A7C0A0D001B5B313B33316D496E76616C19
:204A0500696420696E707574203A20696E76616C69642064696769747320656E74657265CC
:204A250064200A0D0A0D001B5B313B33316D496E76616C696420696E707574203A206275A4
:204A450066666572206E756D6265722063616E277420626520300A0D0A001B5B313B33317A
:204A65006D496E76616C696420696E707574203A206275666665725B25645D2077617320ED
:204A8500616C726561647920636C6561726564206561726C6965720A0D001B5B313B3331DE
:204AA5006D496E76616C696420696E707574203A20627566666572206E756D62657220644C
:204AC5006F65736E27742065786973740A0D001B5B313B306D427566666572205B25645DE3
:204AE5002072657175657374656420746F2062652064656C657465640A0D00506572666FCB
:204B0500726D696E67206275666665722066726565696E67206F7065726174696F6E0D0AD1
:204B2500002A2A2A427566666572205B25645D2069732066726565642A2A2A2A0A0D001B3B
:204B45005B313B306D4275666665725B25645D2064652D616C6C6F63617465642073756327
:204B65006365737366756C6C7920200A0D001B5B313B306D546F74616C204E756D626572F3
:204B8500206F662042756666657273206166746572206465616C6C6F636174696F6E203D90
:204BA500205B25645D0A0D0A0D001B5B313B33336D7C2A2A2A2A2A2A2A2A2A2A2A2A2050C8
:204BC500726F63657373696E67205B405D202A2A2A2A2A2A2A2A2A2A2A2A2A2A2A2A2A2AD7
:204BE5002A7C0A0D001B5B313B306D4275666665725B25645D2066726565640A0D001B5B26
:204C0500313B306D4275666665725B25645D2077617320616C7265616479204E554C4C0A19
:204C25000D001B5B313B33336D0D0A7C2A2A2A2A2A2A2A2A2A2A2A2A2050726F6365737323
:204C4500696E67205B3D5D202A2A2A2A2A2A2A2A2A2A2A2A2A2A2A2A2A2A2A7C0A0D001B10
:204C65005B313B33336D7C2A2A2A2A2A2A2A2A2A2A2A2A2050726F63657373696E67205B69
:204C85003F5D202A2A2A2A2A2A2A2A2A2A2A2A2A2A2A2A2A2A2A7C0A0D00201B5B313B336D
:204CA500346D0D0A7C2A2A2A2A2A2A2A2A2A2A2A2A2A2A2A2A2A2A2A2A2A2A2A2A2A2A2A4D
:204CC5002A2A2A2A2A2A2A2A2A2A2A2A2A2A2A2A2A2A2A2A7C0A0D00201B5B313B33346D1E
:204CE5007C2A2A2A2A2A2A2A2A2A2A2A2A2A2A2A2048454150205245504F5254202A2A2AE5
:204D05002A2A2A2A2A2A2A2A2A2A2A2A2A2A2A2A7C0A0D00201B5B313B33346D7C2A2A2A8B
:204D25002A2A2A2A2A2A2A2A2A2A2A2A2A2A2A2A2A2A2A2A2A2A2A2A2A2A2A2A2A2A2A2A2E
:204D45002A2A2A2A2A2A2A2A2A2A2A2A7C0A0D001B5B313B33316D0A0D427566666572207F
:204D65005B25645D20616C726561647920636C656172656421210A0D001B5B313B33366DEA
:204D85000A0D2A2A427566666572205B25645D2A2A0A0D001B5B313B306D0A0D4275666664
:204DA5006572205B25645D203A2053746172742041646472657373203D205B25705D200A54
:204DC5000D001B5B313B306D0A0D427566666572205B25645D203A20456E64204164647244
:204DE5006573732020203D205B25705D200A0D001B5B313B306D0A0D427566666572205BB7
:204E050025645D203A20546F74616C2053697A65202020203D205B25645D200A0D001B5BA3
:204E2500313B306D0A0D4275666665725B25645D203A204E756D626572206F662073746F64
:204E45007261676520636861726163746572732073696E6365206C617374203F3D205B252C
:204E6500645D0A0D00201B5B313B33346D7C2A2A2A2A2A2A2A2A2A2A2A2A205245504F5263
:204E85005420454E44454420202A2A2A2A2A2A2A2A2A2A2A2A2A2A2A2A2A2A2A7C0A0D0A3E
:044EA5000D0A0D00E5
:20539C00303030000000000000000000000000000000000000000000000000000000000061
:2053BC000000000000000000000000000000000000000000000000000000000000000000D1
:2053DC000000000000000000000000000000000000000000000000000000000000000000B1
:2053FC00000000000000000000000000000000000000000000000000000000000000000091
:20541C00000000000000000000000000000000000000000000000000000000000000000070
:20543C00000000000000000000000000000000000000000000000000000000000000000050
:10545C000000000000000000000000000000000040
:03200000022006B5
:03205F0002200359
:03200300022E9416
:202E8D00438E0C9000002274A9C0E0744EC0E012361B1581158174E4C0E0744EC0E0123646
:202EAD001B158115817426C0E0744FC0E012361B15811581745AC0E0744FC0E012361B1549
:202ECD00811581749CC0E0744FC0E012361B1581158174DEC0E0744FC0E012361B158115C9
:202EED00817420C0E07450C0E012361B158115817462C0E07450C0E012361B158115817440
:202F0D00A4C0E07450C0E012361B1581158174A9C0E0744EC0E012361B1581158174E6C0A5
:202F2D00E07450C0E012361B15811581901C587402F0E4A3F0901C56E4F0A3F0901C5EF06D
:202F4D00A3F0901C60F0A3F0901C62F0A3F0122062AE82AF83901D94EEF0EFA3F08E828F7B
:202F6D0083123760AE82AF83901D96EEF0EFA3F0EE4F7034741CC0E07451C0E012361B1525
:202F8D008115817452C0E07451C0E012361B15811581901D96E0FEA3E0FF7D008E828F8371
:202FAD008DF0123385023035748CC0E07451C0E012361B15811581901C627401F0E4A3F0D8
:202FCD00901D94E0FEA3E0FF8E828F83123760AE82AF83901D9AEEF0EFA3F0EE4F703A7414
:202FED00BAC0E07451C0E012361B158115817452C0E07451C0E012361B15811581901D96D9
:20300D00E0FEA3E0FF7D008E828F838DF0123385901C62E4F0A3F0800F74EEC0E07451C0D2
:20302D00E012361B15811581901C62E0F5F0A3E045F07003022F5B901D9AE0F5F0A3E045B6
:20304D00F07003022F5B741CC0E07452C0E012361B158115817457C0E07452C0E012361B1B
:20306D0015811581741CC0E07452C0E012361B15811581901D96E0FEA3E0FD7F007B007CDB
:20308D0000901D94E0F9A3E0FAC3EB99EC64808AF063F08095F0501AEB2EF8EC3DF98F0275
:2030AD00888289838AF074FF1236000BBB00D20C80CF901D96E0FEA3E0FF901B8EEEF0EF1C
:2030CD00A3F0901D9AE0FEA3E0FF901B90EEF0EFA3F0901D94E0FEA3E0FF901DA4EEF0EF4F
:2030ED00A3F0901D94E0FEA3E0FF901DA6EEF0EFA3F0901C5AE4F0A3F0901C5C7402F0E41D
:20310D00A3F0748BC0E07452C0E012361B1581158174C6C0E07452C0E012361B15811581AC
:20312D007401C0E07453C0E012361B158115811232ADAE828E057F008D828F83C007C00696
:20314D00C0051232BB9000201232BB7442C0E07453C0E07480C0E0123A4B15811581158145
:20316D00D005D006D007BE61004068EE24854063901C56E0FBA3E0FC901D94E0F9A3E0FACC
:20318D00C3EB99EC64808AF063F08095F0501F901C5674012BF0E43CA3F0901D96E0F9A3C6
:2031AD00E0FAEB29F582EC3AF583EEF0800B8D828F83C0061232BBD006901C5EE02401F0DB
:2031CD00A3E03400F0901C60E02401F0A3E03400F08031BE2B028017BE2D028012BE3F02E2
:2031ED00800DBE3D028008BE4002800302310F901C60E02401F0A3E03400F0901DA274017F
:20320D00F0E4A3F0901DA2E0FDA3E0FF901D94E0FBA3E0FC901B7AEEF0901B7B7458F07498
:20322D001CA3F0E4A3F0901B7E745AF0741CA3F0E4A3F0901B81745CF0741CA3F0E4A3F054
:20324D00901B84745EF0741CA3F0E4A3F0901B877460F0741CA3F0E4A3F0901B8AEBF0EC4A
:20326D00A3F08D828F83122436AE82AF83BE011BBF0018744BC0E07453C0E07480C0E012A2
:20328D003A4B158115811581022F42BE0205BF0002800302310F901C56E4F0A3F002310F71
:204EA9001B5B313B33356D7C2A2A2A2A2A2A2A2A2A2A2A2A2A2A2A2A2A2A2A2A2A2A2A2AC6
:204EC9002A2A2A2A2A2A2A2A2A2A2A2A2A2A2A2A2A2A2A2A2A2A2A7C0A0D007C2A2A2A2A4C
:204EE9002A2A2A2A2A2A2A2A201B5B313B33366D5553455220494E54455246414345201B56
:204F09005B313B33356D2A2A2A2A2A2A2A2A2A2A2A2A2A2A2A2A2A2A2A7C0A0D007C20207F
:204F290043686F6F73652061206368617261637465722066726F6D207468652062656C6FC2
:204F490077206F7074696F6E73202020207C0A0D007C20201B5B313B33356D612D7A1B5BA1
:204F6900313B33356D20207C2043686172616374657220746F2073746F726520696E2074A3
:204F89006865206275666665722020202020207C0A0D007C20201B5B313B33356D2B1B5B3A
:204FA900313B33356D202020207C20416C6C6F636174652061206E657720627566666572E1
:204FC90020202020202020202020202020202020207C0A0D007C20201B5B313B33356D2D75
:204FE9001B5B313B33356D202020207C2044656C65746520612062756666657220202020E7
:20500900202020202020202020202020202020202020207C0A0D007C20201B5B313B33358E
:205029006D3F1B5B313B33356D202020207C20446973706C617920746865206865617020D3
:205049007265706F72742020202020202020202020202020207C0A0D007C20201B5B313B9A
:2050690033356D3D1B5B313B33356D202020207C20446973706C617920636F6E74656E7451
:2050890073206F66204275666665725F30202020202020202020207C0A0D007C20201B5B91
:2050A900313B33356D401B5B313B33356D202020207C204672656520616C6C207468652037
:2050C900627566666572732020202020202020202020202020202020207C0A0D007C2A2A37
:2050E9002A2A2A2A2A2A2A2A2A2A2A2A2A2A2A2A2A2A2A2A2A2A2A2A2A2A2A2A2A2A2A2A67
:205109002A2A2A2A2A2A2A2A2A2A2A2A2A7C0A0D0A0D001B5B313B33336D496E76616C69A2
:2051290064204D616C6C6F6309093A204D616C6C6F63206F6E206275666665723020666118
:20514900696C656421210A0D001B5B313B33316D53756767657374656420416374696F6E73
:20516900093A2050726F7669646520736D616C6C6572206275666665722073697A65212123
:205189000A0D001B5B313B306D4D616C6C6F63205375636365737366756C203A2042756641
:2051A9006665723020616C6C6F63617465640A0D001B5B313B33316D496E76616C696420FF
:2051C9004D616C6C6F633A204D616C6C6F63206F6E2062756666657231206661696C65646F
:2051E90021210A0D001B5B313B306D4D616C6C6F63205375636365737366756C203A20427A
:2052090075666665723120616C6C6F63617465640A0D001B5B313B33336D7C2A2A2A2A2A59
:205229002A2A2A2A2A2A2A2A2A2A2A2A2A2A2A2A2A2A2A2A2A2A2A2A2A2A2A2A2A2A2A2A25
:205249002A2A2A2A2A2A2A2A2A2A7C0A0D007C20204275666665723020616E642042756638
:20526900666572203120416C6C6F636174696F6E205375637365737366756C2020207C0A3B
:205289000D001B5B313B33366D7C2A2A2A2A2A2A2A2A2A2A2A2A2A2A2A2A2A2A2A2A2A2A28
:2052A9002A2A2A2A2A2A2A2A2A2A2A2A2A2A2A2A2A2A2A2A2A2A2A2A2A7C0A0D001B5B3191
:2052C9003B33366D7C20202020202020202020202020202020456E7465722043686172613B
:2052E90063746572202020202020202020202020202020207C0A0D001B5B313B33366D7C30
:205309002A2A2A2A2A2A2A2A2A2A2A2A2A2A2A2A2A2A2A2A2A2A2A2A2A2A2A2A2A2A2A2A44
:205329002A2A2A2A2A2A2A2A2A2A2A2A2A2A2A7C0A0D1B5B313B306D001B5B313B306D0D50
:205349000A001B5B313B306D416C6C2062756666657220636C65617265640D0A46656420D2
:20536900696E207468652073697A6520666F722062756666657220302066726F6D207374E5
:0853890061727421210D0A007C
:20546C00000000000000000000000000000000000000000000000000000000000000000020
:20548C00000000000000000000000000000000000000000000000000000000000000000000
:2054AC000000000000000000000000000000000000000000000000000000000000000000E0
:2054CC000000000000000000000000000000000000000000000000000000000000000000C0
:2054EC000000000000000000000000000000000000000000000000000000000000000000A0
:20550C0000000000000000000000000000000000000000000000000000000000000000007F
:20552C0000000000000000000000000000000000000000000000000000000000000000005F
:20554C0000000000000000000000000000000000000000000000000000000000000000003F
:20556C0000000000000000000000000000000000000000000000000000000000000000001F
:20558C000000000000000000000000000000000000000000000000000000000000000000FF
:2055AC000000000000000000000000000000000000000000000000000000000000000000DF
:2055CC000000000000000000000000000000000000000000000000000000000000000000BF
:2055EC0000000000000000000000000000000000000000000000000000000000000000009F
:20560C0000000000000000000000000000000000000000000000000000000000000000007E
:20562C0000000000000000000000000000000000000000000000000000000000000000005E
:20564C0000000000000000000000000000000000000000000000000000000000000000003E
:20566C0000000000000000000000000000000000000000000000000000000000000000001E
:20568C000000000000000000000000000000000000000000000000000000000000000000FE
:2056AC000000000000000000000000000000000000000000000000000000000000000000DE
:0856CC000000000000000000D6
:2032AD0010980280FBAE997F008E828F8322AF83E582901C64F0EFA3F03099FD901C64E001
:2032CD00FEA3E0FF8E99C2998E828F8322AF83E582901C66F0EFA3F0901C66E0FEA3E0FF0C
:2032ED007C007D00C007C006C005C0041232ADAA828A017B0089828B83C0021232BBD002E3
:20330D00D004D005D006D007BA0D028003BA0A13901C66E0F9A3E0FBEC29F582ED3BF58392
:20332D00E4F022EC2EF582ED3FF583EAF00CBC00B30D80B0AF83E582901C68F0EFA3F09014
:20334D001C68E0FEA3E0FF8E828F83E0FD60207C008D828C83C007C0061232BBD006D0072A
:18336D000EBE00010F901C68EEF0EFA3F080D8901C68EEF0EFA3F0220A
:20338500AFF0AE83E582901C6AF0EEA3F0EFA3F0901C6AE0FDA3E0FEA3E0901C6AE0F5F016
:2033A500A3E045F0700122901C6FE4F0A3F0901C7AE0FBA3E0FC901C6DEBF0ECA3F0901C9C
:2033C50071747AF0741CA3F0901C6DE0FBA3E0FC4B60418B018C02C003C0048D008E04C394
:2033E500E998EA9CD004D003502A901C6FEBF0ECA3F074022BFBE43CFC901C71EBF0ECA3EC
:20340500F08B828C83E0FBA3E0FC901C6DEBF0ECA3F080B4901C6DE0FEA3E0FF901C6AE02B
:20342500FBA3E0FCA3E0EB24FEFBEC34FFFC74022BFAE43CFD8A828D83EEF0EFA3F0901C87
:2034450071E0F8A3E0F988828983EBF0ECA3F08B828C83E0F8A3E0F9EEB50033EFB5012F18
:2034650088828983A3A3E0FEA3E0FF8A828D83EEF0EFA3F08B828C83E0FEA3E0FF8E828FF4
:2034850083E0FEA3E0FF8B828C83EEF0EFA3F0901C6FE0FEA3E0FF4E603C8E828F83E0F869
:2034A500A3E0F9E8B5032FE9B5042B8B828C83E0FBA3E0FC8E828F83EBF0ECA3F074022E59
:1734C500FEE43FFF8A828D83E0FAA3E0FD8E828F83EAF0EDA3F022BC
:06203500E478FFF6D8FD7F
:202013007938E94403601B7A0490539C78C475A01CE493F2A308B8000205A0D9F4DAF27566
:02203300A0FF0C
:2034DC00AFF0AE83E582901C73F0EEA3F0EFA3F0901C76E4F0A3F0901C73E0FDA3E0FEA3DE
:2034FC00E0FF8D828E838FF0124477FCBC20028003BC09120DBD00010E901C73EDF0EEA3CB
:20351C00F0EFA3F080DC901C73EDF0EEA3F0EFA3F08D828E838FF0124477FC901C78E4BC96
:20353C002D0104F0BC2D028003BC2B0E901C7374012DF0E43EA3F0EFA3F0901C73E0FDA363
:20355C00E0FEA3E0FF8D828E838FF0124477FCBC30009200405FEC24C692004058901C7648
:20357C00E0FBA3E0FC901C82EBF0ECA3F090000AC007C006C0051238C9AB82AC83D005D04D
:20359C0006D0078D828E838FF0124477FAA3AD82AE83901C73EDF0EEA3F0EFA3F08A017AC5
:2035BC0000E924D0F9EA34FFFA901C76E92BF0EA3CA3F08090901C73EDF0EEA3F0EFA3F014
:2035DC00901C78E06011901C76E0FEA3E0FFC3E49EFEE49FFF8008901C76E0FEA3E0FF8E7B
:0435FC00828F832215
:1B36000020F71130F6138883A88220F509F6A8837583002280FEF280F5F022C9
:20361B00C01B85811BE51B24FDF8868318868218E493A324DB600C2425600512370980F044
:20363B00023721D2D5E493A3C083C082B4731486F0188683188682181244776054A3123758
:20365B000980F5B4630818E6181237098043B46417E630E74618E6F42401F608E6F43400F2
:20367B00F6742D1237098033B4782D868318868218E41236FAE5831236F9E5831236FAE59B
:20369B00821236F9E5821236FA30D5057430123709D082D08302362BB475F6E6FA18E6F9A5
:2036BB00187C107D271236E4FF7CE87D031236E4C4F5837C647D001236E44283E975F00A8A
:2036DB0084C445F0F582EF80A97B000BC3E99CF9EA9DFA50F61BE92CF9EA3DFAEB22C454C6
:2036FB000F700320D51FC2D52490D43440D4C083C082C0F0F582E8C0E01232BBD0E0F8D007
:09371B00F0D082D08322D01B22E1
:20372400901C7A7400F07404A3F0904493E493FE740193FF1EBEFF011FEE2400FEEF3404DB
:20374400FF900400EEF0EFA3F0901C7AE0FEA3E0FF8E828F83A3A3E4F0A3F022AF83E58262
:20376400901C7CF0EFA3F0901C7AE0F5F0A3E045F07003123724901C7CE0FEA3E0FF4E60F2
:203784000E74022EFCE43FFDC3EC9EED9F500490000022901C7C74022EF0E43FA3F0901C5A
:2037A4007CE0FEA3E0FFC3EE9404EF94005009901C7C7404F0E4A3F0901C7AE0FEA3E0FF77
:2037C400901C7EEEF0EFA3F0901C80747AF0741CA3F0901C7EE0FEA3E0FF4E70030238C5E4
:2037E4008E828F83E0FCA3E0FD8C028D038E008F01EAC398FAEB99FB8A008B01901C7CE02F
:20380400F519A3E0F51AC3E89519E9951A50030238A274042519F8E4351AF9C3EA98EB9941
:20382400404C8E028F03E5192AFAE51A3BFB8A828B83ECF0EDA3F074022AFCE43BFD8E8241
:203844008F83A3A3E0F8A3E0F98C828D83E8F0E9A3F0901C80E0FCA3E0FD8C828D83EAF0C6
:20386400EBA3F08E828F83EAF0EBA3F0801C901C80E0FCA3E0FD8E828F83A3A3E0FAA3E063
:20388400FB8C828D83EAF0EBA3F0901C7EE0FCA3E0FD74022CFCE43DFD8C828D83227402BB
:2038A4002EFEE43FFF901C80EEF0EFA3F08E828F83E0FEA3E0FF901C7EEEF0EFA3F00237E5
:0538C400D69000002277
:2038C900AA83AB828BF0901C82E0A4F8A9F08AF0E0A429F98BF0A3E0A429F5838882222216
:2038E900AF83E582901C86F0EFA3F0901C86E0FEA3E0FF30E709C3E49EFCE49FFD80048EFD
:20390900048F05901C84E0FEA3E0FF30E709C3E49EFAE49FFB80048E028F03901C88EAF0E5
:20392900EBA3F08C828D83123951AE82AF83901C86E0A3E030E70CC3E49EFCE49FFD8C825D
:083949008D83228E828F832200
:20395100AF83E582901C8AF0EFA3F0901C8CE4F0901C8AE0FEA3E0FF7D00901C88E0FBA344
:20397100E0FC235401FA7036EB2BFBEC33FC901C88EBF0ECA3F0901C88E0FBA3E0FCC3EE49
:203991009BEF9C5011ECC313CB13CBFC901C88EBF0ECA3F080080D901C8CEDF080BC901C08
:2039B1008CE0FF901C8AE0FDA3E0FE901C88E0FBA3E0FCC3ED9BEE9C400B901C8AEDC39BC8
:2039D100F0EE9CA3F0901C88E0FDA3E0C313CD13CDFE901C88EDF0EEA3F08F061FEE70C34D
:0C39F100901C8AE0FEA3E08E82F5832289
:20203B007800E84400600A790075A004E4F309D8FC78C4E84418600C7919900400E4F0A3A8
:04205B00D8FCD9FADA
:2039FD00C01B85811B7E008E831232BBD01B22AFF0AE83E582901C8EF0EEA3F0EFA3F0901F
:203A1D001C8EE0FDA3E0FEA3E0FF901C8DE0FC901CA2E4F0A3F0A3F0901CA5EDF0EEA3F0F3
:203A3D00EFA3F0901CA8ECF09039FD023B51C01BE581F51B24FBFF901CA2E4F0A3F0A3F0AC
:203A5D00E51B24FBF8901CA5E6F008E6A3F008E6A3F0901CA8EFF09039FD123B51D01B2265
:203A7D00E582901C9EF0E0FF901C94E0C0E0A3E0C0E0A3E0C0E0123A98800D901C92E0C054
:203A9D00E0A3E0C0E08F8222158115811581901C9CE02401F0A3E03400F022E582901C9F59
:203ABD00F0E02430FF24C6500D74072FFF901C91E060034307208F82023A7DE582901CA06F
:203ADD00F0E0FFC4540FF582C007123AB8D00753070F8F82023AB8E582901CA1F0901C9765
:203AFD00E0FCA3E0FDA3E0FEA3E0FF901C9BE0FB901CA1E0FA79208B00E828F51CEF235456
:203B1D0001451CFBEC2CFCED33FDEE33FEEF33FFC3EB9A4007EBC39AFB43040119E970D757
:203B3D00901C97ECF0EDA3F0EEA3F0EFA3F0901C9BEBF022AF83E582901CA9F0EFA3F09092
:203B5D001CA9E0FEA3E0FF901C92EEF0EFA3F0901CA2E0FDA3E0FEA3E0FF901C94EDF0EE4C
:203B7D00A3F0EFA3F0901C9CE4F0A3F0901CA5E0FDA3E0FEA3E0FF8D828E838FF0124477C7
:203B9D00FC901CA574012DF0E43EA3F0EFA3F0EC7003024453BC2502800302444B901CABAC
:203BBD00E4F0901CACF0901CADF0901CAEF0901CAFF0901CB0F0901CB1F0901CB2F0901C5B
:203BDD00B4F0901CB5F0A3F0901CB714F0A3F0901CA5E0FDA3E0FEA3E0FF8D828E838FF076
:203BFD00124477FBA3AD82AE83901CA5EDF0EEA3F0EFA3F0901CBBEBF0BB25088B82123A29
:203C1D007D023B89BB30005003023CEAEB24C65003023CEA901CB7E0F521A3E0F52274FF28
:203C3D00B52163B52260C005C006C007901CB5E0FAA3E0FF901C82EAF0EFA3F090000AC004
:203C5D0005C0031238C9AE82AF83D003D0058B027D00EA2EFEED3FFFEE24D0FEEF34FFFF16
:203C7D00901CB5EEF0EFA3F0D007D006D005901CB5E0F5F0A3E045F06003023BF7901CAC17
:203C9D007401F0023BF7C005C006C007901C82E521F0E522A3F090000AC006C005C0031264
:203CBD0038C9AA82AF83D003D005D0067E00EB2AFAEE3FFFEA24D0FAEF34FFFF901CB7EA0B
:203CDD00F0EFA3F0D007D006D005023BF7901CBBE0FBBB2E2FC005C006C007901CB7E0FAB6
:203CFD00A3E0FFBAFF05BFFF028009D007D006D005023BF7D007D006D005901CB7E4F0A30C
:203D1D00F0023BF7BB61004014EB2485400F901CBB74DF5BF0901C917401F08005901C91A6
:203D3D00E4F0901CBBE0FBBB20028075BB2B028067BB2D028059BB4202806FBB4302807C02
:203D5D00BB4403023FE1BB4603024007BB4803023BF7BB4903023FE1BB4A03023BF7BB4C2F
:203D7D00028050BB4F03023FEFBB5003023F4FBB53028077BB5403023BF7BB5503023FF7E1
:203D9D00BB5803023FFFBB5A03023BF702400F901CAB7401F0023BF7901CAD7401F0023B28
:203DBD00F7901CAE7401F0023BF7901CB07401F0023BF7901CB17401F0023BF7901CB0E0D5
:203DDD00600E901CA8E014F9F0901CBBE7F0800F901CA8E024FEFFF08F01901CBBE7F090B7
:203DFD001CBBE0F582123A7D02401E901CA8E024FDFFF08F01870509870609870719199000
:203E1D001C97EDF0EEA3F0EFA3F08D828E838FF012445F858221858322901CB7E0FAA3E08C
:203E3D00FDBAFF0DBDFF0A901CB7E521F0E522A3F0901CABE0704B901CB5E0FAA3E0FDC379
:203E5D00E5219AE5229D503A901CB5EAC39521F0ED9522A3F0901CB5E0FAA3E0FD8A068DB4
:203E7D00071ABAFF011DEE4F6010758220C005C002123A7DD002D00580E3901CB5EAF0EDE7
:203E9D00A3F0901CB7E0F524A3E0F525901C97E0FAA3E0FDA3E0FF8A828D838FF0124477F2
:203EBD00F523603CC3E4952474808525F063F08095F0502C152474FFB52402152585238284
:203EDD00123A7D901C97E0FAA3E0FDA3E0FF0ABA00010D901C97EAF0EDA3F0EFA3F080ACC0
:203EFD00901CABE0700302401E901CB5E0FEA3E0FFC3E5219EE5229F400302401E901CB5C9
:203F1D00EEC39521F0EF9522A3F0901CB5E0FEA3E0FF8E028F051EBEFF011FEA4D70030268
:203F3D004016758220C007C006123A7DD006D00780E0901CA8E024FDFDF08D018726098787
:203F5D00270987281919901C97E526F0E527A3F0E528A3F0901C99E0FDBD80004008901C63
:203F7D00BB7443F08020BD60004008901CBB7450F08013BD40004008901CBB7449F0800630
:203F9D00901CBB7458F0901CBBE0FDF582C005123A7D75823A123A7D758230123A7D7582B7
:203FBD0078123A7DD005BD4902800EBD50028009901C98E0F582123AD8901C97E0F5821235
:203FDD003AD8803D901CAF7401F0901CB4740AF0802F901CB47408F08027901CB4740AF077
:203FFD00801F901CB47410F08017901CB27401F0800F8B82123A7D8008901CB5EEF0EFA319
:20401D00F0901CB2E06071901CA8E024FCFFF08F018703098705098706098707191919908A
:20403D001C97EBF0EDA3F0EEA3F0EFA3F0901C977491F07453A3F07480A3F0901C97E0F521
:20405D0026A3E0F527A3E0F52874012526FAE43527FBAF28901C97EAF0EBA3F0EFA3F08570
:20407D0026828527838528F0124477FF7003023B898F82123A7D80C3901CB4E07003023B9D
:20409D0089901CB0E06047901CA8E014F9F087077E007D007B00901C97EFF0EEA3F0EDA32F
:2040BD00F0EBA3F0901CAFE06003024161901C97E0FBA3E0A3E0A3E07D007E007F00901C66
:2040DD0097EBF0EDA3F0EEA3F0EFA3F08076901CB1E06028901CA8E024FCFFF08F018703B6
:2040FD00098705098706098707191919901C97EBF0EDA3F0EEA3F0EFA3F08048901CA8E0F9
:20411D0024FEFFF08F01870609870719EF3395E0FDFB901C97EEF0EFA3F0EDA3F0EBA3F074
:20413D00901CAFE0701E901C97E0FBA3E0FDA3E0A3E07E007F00901C97EBF0EDA3F0EEA3C9
:20415D00F0EFA3F0901CAFE06041901C97E0FBA3E0FDA3E0FEA3E0FF30E72B901C97E0FBF3
:20417D00A3E0FDA3E0FEA3E0FFC3E49BFBE49DFDE49EFEE49FFF901C97EBF0EDA3F0EEA3B3
:20419D00F0EFA3F08005901CAFE4F0901CB37401F0901CB4E0F5247529C1752A1CE4F521AB
:2041BD00F522901C9BE4F0852482123AF4901CB3E07033901C9BE0C454F0F526901C9BE0F2
:2041DD00C4540F4526F526852982852A83E0FFE5264207852982852A83EFF0152974FFB5D9
:2041FD002902152A800C901C9BE0FF852982852A83F00521E4B521020522901CB3E0B40137
:20421D0000E433F0901C97E0FAA3E0FBA3E0FEA3E0FFEA4B4E4F708A901CC2E529F0E52A95
:20423D00A3F0901CB9E521F0E522A3F0901CB5E0F5F0A3E045F07009901CB57401F0E4A335
:20425D00F0901CACE0FFE07047901CABE0704185212985222A901CB5E0FAA3E0FBC007AFCC
:20427D00290F8F067F00C3EE9AEF9BD0075019758220C007C003C002123A7DD002D003D01F
:20429D00071ABAFF011B80D5901CB5EAF0EBA3F0901CAFE0602075822DC007123A7DD007B7
:2042BD00901CB5E024FFFDA3E034FFFE901CB5EDF0EEA3F08056901CB9E0F5F0A3E045F055
:2042DD00604A901CADE0602075822BC007123A7DD007901CB5E024FFFDA3E034FFFE901C14
:2042FD00B5EDF0EEA3F08024901CAEE0601E758220C007123A7DD007901CB5E024FFFDA3B0
:20431D00E034FFFE901CB5EDF0EEA3F0901CABE07048901CB9E0F529A3E0F52A901CB5E07B
:20433D00FAA3E0FBC0078A068B071ABAFF011BC3E5299EE52A9FD0075053EF60067D307EF9
:20435D000080047D207E008D82C007C003C002123A7DD002D003D00780CA901CB5E0FEA3D5
:20437D00E0FF901CB9E0F529A3E0F52AC3E5299EE52A9F500F901CB5EEC39529F0EF952A52
:20439D00A3F08011901CB5E4F0A3F08008901CB5EAF0EBA3F0901CC2E0FEA3E0FF901CB9A0
:2043BD00E0F529A3E0F52AAA29AD2A152974FFB52902152AEA4D6045901CB3E0B40100E412
:2043DD0033F0901CB3E070140EBE00010F8E828F83E0C4540FFD901C9BF0800E8E828F83F1
:2043FD00E0FD53050F901C9BEDF0901C9BE0F582C007C006123AB8D006D00780AA901CABDB
:20441D00E07003023B89901CB5E0FEA3E0FF8E038F051EBEFF011FEB4D7003023B8975821D
:20443D0020C007C006123A7DD006D00780E08C82123A7D023B89901C9CE0FEA3E08E82F591
:02445D008322B8
:0B5391003C4E4F20464C4F41543E0064
:18445F00AA82AB831244776003A380F8C3E5829AF582E5839BF58322C8
:0D20060075812A122E8DE5826003022003F1
:1C44770020F71430F6148883A88220F507E6A88375830022E280F7E49322E02254
:00000001FF
