:02439F00701795
:10206200901B707430F0901B71F0901B72F0901BFB
:1020720073F0901B74E4F074A1C0E07443C0E07488
:1020820080C0E012395715811581158174A7C0E00F
:102092007443C0E012352715811581901B701231EF
:1020A200E6901B70E0FFBF30004032EF24C6402DA7
:1020B200901B71E0FFBF30004023EF24C6401E900A
:1020C2001B72E0FFBF30004014EF24C6400F901B8C
:1020D20073E0FFBF30004005EF24C6502D74B6C038
:1020E200E07443C0E07480C0E01239571581158155
:1020F200158174F9C0E07443C0E07480C0E0123905
:1021020057158115811581022079901B7075F00099
:102112001233E8AE82AF83C3EE9440EF64809480C2
:10212200400E74E09E74958FF063F08095F050122B
:102132007431C0E07444C0E0123527158115810264
:102142002079901C827420F0E4A3F08E828F83C0E9
:1021520007C0061237F5E5828583F0D006D0074521
:10216200F060127472C0E07444C0E0123527158129
:0A21720015810220798E828F8322EE
:1043A1001B5B33336D000A0D456E74657220696EB7
:1043B1007075743A001B5B303B33316D0A496E7680
:1043C100616C696420696E7075742E20506C656132
:1043D100736520656E74657220666F7572206469FD
:1043E10067697473206265747765656E203020613A
:1043F1006E6420392E0A0D001B5B303B33316D5644
:10440100616C696420496E707574204578616D70C6
:104411006C6573203A20303036342C393837362CDD
:10442100303030312C303039362C206574630A003D
:104431001B5B303B33316D0A496E76616C696420D8
:10444100696E7075742E496E707574206461746143
:104451002073686F756C642062652062657477658E
:10446100656E20363420616E6420353630302E0A78
:10447100001B5B303B33316D0A496E76616C6964B8
:1044810020696E7075742E496E707574206E6F742C
:1044910020646976697369626C65206279203332C0
:0344A1002E0A00E0
:10217C007E007F00901DA2E0FCA3E0FDC3EE9CEF6F
:10218C0064808DF063F08095F0501A901D94E0FC03
:10219C00A3E0FDEE2CF582EF3DF5837430F00EBE1E
:1021AC0000D20F80CF22AF83E582901B77F0EFA394
:1021BC00F0901B797401F074A4C0E07444C0E07416
:1021CC0080C0E0123957158115811581901B77E07D
:1021DC00FEA3E0FFE4BE1004BF000104FDE4BE203A
:1021EC0004BF000104FC7A007B00901D90E0F8A372
:1021FC00E0F9C3EA98EB648089F063F08095F040D5
:10220C000122901B79E0604CC004901D94E0F8A36F
:10221C00E0F9EA28F8EB39F97C00C007C006C005E4
:10222C00C004C003C002C000C001C00474AEC0E052
:10223C007444C0E07480C0E0123957E58124FAF58B
:10224C0081D002D003D004D005D006D007901B79E2
:10225C00E4F0D004901D94E0F8A3E0F9EA28F582AC
:10226C00EB39F583E0F9B93029C007C006C005C0C9
:10227C0004C003C00274BAC0E07444C0E012352735
:10228C0015811581D002D003D004D005D006D0071B
:10229C008078ED603189007900C007C006C005C0A8
:1022AC0004C003C002C000C00174C5C0E07444C0C7
:1022BC00E0123527E58124FCF581D002D003D0044F
:1022CC00D005D006D007EC6041901D94E0F8A3E057
:1022DC00F9EA28F582EB39F583E0F87900C007C0FC
:1022EC0006C005C004C003C002C000C00174D0C049
:1022FC00E07444C0E0123527E58124FCF581D0025E
:10230C00D003D004D005D006D00774012AF8E43BE2
:10231C00F9901C82EEF0EFA3F088828983C007C08D
:10232C0006C005C004C003C0021237F5E5828583E0
:10233C00F0D002D003D004D005D006D00745F07001
:10234C002DC007C006C005C004C003C00274A4C0E1
:10235C00E07444C0E012352715811581D002D003FA
:10236C00D004D005D006D007901B797401F00ABABE
:10237C0000010B0221F6AF83E582901B8CF0EFA3DA
:10238C00F0901B8AE0FEA3E0FF901D90EEF0EFA30F
:10239C00F0901B8CE0F5F0A3E045F07003022D5C8F
:1023AC00901B7AE0FFBF2B02801BBF2D0302267E01
:1023BC00BF3D03022A89BF3F03022AAABF40030282
:1023CC002952022D5C74DBC0E07444C0E012352746
:1023DC00158115817416C0E07445C0E012352715BF
:1023EC0081158174DBC0E07444C0E012352715817F
:1023FC001581901B7BE0FDA3E0FEA3E0FF8D828E98
:10240C00838FF0124383FBA3124383FC0BBB0001AD
:10241C000C8D828E838FF0EB12350CA3EC12350CE5
:10242C00C007C006C0057451C0E07445C0E0123549
:10243C002715811581901CC21231E6901CC275F0D3
:10244C00001233E8AB82AC83C004C003C003C004E9
:10245C007464C0E07445C0E07480C0E0123957E584
:10246C008124FBF581D003D004D005D006D007C35E
:10247C00EB941EEC64809480400E742C9B74818CC5
:10248C00F063F08095F050127481C0E07445C0E0A8
:10249C0012352715811581022D5C8B828C83C00728
:1024AC00C006C005C004C00312366CA982AA83D032
:1024BC0003D004D005D006D00789088A09E5084561
:1024CC0009701274CDC0E07445C0E0123527158137
:1024DC001581022D5C8D828E838FF0124383F8A3BD
:1024EC00124383FA18B8FF011AE828F8EA33FAE81D
:1024FC0024A2F582EA341DF583EBF0ECA3F0901BDB
:10250C0081E0FAA3E0FBA3E0FC8A828B838CF012BF
:10251C004383F8A3124383F908B80001098A828B1C
:10252C00838CF0E812350CA3E912350C8D828E8366
:10253C008FF0124383F8A3124383F918B8FF0119E3
:10254C00E828F8E933F9E8248EF582E9341BF583A1
:10255C00E508F0E509A3F08D828E838FF01243839A
:10256C00F8A3124383F9E828F8E933F9E824C8F50D
:10257C0082E9341CF5837401F0E4A3F08D828E8320
:10258C008FF0124383F8A3124383F9C007C006C02F
:10259C0005C004C003C002C000C0017402C0E074D6
:1025AC0046C0E07480C0E0123957E58124FBF58108
:1025BC00D002D003D004D005D006D0078D828E83F4
:1025CC008FF0124383F8A3124383F918B8FF011953
:1025DC00C007C006C005C004C003C002C000C001D3
:1025EC007420C0E07446C0E0123527E58124FCF568
:1025FC0081D002D003D004D005D006D0078D828EB6
:10260C00838FF0124383FDA3124383FEC004C003E7
:10261C00C002C005C0067457C0E07446C0E0123555
:10262C0027E58124FCF581D002D003D004901B7ED9
:10263C00E0FDA3E0FEA3E0FF8D828E838FF01243BA
:10264C0083FDA3124383FE8A828B838CF012438317
:10265C00FAA3124383FBC005C006C002C003749AE0
:10266C00C0E07446C0E0123527E58124FAF58102FA
:10267C002D5C74DBC0E07444C0E012352715811565
:10268C008174DEC0E07446C0E012352715811581D7
:10269C0074DBC0E07444C0E01235271581158190BD
:1026AC001CC6E4F0A3F07419C0E07447C0E0123506
:1026BC002715811581901B7BE0FDA3E0FEA3E0FFB5
:1026CC008D828E838FF0124383FBA3124383FCC055
:1026DC0007C006C005C003C0047446C0E07447C000
:1026EC00E0123527E58124FCF581D005D006D00712
:1026FC00C007C006C0051231B9AB828B027C008AC0
:10270C00828C83C004C003C0021231C7D002D00334
:10271C00D004D005D006D007BB30004005EB24C652
:10272C00501DC007C006C005748CC0E07447C0E0E3
:10273C0012352715811581D005D006D0078050EAB7
:10274C0024D0FAEC34FFFC901CC6E0F9A3E0FB901B
:10275C001C80E9F0EBA3F090000AC007C006C0058E
:10276C00C004C0021237D5E5828583F0D002D004B4
:10277C00901CC62AF0EC35F0A3F01231B9AB82AC48
:10278C0083D005D006D007BB0D0280030226FC9037
:10279C001CC6E0FBA3E0FC4B701274BFC0E0744796
:1027AC00C0E012352715811581022D5CEB2BF9EC5D
:1027BC0033FAE924C8F582EA341CF583E0F9A3E086
:1027CC00497018C003C00474F2C0E07447C0E01232
:1027DC003527E58124FCF581022D5C8D828E838F5B
:1027EC00F0124383F9A3124383FAC3EB99EC648090
:1027FC008AF063F08095F040127432C0E07448C0E7
:10280C00E012352715811581022D5CC007C006C06A
:10281C0005C003C0047467C0E07448C0E0123527DB
:10282C00E58124FCF581901CC6E0FBA3E0FCEB2BBE
:10283C00FBEC33FCEB248EF582EC341BF583E0FBD4
:10284C00A3E0FC7A008B828C838AF0123291D00543
:10285C00D006D007901CC6E0FBA3E0FCEB2BFBECF6
:10286C0033FCEB24C8F582EC341CF583E4F0A3F0C4
:10287C00901B7EE0FAA3E0FBA3E0FC8A828B838CA6
:10288C00F0124383F8A3124383F908B80001098AB4
:10289C00828B838CF0E812350CA3E912350CC0073F
:1028AC00C006C005C004C003C002901CC6E0C0E056
:1028BC00A3E0C0E07493C0E07448C0E0123527E593
:1028CC008124FCF581D002D003D004D005D006D0F1
:1028DC00078D828E838FF0124383FDA3124383FEF8
:1028EC00C004C003C002C005C00674C2C0E0744876
:1028FC00C0E0123527E58124FCF581D002D003D04D
:10290C00048A828B838CF0124383FAA3124383FBD9
:10291C00901B81E0FDA3E0FEA3E0FF8D828E838FF0
:10292C00F0124383FDA3124383FEC002C003C00513
:10293C00C006749AC0E07446C0E0123527E58124C5
:10294C00FAF581022D5C74DBC0E07444C0E01235F2
:10295C00271581158174FEC0E07448C0E01235273C
:10296C001581158174DBC0E07444C0E01235271565
:10297C00811581901B7BE0F50AA3E0F50BA3E0F534
:10298C000C7B007C00850A82850B83850CF012433E
:10299C0083F9A3124383FAC3EB99EC64808AF06346
:1029AC00F08095F04003022A42EB2BF9EC33FAE964
:1029BC00248EF9EA341BFA89828A83E0F8A3E0FFBB
:1029CC00880D8F0E750F00E84F6046AD0DAE0EAF43
:1029DC000F8D828E838FF0C004C003C002C0011221
:1029EC003291D001D002D003D00489828A83E4F0E2
:1029FC00A3F0C004C003C003C0047439C0E0744920
:102A0C00C0E0123527E58124FCF581D003D0048089
:102A1C001DC004C003C003C0047452C0E07449C09C
:102A2C00E0123527E58124FCF581D003D0040BBBE3
:102A3C0000010C022991850A82850B83850CF0E438
:102A4C0012350CA312350C901B81E0FDA3E0FEA304
:102A5C00E0FF8D828E838FF0E412350CA312350CBF
:102A6C00901B7EE0FDA3E0FEA3E0FF8D828E838FA2
:102A7C00F0E412350CA312350C900001227476C0D0
:102A8C00E07449C0E012352715811581901B7574CF
:102A9C0010F0E4A3F09000101221B2022D5C74DB54
:102AAC00C0E07444C0E01235271581158174B3C0A1
:102ABC00E07449C0E01235271581158174DBC0E044
:102ACC007444C0E01235271581158174EEC0E07492
:102ADC0049C0E012352715811581742CC0E0744A69
:102AEC00C0E0123527158115817468C0E0744AC0A6
:102AFC00E012352715811581901B84E0FDA3E0FEC3
:102B0C00A3E0FF901B87E0F510A3E0F511A3E0F51F
:102B1C0012901B7BE0F50DA3E0F50EA3E0F50F780A
:102B2C00007900850D82850E83850FF0124383FB9F
:102B3C00A3124383FCC3E89BE964808CF063F080B0
:102B4C0095F04003022D11E828F50AE933F50BE561
:102B5C000A248EF508E50B341BF5098508828509D6
:102B6C0083E0FBA3E04B701EC007C006C00574A435
:102B7C00C0E0744AC0E012352715811581D005D00C
:102B8C0006D007022D11C005C006C007C007C0063D
:102B9C00C005C001C000C000C00174CDC0E0744AC3
:102BAC00C0E07480C0E0123957E58124FBF581D078
:102BBC0000D001850882850983E0FBA3E0FC7A0044
:102BCC00C001C000C003C004C002C000C00174E852
:102BDC00C0E0744AC0E07480C0E0123957E581242B
:102BEC00F8F581D000D001D005D006D00785088239
:102BFC00850983E0FBA3E0FCE50A24A2FAE50B348B
:102C0C001DFF8A828F83E0FDA3E0FEED2BFBEE3CE3
:102C1C00FC7E00C007C006C005C002C001C000C0D9
:102C2C0003C004C006C000C0017416C0E0744BC0E1
:102C3C00E07480C0E0123957E58124F8F581D000AA
:102C4C00D001D002D005D006D0078A828F83E0FA5B
:102C5C00A3E0FFC007C006C005C001C000C002C091
:102C6C0007C000C0017444C0E0744BC0E07480C065
:102C7C00E0123957E58124F9F581D000D001D00557
:102C8C00D006D007D007D006D005E849706F8D82EA
:102C9C008E838FF0124383FBA3124383FCC007C0C7
:102CAC0006C005C001C000C003C004C000C0017450
:102CBC0072C0E0744BC0E0123527E58124FAF5812F
:102CCC00D000D0018510828511838512F0124383C8
:102CDC00FBA3124383FCC001C000C003C004C000AE
:102CEC00C0017472C0E0744BC0E0123527E581243A
:102CFC00FAF581D000D001D005D006D00708B80075
:102D0C000109022B2FC007C006C00574DBC0E0749C
:102D1C0044C0E012352715811581D005D006D007A7
:102D2C008D828E838FF0E412350CA312350C851036
:102D3C00828511838512F012350CA312350C901B71
:102D4C00757420F0E4A3F09000201221B212217CC3
:042D5C0090000222BF
:1044A4001B5B313B33346D0A0D001B5B313B3334F2
:1044B4006D2570203A001B5B313B33346D20585816
:1044C400001B5B313B33346D202578001B5B313B93
:1044D40033346D202564001B5B313B33336D7C2A00
:1044E4002A2A2A2A2A2A2A2A2A2A2A2A2A2A2A2A28
:1044F4002A2A2A2A2A2A2A2A2A2A2A2A2A2A2A2A18
:104504002A2A2A2A2A2A2A2A2A2A2A2A2A2A7C0AD5
:104514000D001B5B313B33336D7C2A2A2A2A2A2A5D
:104524002A2A2A2A2A2A2050726F63657373696EB5
:1045340067205B2B5D202A2A2A2A2A2A2A2A2A2A49
:104544002A2A2A2A2A2A2A2A2A7C0A0D001B5B31B3
:104554003B300A0D456E7465722073697A653A00C2
:104564001B5B313B306D53697A65206166746572FB
:104574002061746F69203D2025640D0A001B5B31A6
:104584003B33316D496E76616C696420496E707598
:1045940074203A20546865206275666665722073DB
:1045A400697A652073686F756C6420626520696E32
:1045B400207468652072616E6765205B33302C203F
:1045C4003330305D0A0D0A0D001B5B313B33316D16
:1045D400496E76616C696420696E707574203A2046
:1045E4004661696C656420746F20616C6C6F6361F3
:1045F4007465206275666665720A0D0A0D001B5BA0
:10460400313B306D4E657720627566666572206950
:104614006E646578203D2025640A0D001B5B313BE8
:10462400306D4E65772062756666657220616C6CCC
:104634006F63617465642073756363657373667512
:104644006C6C79203A204275666665725B25645D00
:104654000A0D001B5B313B306D546F74616C204E4E
:10466400756D626572206F66204275666665727349
:1046740020696E636C7564696E6720627566666531
:10468400723020262062756666657231203D205B9B
:1046940025645D0A0D001B5B313B306D546F746102
:1046A4006C2046696C6C656420427566666572733D
:1046B400203D205B25645D200920546F74616C20CB
:1046C400456D7074792042756666657273203D206D
:1046D4005B25645D200A0D0A0D001B5B313B3333FF
:1046E4006D7C2A2A2A2A2A2A2A2A2A2A2A2A205075
:1046F400726F63657373696E67205B2D5D202A2A70
:104704002A2A2A2A2A2A2A2A2A2A2A2A2A2A2A2A05
:104714002A7C0A0D001B5B313B306D0A0D456E741B
:10472400657220627566666572206E756D6265726B
:1047340020746F2062652064656C657465643A0A50
:104744000D001B5B313B306D43757272656E7420D6
:104754006E756D626572206F66206275666665723D
:104764007320617265205B25645D2028696E646531
:1047740078207374617274696E672066726F6D203D
:1047840030293A0A0D0A0D001B5B313B33316D4968
:104794006E76616C696420696E707574203A206964
:1047A4006E76616C69642064696769747320656EF0
:1047B4007465726564200A0D0A0D001B5B313B337E
:1047C400316D496E76616C696420696E7075742010
:1047D4003A20627566666572206E756D6265722038
:1047E40063616E277420626520300A0D0A001B5B2A
:1047F400313B33316D496E76616C696420696E704A
:104804007574203A206275666665725B25645D2066
:1048140077617320616C726561647920636C656192
:10482400726564206561726C6965720A0D001B5BB8
:10483400313B33316D496E76616C696420696E7009
:104844007574203A20627566666572206E756D62B5
:10485400657220646F65736E27742065786973745C
:104864000A0D001B5B313B306D4275666665722034
:104874005B25645D2072657175657374656420746D
:104884006F2062652064656C657465640A0D001BA5
:104894005B313B306D4275666665725B25645D20F5
:1048A40064652D616C6C6F636174656420737563FA
:1048B4006365737366756C6C7920200A0D001B5B4D
:1048C400313B306D546F74616C204E756D6265724E
:1048D400206F662042756666657273206166746532
:1048E40072206465616C6C6F636174696F6E203DE6
:1048F400205B25645D0A0D0A0D001B5B313B3333DD
:104904006D7C2A2A2A2A2A2A2A2A2A2A2A2A205052
:10491400726F63657373696E67205B405D202A2A3A
:104924002A2A2A2A2A2A2A2A2A2A2A2A2A2A2A2AE3
:104934002A7C0A0D001B5B313B306D42756666654F
:10494400725B25645D2066726565640A0D001B5BFD
:10495400313B306D4275666665725B25645D207718
:10496400617320616C7265616479204E554C4C0A08
:104974000D001B5B313B33336D0D0A7C2A2A2A2A36
:104984002A2A2A2A2A2A2A2A2050726F63657373D4
:10499400696E67205B3D5D202A2A2A2A2A2A2A2A50
:1049A4002A2A2A2A2A2A2A2A2A2A2A7C0A0D001B87
:1049B4005B313B33336D7C2A2A2A2A2A2A2A2A2A63
:1049C4002A2A2A2050726F63657373696E67205BAD
:1049D4003F5D202A2A2A2A2A2A2A2A2A2A2A2A2AF5
:1049E4002A2A2A2A2A2A7C0A0D00201B5B313B33FF
:1049F400346D0D0A7C2A2A2A2A2A2A2A2A2A2A2AB1
:104A04002A2A2A2A2A2A2A2A2A2A2A2A2A2A2A2A02
:104A14002A2A2A2A2A2A2A2A2A2A2A2A2A2A2A2AF2
:104A24002A2A2A2A7C0A0D00201B5B313B33346D71
:104A34007C2A2A2A2A2A2A2A2A2A2A2A2A2A2A2A80
:104A44002048454150205245504F5254202A2A2A8A
:104A54002A2A2A2A2A2A2A2A2A2A2A2A2A2A2A2AB2
:104A64007C0A0D00201B5B313B33346D7C2A2A2ADF
:104A74002A2A2A2A2A2A2A2A2A2A2A2A2A2A2A2A92
:104A84002A2A2A2A2A2A2A2A2A2A2A2A2A2A2A2A82
:104A94002A2A2A2A2A2A2A2A2A2A2A2A7C0A0D0087
:104AA4001B5B313B33366D0A0D42756666657220B9
:104AB4005B25645D20616C726561647920636C655B
:104AC4006172656421210A0D001B5B313B33366D35
:104AD4000A0D2A2A427566666572205B25645D2A82
:104AE4002A0A0D001B5B313B306D0A0D4275666668
:104AF4006572205B25645D203A20537461727420D2
:104B040041646472657373203D205B25705D200AE7
:104B14000D001B5B313B306D0A0D42756666657294
:104B2400205B25645D203A20456E642041646472F4
:104B34006573732020203D205B25705D200A0D00E5
:104B44001B5B313B306D0A0D427566666572205BF6
:104B540025645D203A20546F74616C2053697A6532
:104B6400202020203D205B25645D200A0D001B5B76
:104B7400313B306D0A0D4275666665725B25645D76
:104B8400203A204E756D626572206F662073746FD3
:104B94007261676520636861726163746572732012
:104BA40073696E6365206C617374203F3D205B25DF
:054BB400645D0A0D0024
:1050550030303000000000000000000000000000BB
:10506500000000000000000000000000000000003B
:10507500000000000000000000000000000000002B
:10508500000000000000000000000000000000001B
:10509500000000000000000000000000000000000B
:1050A50000000000000000000000000000000000FB
:1050B50000000000000000000000000000000000EB
:1050C50000000000000000000000000000000000DB
:1050D50000000000000000000000000000000000CB
:1050E50000000000000000000000000000000000BB
:1050F50000000000000000000000000000000000AB
:10510500000000000000000000000000000000009A
:10511500000000000000000000000000000000008A
:03200000022006B5
:03205F0002200359
:03200300022D6744
:102D6000438E0C9000002274B9C0E0744BC0E01296
:102D700035271581158174F4C0E0744BC0E012351D
:102D800027158115817436C0E0744CC0E0123527D8
:102D900015811581746AC0E0744CC0E012352715A6
:102DA00081158174ACC0E0744CC0E01235271581E8
:102DB000158174EEC0E0744CC0E012352715811502
:102DC000817430C0E0744DC0E01235271581158143
:102DD0007472C0E0744DC0E01235271581158174FE
:102DE000B4C0E0744DC0E01235271581158174B967
:102DF000C0E0744BC0E01235271581158174F6C010
:102E0000E0744DC0E012352715811581742CC0E0A7
:102E1000744EC0E0123527158115817467C0E074C7
:102E20004EC0E012352715811581742CC0E0744E18
:102E3000C0E012352715811581901C567402F0E40C
:102E4000A3F0901C5CE4F0A3F0901C5EF0A3F09063
:102E50001C60F0A3F0742CC0E0744EC0E012352763
:102E600015811581749BC0E0744EC0E012352715A2
:102E7000811581742CC0E0744EC0E0123527158195
:102E80001581122062AE82AF83901D92EEF0EFA307
:102E9000F08E828F8312366CAE82AF83901D94EEDB
:102EA000F0EFA3F0EE4F702474CFC0E0744EC0E09A
:102EB00012352715811581901D94E0FEA3E0FF7D5A
:102EC000008E828F838DF012329180717403C0E086
:102ED000744FC0E012352715811581901C60740174
:102EE000F0E4A3F0901D92E0FEA3E0FF8E828F83BA
:102EF00012366CAE82AF83901D98EEF0EFA3F0EE29
:102F00004F702B7431C0E0744FC0E012352715812B
:102F10001581901D94E0FEA3E0FF7D008E828F83DB
:102F20008DF0123291901C60E4F0A3F0800F746574
:102F3000C0E0744FC0E012352715811581901C60E8
:102F4000E0F5F0A3E045F07003022E82901D98E0BA
:102F5000F5F0A3E045F07003022E82742CC0E074FB
:102F60004EC0E0123527158115817493C0E0744F6F
:102F7000C0E012352715811581742CC0E0744EC055
:102F8000E012352715811581901D94E0FEA3E0FD28
:102F90007F007B007C00901D92E0F9A3E0FAC3EB78
:102FA00099EC64808AF063F08095F0501AEB2EF86B
:102FB000EC3DF98F02888289838AF074FF12350C08
:102FC0000BBB00D20C80CF901D94E0FEA3E0FF90DD
:102FD0001B8EEEF0EFA3F0901D98E0FEA3E0FF90B3
:102FE0001B90EEF0EFA3F0901D92E0FEA3E0FF90A7
:102FF0001DA2EEF0EFA3F0901D92E0FEA3E0FF9083
:103000001DA4EEF0EFA3F0901C58E4F0A3F0901C88
:103010005A7402F0E4A3F07E007F00C007C006747B
:103020002CC0E0744EC0E01235271581158174C79D
:10303000C0E0744FC0E012352715811581742CC093
:10304000E0744EC0E0123527158115811231B9ACFC
:10305000828C037D008B828D83C005C004C0031267
:1030600031C79000201231C774FBC0E0744FC0E03C
:103070007480C0E0123957158115811581D003D0B5
:1030800004D005D006D007BC61004068EC24854020
:1030900063901D92E0F9A3E0FAC3EE99EF64808A91
:1030A000F063F08095F0501F8E138F140EBE000158
:1030B0000F901D94E0F8A3E0FAE51328F582E514DB
:1030C0003AF583ECF080138B828D83C007C006C075
:1030D000041231C7D004D006D007901C5CE0240154
:1030E000F0A3E03400F0901C5EE02401F0A3E03493
:1030F00000F08031BC2B028017BC2D028012BC3F37
:1031000002800DBC3D028008BC4002800302301BDF
:10311000901C5EE02401F0A3E03400F0901DA07448
:1031200001F0E4A3F0901DA0E0FBA3E0FD901D9250
:10313000E0F9A3E0FA901B7AECF0901B7B7456F058
:10314000741CA3F0E4A3F0901B7E7458F0741CA3CD
:10315000F0E4A3F0901B81745AF0741CA3F0E4A374
:10316000F0901B84745CF0741CA3F0E4A3F0901B3B
:1031700087745EF0741CA3F0E4A3F0901B8AE9F05E
:10318000EAA3F08B828D83C007C006122382AC8233
:10319000AD83D006D007BC0105BD0002800302301C
:1031A0001B7404C0E07450C0E07480C0E012395752
:0931B000158115811581022E42E2
:104BB9001B5B313B33356D7C2A2A2A2A2A2A2A2A69
:104BC9002A2A2A2A2A2A2A2A2A2A2A2A2A2A2A2A3C
:104BD9002A2A2A2A2A2A2A2A2A2A2A2A2A2A2A2A2C
:104BE9002A2A2A2A2A2A2A7C0A0D007C2A2A2A2ADF
:104BF9002A2A2A2A2A2A2A2A201B5B313B33366D84
:104C09005553455220494E54455246414345201B70
:104C19005B313B33356D2A2A2A2A2A2A2A2A2A2A4B
:104C29002A2A2A2A2A2A2A2A2A7C0A0D007C2020B2
:104C390043686F6F73652061206368617261637493
:104C490065722066726F6D207468652062656C6F8D
:104C590077206F7074696F6E73202020207C0A0D95
:104C6900007C20201B5B313B33356D612D7A1B5B4A
:104C7900313B33356D20207C204368617261637458
:104C8900657220746F2073746F726520696E207469
:104C99006865206275666665722020202020207C68
:104CA9000A0D007C20201B5B313B33356D2B1B5BD0
:104CB900313B33356D202020207C20416C6C6F63A3
:104CC9006174652061206E6577206275666665721C
:104CD90020202020202020202020202020202020CB
:104CE900207C0A0D007C20201B5B313B33356D2D68
:104CF9001B5B313B33356D202020207C2044656CC3
:104D090065746520612062756666657220202020C1
:104D1900202020202020202020202020202020208A
:104D29002020207C0A0D007C20201B5B313B333581
:104D39006D3F1B5B313B33356D202020207C2044A7
:104D49006973706C61792074686520686561702089
:104D59007265706F7274202020202020202020206E
:104D690020202020207C0A0D007C20201B5B313B69
:104D790033356D3D1B5B313B33356D202020207C65
:104D890020446973706C617920636F6E74656E7409
:104D990073206F66204275666665725F3020202039
:104DA900202020202020207C0A0D007C20201B5B55
:104DB900313B33356D401B5B313B33356D20202052
:104DC900207C204672656520616C6C2074686520C2
:104DD90062756666657273202020202020202020BD
:104DE9002020202020202020207C0A0D007C2A2A37
:104DF9002A2A2A2A2A2A2A2A2A2A2A2A2A2A2A2A0A
:104E09002A2A2A2A2A2A2A2A2A2A2A2A2A2A2A2AF9
:104E19002A2A2A2A2A2A2A2A2A2A2A2A2A7C0A0DD4
:104E29000A0D001B5B313B33336D7C2A2A2A2A2A5F
:104E39002A2A2A2A2A2A2A2A2A2A2A2A2A2A2A2AC9
:104E49002A2A2A2A2A2A2A2A2A2A2A2A2A2A2A2AB9
:104E59002A2A2A2A2A2A2A2A2A2A7C0A0D007C2076
:104E69002043686F6F736520612073697A652066D6
:104E79006F7220627566666572203020616E6420EB
:104E890062756666657220312020202020207C0A08
:104E99000D007C2020427566666572203020616EA7
:104EA9006420427566666572203120416C6C6F63BF
:104EB9006174696F6E2050726F63657373696E6791
:104EC90020207C0A0D001B5B313B33336D496E7624
:104ED900616C6964204D616C6C6F633A204D616C43
:104EE9006C6F63206F6E206275666665723020662E
:104EF90061696C656421210A0D001B5B313B306DD2
:104F09004D616C6C6F63205375636365737366756C
:104F19006C203A204275666665723020616C6C6F50
:104F290063617465640A0D001B5B313B33316D4964
:104F39006E76616C6964204D616C6C6F633A204DCB
:104F4900616C6C6F63206F6E206275666665723185
:104F5900206661696C656421210A0D001B5B313B88
:104F6900306D4D616C6C6F6320537563636573734A
:104F790066756C203A204275666665723120616CEF
:104F89006C6F63617465640A0D007C20204275664C
:104F99006665723020616E642042756666657220AE
:104FA9003120416C6C6F636174696F6E2053756356
:104FB9007365737366756C2020207C0A0D007C2054
:104FC90020202020202020202020202046657463D6
:104FD90068696E6720436861726163746572202035
:104FE90020202020202020202020202020207C0A72
:104FF9000D001B5B313B306D0D0A001B5B313B30F3
:105009006D416C6C2062756666657220636C6561C2
:105019007265640D0A46656420696E2074686520AE
:1050290073697A6520666F7220627566666572209B
:10503900302066726F6D20737461727421210D0ABC
:015049000066
:10512500000000000000000000000000000000007A
:10513500000000000000000000000000000000006A
:10514500000000000000000000000000000000005A
:10515500000000000000000000000000000000004A
:1031B90010980280FBAE997F008E828F8322AF83A5
:1031C900E582901C62F0EFA3F03099FD901C62E05B
:1031D900FEA3E0FF8E99C2998E828F8322AF83E589
:1031E90082901C64F0EFA3F0901C64E0FEA3E0FF62
:1031F9007C007D00C007C006C005C0041231B9AA11
:10320900828A017B0089828B83C0021231C7D00276
:10321900D004D005D006D007BA0D028003BA0A132C
:10322900901C64E0F9A3E0FBEC29F582ED3BF58302
:10323900E4F022EC2EF582ED3FF583EAF00CBC00B8
:10324900B30D80B0AF83E582901C66F0EFA3F090D8
:103259001C66E0FEA3E0FF8E828F83E0FD60207C88
:10326900008D828C83C007C0061231C7D006D007F3
:103279000EBE00010F901C66EEF0EFA3F080D8900F
:103289001C66EEF0EFA3F022AFF0AE83E582901C4E
:1032990068F0EEA3F0EFA3F0901C68E0FDA3E0FE58
:1032A900A3E0901C68E0F5F0A3E045F070012290DE
:1032B9001C6DE4F0A3F0901C78E0FBA3E0FC901CEB
:1032C9006BEBF0ECA3F0901C6F7478F0741CA3F016
:1032D900901C6BE0FBA3E0FC4B60418B018C02C0AE
:1032E90003C0048D008E04C3E998EA9CD004D0037E
:1032F900502A901C6DEBF0ECA3F074022BFBE43C1C
:10330900FC901C6FEBF0ECA3F08B828C83E0FBA3A9
:10331900E0FC901C6BEBF0ECA3F080B4901C6BE02C
:10332900FEA3E0FF901C68E0FBA3E0FCA3E0EB2414
:10333900FEFBEC34FFFC74022BFAE43CFD8A828D1F
:1033490083EEF0EFA3F0901C6FE0F8A3E0F9888218
:103359008983EBF0ECA3F08B828C83E0F8A3E0F98E
:10336900EEB50033EFB5012F88828983A3A3E0FE70
:10337900A3E0FF8A828D83EEF0EFA3F08B828C832A
:10338900E0FEA3E0FF8E828F83E0FEA3E0FF8B8245
:103399008C83EEF0EFA3F0901C6DE0FEA3E0FF4EEE
:1033A900603C8E828F83E0F8A3E0F9E8B5032FE94A
:1033B900B5042B8B828C83E0FBA3E0FC8E828F8388
:1033C900EBF0ECA3F074022EFEE43FFF8A828D83BA
:0F33D900E0FAA3E0FD8E828F83EAF0EDA3F022ED
:06203500E478FFF6D8FD7F
:102013007938E94403601B7A0490505578C275A05F
:102023001CE493F2A308B8000205A0D9F4DAF27510
:02203300A0FF0C
:1033E800AFF0AE83E582901C71F0EEA3F0EFA3F08E
:1033F800901C74E4F0A3F0901C71E0FDA3E0FEA320
:10340800E0FF8D828E838FF0124383FCBC20028004
:1034180003BC09120DBD00010E901C71EDF0EEA366
:10342800F0EFA3F080DC901C71EDF0EEA3F0EFA3B9
:10343800F08D828E838FF0124383FC901C76E4BC5F
:103448002D0104F0BC2D028003BC2B0E901C71745E
:10345800012DF0E43EA3F0EFA3F0901C71E0FDA372
:10346800E0FEA3E0FF8D828E838FF0124383FCBCC5
:1034780030009200405FEC24C692004058901C74C3
:10348800E0FBA3E0FC901C80EBF0ECA3F090000ABA
:10349800C007C006C0051237D5AB82AC83D005D0B3
:1034A80006D0078D828E838FF0124383FAA3AD82F4
:1034B800AE83901C71EDF0EEA3F0EFA3F08A017AD1
:1034C80000E924D0F9EA34FFFA901C74E92BF0EAF9
:1034D8003CA3F08090901C71EDF0EEA3F0EFA3F008
:1034E800901C76E06011901C74E0FEA3E0FFC3E43A
:1034F8009EFEE49FFF8008901C74E0FEA3E0FF8E10
:10350800828F832220F71130F6138883A88220F552
:1035180009F6A8837583002280FEF280F5F022C0A8
:1035280017858117E51724FDF8868318868218E425
:1035380093A324DB600C2425600512361580F00265
:10354800362DD2D5E493A3C083C082B4731486F019
:10355800188683188682181243836054A31236157E
:1035680080F5B4630818E6181236158043B464175A
:10357800E630E74618E6F42401F608E6F43400F6E7
:10358800742D1236158033B4782D868318868218E8
:10359800E4123606E583123605E583123606E5821F
:1035A800123605E58212360630D505743012361506
:1035B800D082D083023537B475F6E6FA18E6F918E2
:1035C8007C107D271235F0FF7CE87D031235F0C4AE
:1035D800F5837C647D001235F04283E975F00A8436
:1035E800C445F0F582EF80A97B000BC3E99CF9EA9A
:1035F8009DFA50F61BE92CF9EA3DFAEB22C4540F68
:10360800700320D51FC2D52490D43440D4C083C0C1
:1036180082C0F0F582E8C0E01231C7D0E0F8D0F0FF
:10362800D082D08322D01722901C787400F07404C2
:10363800A3F090439FE493FE740193FF1EBEFF0125
:103648001FEE2400FEEF3404FF900400EEF0EFA319
:10365800F0901C78E0FEA3E0FF8E828F83A3A3E4A2
:10366800F0A3F022AF83E582901C7AF0EFA3F090EC
:103678001C78E0F5F0A3E045F07003123630901C9A
:103688007AE0FEA3E0FF4E600E74022EFCE43FFDDC
:10369800C3EC9EED9F500490000022901C7A7402A7
:1036A8002EF0E43FA3F0901C7AE0FEA3E0FFC3EE07
:1036B8009404EF94005009901C7A7404F0E4A3F089
:1036C800901C78E0FEA3E0FF901C7CEEF0EFA3F0E6
:1036D800901C7E7478F0741CA3F0901C7CE0FEA310
:1036E800E0FF4E70030237D18E828F83E0FCA3E0A7
:1036F800FD8C028D038E008F01EAC398FAEB99FBCB
:103708008A008B01901C7AE0F515A3E0F516C3E852
:103718009515E9951650030237AE74042515F8E49B
:103728003516F9C3EA98EB99404C8E028F03E515DC
:103738002AFAE5163BFB8A828B83ECF0EDA3F07442
:10374800022AFCE43BFD8E828F83A3A3E0F8A3E06A
:10375800F98C828D83E8F0E9A3F0901C7EE0FCA34D
:10376800E0FD8C828D83EAF0EBA3F08E828F83EAF2
:10377800F0EBA3F0801C901C7EE0FCA3E0FD8E82A1
:103788008F83A3A3E0FAA3E0FB8C828D83EAF0EB9E
:10379800A3F0901C7CE0FCA3E0FD74022CFCE43D4B
:1037A800FD8C828D832274022EFEE43FFF901C7EE6
:1037B800EEF0EFA3F08E828F83E0FEA3E0FF901C73
:1037C8007CEEF0EFA3F00236E290000022AA83AB71
:1037D800828BF0901C80E0A4F8A9F08AF0E0A4297C
:1037E800F98BF0A3E0A429F58388822222AF83E530
:1037F80082901C84F0EFA3F0901C84E0FEA3E0FF0D
:1038080030E709C3E49EFCE49FFD80048E048F0525
:10381800901C82E0FEA3E0FF30E709C3E49EFAE4CF
:103828009FFB80048E028F03901C86EAF0EBA3F0C6
:103838008C828D8312385DAE82AF83901C84E0A3A6
:10384800E030E70CC3E49EFCE49FFD8C828D83226C
:103858008E828F8322AF83E582901C88F0EFA3F0DD
:10386800901C8AE4F0901C88E0FEA3E0FF7D0090A5
:103878001C86E0FBA3E0FC235401FA7036EB2BFB1B
:10388800EC33FC901C86EBF0ECA3F0901C86E0FB7C
:10389800A3E0FCC3EE9BEF9C5011ECC313CB13CBFE
:1038A800FC901C86EBF0ECA3F080080D901C8AEDD0
:1038B800F080BC901C8AE0FF901C88E0FDA3E0FE2D
:1038C800901C86E0FBA3E0FCC3ED9BEE9C400B90B4
:1038D8001C88EDC39BF0EE9CA3F0901C86E0FDA332
:1038E800E0C313CD13CDFE901C86EDF0EEA3F08F50
:1038F800061FEE70C3901C88E0FEA3E08E82F5835D
:01390800229C
:10203B007800E84400600A790075A004E4F309D83D
:10204B00FC78C2E84418600C7919900400E4F0A302
:04205B00D8FCD9FADA
:10390900C0178581177E008E831231C7D01722AF69
:10391900F0AE83E582901C8CF0EEA3F0EFA3F0905B
:103929001C8CE0FDA3E0FEA3E0FF901C8BE0FC9063
:103939001CA0E4F0A3F0A3F0901CA3EDF0EEA3F01B
:10394900EFA3F0901CA6ECF0903909023A5DC0177C
:10395900E581F51724FBFF901CA0E4F0A3F0A3F088
:10396900E51724FBF8901CA3E6F008E6A3F008E6A7
:10397900A3F0901CA6EFF0903909123A5DD01722F6
:10398900E582901C9CF0E0FF901C92E0C0E0A3E06F
:10399900C0E0A3E0C0E01239A4800D901C90E0C003
:1039A900E0A3E0C0E08F8222158115811581901C6A
:1039B9009AE02401F0A3E03400F022E582901C9DF6
:1039C900F0E02430FF24C6500D74072FFF901C8FA0
:1039D900E060034307208F82023989E582901C9EAB
:1039E900F0E0FFC4540FF582C0071239C4D0075361
:1039F900070F8F820239C4E582901C9FF0901C95B5
:103A0900E0FCA3E0FDA3E0FEA3E0FF901C99E0FB2E
:103A1900901C9FE0FA79208B00E828F518EF2354D1
:103A2900014518FBEC2CFCED33FDEE33FEEF33FFC3
:103A3900C3EB9A4007EBC39AFB43040119E970D71A
:103A4900901C95ECF0EDA3F0EEA3F0EFA3F0901C21
:103A590099EBF022AF83E582901CA7F0EFA3F090D9
:103A69001CA7E0FEA3E0FF901C90EEF0EFA3F090FE
:103A79001CA0E0FDA3E0FEA3E0FF901C92EDF0EE98
:103A8900A3F0EFA3F0901C9AE4F0A3F0901CA3E03C
:103A9900FDA3E0FEA3E0FF8D828E838FF0124383A6
:103AA900FC901CA374012DF0E43EA3F0EFA3F0EC0D
:103AB900700302435FBC25028003024357901CA98F
:103AC900E4F0901CAAF0901CABF0901CACF0901C98
:103AD900ADF0901CAEF0901CAFF0901CB0F0901CB3
:103AE900B2F0901CB3F0A3F0901CB514F0A3F090C1
:103AF9001CA3E0FDA3E0FEA3E0FF8D828E838FF07F
:103B0900124383FBA3AD82AE83901CA3EDF0EEA319
:103B1900F0EFA3F0901CB9EBF0BB25088B821239AA
:103B290089023A95BB30005003023BF6EB24C6509C
:103B390003023BF6901CB5E0F521A3E0F52274FFE2
:103B4900B52163B52260C005C006C007901CB3E06B
:103B5900FAA3E0FF901C80EAF0EFA3F090000AC0FE
:103B690005C0031237D5AE82AF83D003D0058B02CF
:103B79007D00EA2EFEED3FFFEE24D0FEEF34FFFF7D
:103B8900901CB3EEF0EFA3F0D007D006D005901C3F
:103B9900B3E0F5F0A3E045F06003023B03901CAAF3
:103BA9007401F0023B03C005C006C007901C80E504
:103BB90021F0E522A3F090000AC006C005C0031257
:103BC90037D5AA82AF83D003D005D0067E00EB2A71
:103BD900FAEE3FFFEA24D0FAEF34FFFF901CB5EA72
:103BE900F0EFA3F0D007D006D005023B03901CB933
:103BF900E0FBBB2E2FC005C006C007901CB5E0FA3C
:103C0900A3E0FFBAFF05BFFF028009D007D006D0A5
:103C190005023B03D007D006D005901CB5E4F0A3FC
:103C2900F0023B03BB61004014EB2485400F901C5C
:103C3900B974DF5BF0901C8F7401F08005901C8FC4
:103C4900E4F0901CB9E0FBBB20028075BB2B02801D
:103C590067BB2D028059BB4202806FBB4302807C47
:103C6900BB4403023EEDBB4603023F13BB480302BC
:103C79003B03BB4903023EEDBB4A03023B03BB4C7A
:103C8900028050BB4F03023EFBBB5003023E5BBBAD
:103C990053028077BB5403023B03BB5503023F0326
:103CA900BB5803023F0BBB5A03023B03023F1B9065
:103CB9001CA97401F0023B03901CAB7401F0023B98
:103CC90003901CAC7401F0023B03901CAE7401F02C
:103CD900023B03901CAF7401F0023B03901CAEE061
:103CE900600E901CA6E014F9F0901CB9E7F0800F63
:103CF900901CA6E024FEFFF08F01901CB9E7F0901C
:103D09001CB9E0F582123989023F2A901CA6E024E9
:103D1900FDFFF08F018705098706098707191990A3
:103D29001C95EDF0EEA3F0EFA3F08D828E838FF05A
:103D390012436B858221858322901CB5E0FAA3E0AA
:103D4900FDBAFF0DBDFF0A901CB5E521F0E522A3E0
:103D5900F0901CA9E0704B901CB3E0FAA3E0FDC3FE
:103D6900E5219AE5229D503A901CB3EAC39521F0CA
:103D7900ED9522A3F0901CB3E0FAA3E0FD8A068D2D
:103D8900071ABAFF011DEE4F6010758220C005C0E9
:103D990002123989D002D00580E3901CB3EAF0ED14
:103DA900A3F0901CB5E0F524A3E0F525901C95E05F
:103DB900FAA3E0FDA3E0FF8A828D838FF01243838B
:103DC900F523603CC3E4952474808525F063F08075
:103DD90095F0502C152474FFB524021525852382EE
:103DE900123989901C95E0FAA3E0FDA3E0FF0ABA15
:103DF90000010D901C95EAF0EDA3F0EFA3F080AC63
:103E0900901CA9E07003023F2A901CB3E0FEA3E0D6
:103E1900FFC3E5219EE5229F4003023F2A901CB380
:103E2900EEC39521F0EF9522A3F0901CB3E0FEA319
:103E3900E0FF8E028F051EBEFF011FEA4D700302CF
:103E49003F22758220C007C006123989D006D007E3
:103E590080E0901CA6E024FDFDF08D0187260987EE
:103E6900270987281919901C95E526F0E527A3F05D
:103E7900E528A3F0901C97E0FDBD80004008901C48
:103E8900B97443F08020BD60004008901CB974509B
:103E9900F08013BD40004008901CB97449F08006B9
:103EA900901CB97458F0901CB9E0FDF582C0051258
:103EB900398975823A123989758230123989758240
:103EC90078123989D005BD4902800EBD500280099A
:103ED900901C96E0F5821239E4901C95E0F5821267
:103EE90039E4803D901CAD7401F0901CB2740AF065
:103EF900802F901CB27408F08027901CB2740AF0CD
:103F0900801F901CB27410F08017901CB07401F0DF
:103F1900800F8B821239898008901CB3EEF0EFA3D1
:103F2900F0901CB0E06071901CA6E024FCFFF08FBB
:103F39000187030987050987060987071919199050
:103F49001C95EBF0EDA3F0EEA3F0EFA3F0901C9518
:103F5900744AF07450A3F07480A3F0901C95E0F5B6
:103F690026A3E0F527A3E0F52874012526FAE43510
:103F790027FBAF28901C95EAF0EBA3F0EFA3F0859F
:103F890026828527838528F0124383FF7003023A2E
:103F9900958F8212398980C3901CB2E07003023A6E
:103FA90095901CAEE06047901CA6E014F9F08707D5
:103FB9007E007D007B00901C95EFF0EEA3F0EDA351
:103FC900F0EBA3F0901CADE0600302406D901C95EE
:103FD900E0FBA3E0A3E0A3E07D007E007F00901C4E
:103FE90095EBF0EDA3F0EEA3F0EFA3F08076901C33
:103FF900AFE06028901CA6E024FCFFF08F01870346
:10400900098705098706098707191919901C95EB6E
:10401900F0EDA3F0EEA3F0EFA3F08048901CA6E02A
:1040290024FEFFF08F01870609870719EF3395E012
:10403900FDFB901C95EEF0EFA3F0EDA3F0EBA3F0E0
:10404900901CADE0701E901C95E0FBA3E0FDA3E081
:10405900A3E07E007F00901C95EBF0EDA3F0EEA3AA
:10406900F0EFA3F0901CADE06041901C95E0FBA33C
:10407900E0FDA3E0FEA3E0FF30E72B901C95E0FBF9
:10408900A3E0FDA3E0FEA3E0FFC3E49BFBE49DFDE9
:10409900E49EFEE49FFF901C95EBF0EDA3F0EEA3E8
:1040A900F0EFA3F08005901CADE4F0901CB1740111
:1040B900F0901CB2E0F5247529BF752A1CE4F5219E
:1040C900F522901C99E4F0852482123A00901CB1E3
:1040D900E07033901C99E0C454F0F526901C99E0E7
:1040E900C4540F4526F526852982852A83E0FFE5F4
:1040F900264207852982852A83EFF0152974FFB5A1
:104109002902152A800C901C99E0FF852982852AAD
:1041190083F00521E4B521020522901CB1E0B40128
:1041290000E433F0901C95E0FAA3E0FBA3E0FEA3C2
:10413900E0FFEA4B4E4F708A901CC0E529F0E52A52
:10414900A3F0901CB7E521F0E522A3F0901CB3E0A1
:10415900F5F0A3E045F07009901CB37401F0E4A3F5
:10416900F0901CAAE0FFE07047901CA9E07041851F
:10417900212985222A901CB3E0FAA3E0FBC007AFEE
:10418900290F8F067F00C3EE9AEF9BD00750197550
:104199008220C007C003C002123989D002D003D0DF
:1041A900071ABAFF011B80D5901CB3EAF0EBA3F004
:1041B900901CADE0602075822DC007123989D007A7
:1041C900901CB3E024FFFDA3E034FFFE901CB3ED87
:1041D900F0EEA3F08056901CB7E0F5F0A3E045F0AF
:1041E900604A901CABE0602075822BC007123989A8
:1041F900D007901CB3E024FFFDA3E034FFFE901C20
:10420900B3EDF0EEA3F08024901CACE0601E758243
:1042190020C007123989D007901CB3E024FFFDA301
:10422900E034FFFE901CB3EDF0EEA3F0901CA9E082
:104239007048901CB7E0F529A3E0F52A901CB3E07B
:10424900FAA3E0FBC0078A068B071ABAFF011BC352
:10425900E5299EE52A9FD0075053EF60067D307E01
:104269000080047D207E008D82C007C003C0021239
:104279003989D002D003D00780CA901CB3E0FEA3CD
:10428900E0FF901CB7E0F529A3E0F52AC3E5299ED4
:10429900E52A9F500F901CB3EEC39529F0EF952A9C
:1042A900A3F08011901CB3E4F0A3F08008901CB334
:1042B900EAF0EBA3F0901CC0E0FEA3E0FF901CB76E
:1042C900E0F529A3E0F52AAA29AD2A152974FFB535
:1042D9002902152AEA4D6045901CB1E0B40100E4B9
:1042E90033F0901CB1E070140EBE00010F8E828F66
:1042F90083E0C4540FFD901C99F0800E8E828F8349
:10430900E0FD53050F901C99EDF0901C99E0F582A2
:10431900C007C0061239C4D006D00780AA901CA9CC
:10432900E07003023A95901CB3E0FEA3E0FF8E0310
:104339008F051EBEFF011FEB4D7003023A95758272
:1043490020C007C006123989D006D00780E08C82C8
:10435900123989023A95901C9AE0FEA3E08E82F503
:024369008322AD
:0B504A003C4E4F20464C4F41543E00AE
:10436B00AA82AB831243836003A380F8C3E5829ACE
:08437B00F582E5839BF5832226
:0D20060075812A122D60E58260030220031F
:1043830020F71430F6148883A88220F507E6A88363
:0C43930075830022E280F7E49322E02210
:00000001FF
