:024478007017BB
:10206200747AC0E07444C0E01236001581158174A0
:10207200B5C0E07444C0E012360015811581747A4F
:10208200C0E07444C0E012360015811581901B70C7
:102092007430F0901B71F0901B72F0901B73F090F3
:1020A2001B74E4F074E9C0E07444C0E01236001519
:1020B2008115817426C0E07445C0E0123600158196
:1020C20015817461C0E07445C0E0123600158115B7
:1020D20081901B701232BF901B70E0FFBF30004036
:1020E20032EF24C6402D901B71E0FFBF3000402329
:1020F200EF24C6401E901B72E0FFBF30004014EF79
:1021020024C6400F901B73E0FFBF30004005EF2450
:10211200C6502D749CC0E07445C0E07480C0E012CB
:102122003A3015811581158174DFC0E07445C0E035
:102132007480C0E0123A301581158115810220A603
:10214200901B7075F0001234C1AE82AF83C3EE945F
:1021520040EF64809480400E74E09E74958FF0632B
:10216200F08095F050127417C0E07446C0E0123649
:1021720000158115810220A6901C857420F0E4A32D
:10218200F08E828F83C007C0061238CEE582858327
:10219200F0D006D00745F060127458C0E07446C013
:1021A200E0123600158115810220A68E828F8322CD
:10447A001B5B313B33336D7C2A2A2A2A2A2A2A2AB1
:10448A002A2A2A2A2A2A2A2A2A2A2A2A2A2A2A2A82
:10449A002A2A2A2A2A2A2A2A2A2A2A2A2A2A2A2A72
:1044AA002A2A2A2A2A2A2A7C0A0D007C20204275D6
:1044BA0066666572203020616E64204275666665A4
:1044CA0072203120416C6C6F636174696F6E205089
:1044DA00726F63657373696E6720207C0A0D001B17
:1044EA005B313B33366D0A0D7C2A2A2A2A2A2A2A6C
:1044FA002A2A2A2A2A2A2A2A2A2A2A2A2A2A2A2A12
:10450A002A2A2A2A2A2A2A2A2A2A2A2A2A2A2A2A01
:10451A002A2A2A2A2A2A2A2A7C0A0D001B5B313BCC
:10452A0033366D7C20202020202020456E74657251
:10453A00207468652073697A6520666F72206275D7
:10454A00666665723020262062756666657231205D
:10455A002020207C0A0D001B5B313B33366D7C2A00
:10456A002A2A2A2A2A2A2A2A2A2A2A2A2A2A2A2AA1
:10457A002A2A2A2A2A2A2A2A2A2A2A2A2A2A2A2A91
:10458A002A2A2A2A2A2A2A2A2A2A2A2A2A2A7C0A4F
:10459A000D001B5B303B33316D0A496E76616C69E5
:1045AA006420696E7075742E20506C656173652085
:1045BA00656E74657220666F7572206469676974C6
:1045CA0073206265747765656E203020616E6420A1
:1045DA00392E0A0D001B5B303B33316D56616C6915
:1045EA006420496E707574204578616D706C6573CE
:1045FA00203A20303036342C393837362C303030A7
:10460A00312C303039362C206574630A001B5B303C
:10461A003B33316D0A496E76616C696420696E704C
:10462A0075742E496E7075742064617461207368A4
:10463A006F756C64206265206265747765656E20AB
:10464A00363420616E6420353630302E0A001B5B0A
:10465A00303B33316D0A496E76616C696420696E4C
:10466A007075742E496E707574206E6F742064694B
:10467A0076697369626C652062792033322E0A008A
:1021B200E582901B77F0E0FF90FFFF75F000EF02E1
:1021C20035E5901D97E0FEA3E0FD7F007B007C00DB
:1021D200901DA5E0F9A3E0FAC3EB99EC64808AF0C4
:1021E20063F08095F0501AEB2EF8EC3DF98F0288DF
:1021F2008289838AF074301235E50BBB00D20C80E1
:10220200CF22AF83E582901B78F0EFA3F0901B7A88
:102212007401F0901B8FE0FEA3E0FD7F00C007C0B9
:1022220006C005748AC0E07446C0E07480C0E01243
:102232003A30158115811581D005D006D007901B43
:1022420078E0FBA3E0FCE4BB1004BC000104F50A47
:10225200E4BB2004BC000104F9E4F508F509C0015F
:10226200901D93E0F8A3E0F9C3E50898E5096480BE
:1022720089F063F08095F0D001400122901B7AE052
:102282006046C001E5082EF8E5093DF98F02C00756
:10229200C006C005C004C003C001C000C001C00226
:1022A2007494C0E07446C0E07480C0E0123A30E535
:1022B2008124FAF581D001D003D004D005D006D014
:1022C20007901B7AE4F0D001C001E5082EF8E50979
:1022D2003DF98F02888289838AF012445CF50B747F
:1022E20030B50B028004D001802CD001C007C0069B
:1022F200C005C004C003C00174A0C0E07446C0E0C1
:1023020012360015811581D001D003D004D005D03A
:1023120006D007022397E50A6031A80B7A00C007AE
:10232200C006C005C004C003C001C000C00274AB37
:10233200C0E07446C0E0123600E58124FCF581D08D
:1023420001D003D004D005D006D007E96047C00110
:10235200E5082EF8E5093DF98F02888289838AF023
:1023620012445CF87A00C007C006C005C004C0036E
:10237200C001C000C00274B6C0E07446C0E01236AC
:1023820000E58124FCF581D001D003D004D005D032
:1023920006D007D00174012508F8E43509FA901C2B
:1023A20085EBF0ECA3F088828A83C007C006C005E3
:1023B200C004C003C0011238CEE5828583F0D0018B
:1023C200D003D004D005D006D00745F0702DC00749
:1023D200C006C005C004C003C001748AC0E07446D0
:1023E200C0E012360015811581D001D003D004D08F
:1023F20005D006D007901B7A7401F00508E4B508F1
:10240200020509022260AF83E582901B8DF0EFA3E3
:10241200F0901B8BE0FEA3E0FF901D93EEF0EFA384
:10242200F0901B8DE0F5F0A3E045F07003022E6EF4
:10243200901B7BE0FFBF2B02801BBF2D030226CA2D
:10244200BF3D03022B9BBF3F03022BB9BF400302D8
:102452002A64022E6874C1C0E07446C0E0123600DD
:102462001581158174FCC0E07446C0E01236001577
:1024720081158174C1C0E07446C0E0123600158136
:102482001581901B7CE0FDA3E0FEA3E0FF8D828E10
:10249200838FF012445CFBA312445CFC0BBB000173
:1024A2000C8D828E838FF0EB1235E5A3EC1235E5AD
:1024B200C007C006C0057437C0E07447C0E01236DA
:1024C20000158115817472C0E07447C0E0123600B5
:1024D200158115817437C0E07447C0E012360015CB
:1024E200811581901CC51232BF901CC575F0001277
:1024F20034C1AB82AC83D005D006D007C3EB941EA7
:10250200EC64809480400E742C9B74818CF063F098
:102512008095F0501274ADC0E07447C0E0123600EE
:1025220015811581022E6E8B828C83C007C006C076
:1025320005C004C003123745A982AA83D003D00480
:10254200D005D006D007890C8A0DE50C450D701216
:1025520074F9C0E07447C0E012360015811581029B
:102562002E6E8D828E838FF012445CF8A312445C2F
:10257200FA18B8FF011AE828F8EA33FAE824A5F5B0
:1025820082EA341DF583EBF0ECA3F0901B82E0FAB3
:10259200A3E0FBA3E0FC8A828B838CF012445CF8FC
:1025A200A312445CF908B80001098A828B838CF07B
:1025B200E81235E5A3E91235E58D828E838FF0129C
:1025C200445CF8A312445CF918B8FF0119E828F832
:1025D200E933F9E8248FF582E9341BF583E50CF041
:1025E200E50DA3F08D828E838FF012445CF8A31266
:1025F200445CF918B8FF0119E828F8E933F9E8242E
:10260200CBF582E9341CF583E4F0A3F08D828E834E
:102612008FF012445CF8A312445CF918B8FF011958
:10262200C007C006C005C004C003C002C000C0018C
:10263200742EC0E07448C0E0123600E58124FCF537
:1026420081D002D003D004D005D006D0078D828E6F
:10265200838FF012445CFDA312445CFEC004C003ED
:10266200C002C005C0067465C0E07448C0E01236FE
:1026720000E58124FCF581D002D003D004901B7FB9
:10268200E0FDA3E0FEA3E0FF8D828E838FF0124473
:102692005CFDA312445CFE8A828B838CF012445C44
:1026A200FAA312445CFBC005C006C002C00374A8B2
:1026B200C0E07448C0E0123600E58124FAF5817565
:1026C20082101221B2022E6E74C1C0E07446C0E0C4
:1026D2001236001581158174ECC0E07448C0E01216
:1026E20036001581158174C1C0E07446C0E012360F
:1026F2000015811581901CC9E4F0A3F07437C0E085
:102702007447C0E0123600158115817427C0E07449
:1027120049C0E012360015811581901B7CE0FDA3B3
:10272200E0FEA3E0FF8D828E838FF012445CFBA358
:1027320012445CFCC007C006C005C003C00474623A
:10274200C0E07449C0E0123600E58124FCF58174D2
:102752009EC0E07449C0E0123600158115817437BD
:10276200C0E07447C0E012360015811581D005D053
:1027720006D007C007C006C005123292AB828B0298
:102782007C008A828C83C004C003C0021232A0D0B3
:1027920002D003D004D005D006D007BB30004005DC
:1027A200EB24C6501DC007C006C00574D9C0E07432
:1027B20049C0E012360015811581D005D006D00738
:1027C2008050EA24D0FAEC34FFFC901CC9E0F9A353
:1027D200E0FB901C83E9F0EBA3F090000AC007C075
:1027E20006C005C004C0021238AEE5828583F0D06F
:1027F20002D004901CC92AF0EC35F0A3F0123292F8
:10280200AB82AC83D005D006D007BB0D0280030299
:102812002775901CC9E0FBA3E0FC4B7012740CC03E
:10282200E0744AC0E012360015811581022E6EEB6B
:102832002BF9EC33FAE924CBF582EA341CF583E078
:10284200F9A3E0FAB9011BBA0018C003C004743F2F
:10285200C0E0744AC0E0123600E58124FCF5810232
:102862002E6E8D828E838FF012445CF9A312445C2B
:10287200FAC3EB99EC64808AF063F08095F0401221
:10288200747FC0E0744AC0E01236001581158102DF
:102892002E6EC005C006C007C007C006C005C00333
:1028A200C00474B4C0E0744AC0E0123600E581246A
:1028B200FCF58174E0C0E0744AC0E07480C0E012AC
:1028C2003A30158115811581901CC9E0FBA3E0FC0B
:1028D200EB2BFBEC33FCEB248FF582EC341BF58302
:1028E200E0FBA3E0FC7A008B828C838AF012336ACD
:1028F200D005D006D007901CC9E0FBA3E0FCEB2B6F
:10290200FBEC33FCEB248FF582EC341BF583E4F013
:10291200A3F0901CC9E0FBA3E0FCEB2BFBEC33FC27
:10292200EB24CBF582EC341CF5837401F0E4A3F0C4
:10293200901B7FE0FAA3E0FBA3E0FC8A828B838CEE
:10294200F012445CF8A312445CF908B80001098A49
:10295200828B838CF0E81235E5A3E91235E5901CF1
:10296200C9E0F8A3E0F9E828FEE933FFEE248FF589
:1029720082EF341BF583E0FEA3E04ED007D006D0F1
:10298200057031C007C006C005C004C003C002C044
:1029920000C0017406C0E0744BC0E07480C0E01255
:1029A2003A30E58124FBF581D002D003D004D00572
:1029B200D006D007C007C006C005C004C003C002CD
:1029C200901CC9E0C0E0A3E0C0E07424C0E0744BF6
:1029D200C0E0123600E58124FCF581D002D003D09C
:1029E20004D005D006D0078D828E838FF012445C0E
:1029F200FDA312445CFEC004C003C002C005C006B1
:102A02007453C0E0744BC0E0123600E58124FCF53B
:102A120081D002D003D0048A828B838CF012445C72
:102A2200FAA312445CFB901B82E0FDA3E0FEA3E04C
:102A3200FF8D828E838FF012445CFDA312445CFEF4
:102A4200C002C003C005C006748FC0E0744BC0E072
:102A5200123600E58124FAF5817582201221B20234
:102A62002E6E74C1C0E07446C0E0123600158115A6
:102A72008174D4C0E0744BC0E01236001581158118
:102A820074C1C0E07446C0E0123600158115819011
:102A92001B7CE0F50EA3E0F50FA3E0F5107B007CB4
:102AA20000850E82850F838510F012445CF9A31213
:102AB200445CFAC3EB99EC64808AF063F08095F091
:102AC2004003022B54EB2BF9EC33FAE9248FF9EA99
:102AD200341BFA89828A83E0F8A3E0FF88118F12FF
:102AE200751300E84F6046AD11AE12AF138D828EA2
:102AF200838FF0C004C003C002C00112336AD00148
:102B0200D002D003D00489828A83E4F0A3F0C00407
:102B1200C003C003C004740FC0E0744CC0E012369E
:102B220000E58124FCF581D003D004801DC004C0DF
:102B320003C003C0047428C0E0744CC0E012360025
:102B4200E58124FCF581D003D0040BBB00010C020B
:102B52002AA3850E82850F838510F0E41235E5A342
:102B62001235E5901B82E0FDA3E0FEA3E0FF8D821B
:102B72008E838FF0E41235E5A31235E5901B7FE0DA
:102B8200FDA3E0FEA3E0FF8D828E838FF0E4123579
:102B9200E5A31235E590000122744CC0E0744CC0EC
:102BA200E012360015811581900010122204758200
:102BB200401221B2022E6E74C1C0E07446C0E0120F
:102BC2003600158115817489C0E0744CC0E012365C
:102BD200001581158174C1C0E07446C0E012360050
:102BE2001581158174C4C0E0744CC0E01236001522
:102BF2008115817402C0E0744DC0E0123600158167
:102C02001581743EC0E0744DC0E012360015811586
:102C120081901B85E0FDA3E0FEA3E0FF901B88E00E
:102C2200F514A3E0F515A3E0F516901B7CE0F51171
:102C3200A3E0F512A3E0F5137800790085118285EF
:102C420012838513F012445CFBA312445CFCC3E8BC
:102C52009BE964808CF063F08095F04003022E2E95
:102C6200E828F50EE933F50FE50E248FF50CE50F94
:102C7200341BF50D850C82850D83E0FBA3E04B70C0
:102C82002CC007C006C005C001C000C000C001744E
:102C92007AC0E0744DC0E0123600E58124FCF58173
:102CA200D000D001D005D006D007022E26C005C024
:102CB20006C007C007C006C005C001C000C000C0F2
:102CC2000174A3C0E0744DC0E07480C0E0123A30D9
:102CD200E58124FBF581D000D001850C82850D832E
:102CE200E0FBA3E0FC7A00C001C000C003C004C046
:102CF20002C000C00174BEC0E0744DC0E07480C068
:102D0200E0123A30E58124F8F581D000D001D005F7
:102D1200D006D007850C82850D83E0FBA3E0FCE59D
:102D22000E24A5FAE50F341DFF8A828F83E0FDA3EE
:102D3200E0FEED2BFBEE3CFC7E00C007C006C005AA
:102D4200C002C001C000C003C004C006C000C00170
:102D520074ECC0E0744DC0E07480C0E0123A30E51B
:102D62008124F8F581D000D001D002D005D006D060
:102D7200078A828F83E0FAA3E0FFC007C006C0057E
:102D8200C001C000C002C007C000C001741AC0E088
:102D9200744EC0E07480C0E0123A30E58124F9F547
:102DA20081D000D001D005D006D007D007D006D000
:102DB20005E849706F8D828E838FF012445CFBA30D
:102DC20012445CFCC007C006C005C001C000C003BD
:102DD200C004C000C0017448C0E0744EC0E01236A6
:102DE20000E58124FAF581D000D001851482851591
:102DF200838516F012445CFBA312445CFCC001C044
:102E020000C003C004C000C0017448C0E0744EC0DA
:102E1200E0123600E58124FAF581D000D001D00518
:102E2200D006D00708B8000109022C3E8D828E839D
:102E32008FF0E41235E5A31235E5851482851583FA
:102E42008516F01235E5A31235E51221C4748FC040
:102E5200E0744EC0E0123600158115817582501261
:102E620021B2900002227582601221B290000022EB
:10468A001B5B313B33346D0A0D001B5B313B33340A
:10469A006D2570203A001B5B313B33346D2058582E
:1046AA00001B5B313B33346D202578001B5B313BAB
:1046BA0033346D202564001B5B313B33336D7C2A18
:1046CA002A2A2A2A2A2A2A2A2A2A2A2A2A2A2A2A40
:1046DA002A2A2A2A2A2A2A2A2A2A2A2A2A2A2A2A30
:1046EA002A2A2A2A2A2A2A2A2A2A2A2A2A2A7C0AEE
:1046FA000D001B5B313B33336D7C2A2A2A2A2A2A76
:10470A002A2A2A2A2A2A2050726F63657373696ECD
:10471A0067205B2B5D202A2A2A2A2A2A2A2A2A2A61
:10472A002A2A2A2A2A2A2A2A2A7C0A0D001B5B31CB
:10473A003B33366D7C2A2A2A2A2A2A2A2A2A2A2A14
:10474A002A2A2A2A2A2A2A2A2A2A2A2A2A2A2A2ABF
:10475A002A2A2A2A2A2A2A2A2A2A2A2A2A2A2A2AAF
:10476A002A2A2A2A7C0A0D001B5B313B33366D7CD0
:10477A002A2A2A2A2A2A2A2A2A20456E7465722077
:10478A0073697A6520666F72206E65772062756636
:10479A006572202A2A2A2A2A2A2A2A2A2A2A2A7CA4
:1047AA000A0D001B5B313B33316D496E76616C69D2
:1047BA006420496E707574203A20546865206275C9
:1047CA00666665722073697A652073686F756C64B2
:1047DA0020626520696E207468652072616E676563
:1047EA00205B33302C203330305D0A0D0A0D001B5C
:1047FA005B313B33316D496E76616C696420696E59
:10480A00707574203A204661696C656420746F2063
:10481A00616C6C6F63617465206275666665720AA5
:10482A000D0A0D001B5B313B306D4E6577206275BA
:10483A006666657220616C6C6F636174656420736F
:10484A0075636365737366756C6C79203A2042757B
:10485A00666665725B25645D0A0D001B5B313B3041
:10486A006D546F74616C204E756D626572206F664F
:10487A00204275666665727320696E636C75646939
:10488A006E672062756666657230202620627566DC
:10489A0066657231203D205B25645D0A0D001B5B55
:1048AA00313B306D546F74616C2046696C6C656481
:1048BA002042756666657273203D205B25645D2023
:1048CA000D0A546F74616C20456D707479204275BD
:1048DA006666657273203D205B25645D200A0D0AB9
:1048EA000D001B5B313B33336D7C2A2A2A2A2A2A84
:1048FA002A2A2A2A2A2A2050726F63657373696EDC
:10490A0067205B2D5D202A2A2A2A2A2A2A2A2A2A6D
:10491A002A2A2A2A2A2A2A2A2A7C0A0D001B5B31D9
:10492A003B33366D7C2A2A2A2A2A2A2A2A2A204511
:10493A006E7465722062756666657220746F206295
:10494A00652064656C65746564202A2A2A2A2A2AE5
:10495A002A2A2A2A7C0A0D001B5B313B33366D7CDE
:10496A002A2A2A2A2A2A2A2A2A2043757272656E34
:10497A0074204E6F206F6620627566666572733AA0
:10498A005B25645D202A2A2A2A2A2A2A2A2A2A2AEE
:10499A007C0A0D001B5B313B33366D7C2A2A2A2A9E
:1049AA002A2A2A2A2A204E6F7465203A20496E64E0
:1049BA006578205374617274732077697468203043
:1049CA00202A2A2A2A2A2A2A2A2A2A7C0A0D001B6B
:1049DA005B313B33316D496E76616C696420696E77
:1049EA00707574203A20696E76616C696420646916
:1049FA006769747320656E7465726564200A0D0AAE
:104A0A000D001B5B313B33316D496E76616C696415
:104A1A0020696E707574203A206275666665722028
:104A2A006E756D6265722063616E277420626520FF
:104A3A00300A0D0A001B5B313B33316D496E7661DA
:104A4A006C696420696E707574203A2062756666B6
:104A5A0065725B25645D2077617320616C726561A4
:104A6A00647920636C6561726564206561726C6942
:104A7A0065720A0D001B5B313B33316D496E7661FD
:104A8A006C696420696E707574203A206275666676
:104A9A006572206E756D62657220646F65736E272C
:104AAA00742065786973740A0D001B5B313B306DA5
:104ABA00427566666572205B25645D207265717554
:104ACA00657374656420746F2062652064656C6523
:104ADA007465640A0D00506572666F726D696E675F
:104AEA00206275666665722066726565696E672002
:104AFA006F7065726174696F6E0D0A002A2A2A4204
:104B0A007566666572205B25645D2069732066722E
:104B1A006565642A2A2A2A0A0D001B5B313B306D1F
:104B2A004275666665725B25645D2064652D616CFD
:104B3A006C6F636174656420737563636573736610
:104B4A00756C6C7920200A0D001B5B313B306D546B
:104B5A006F74616C204E756D626572206F662042BB
:104B6A007566666572732061667465722064656134
:104B7A006C6C6F636174696F6E203D205B25645DA8
:104B8A000A0D0A0D001B5B313B306D546F74616C6A
:104B9A002046696C6C65642042756666657273208E
:104BAA003D205B25645D200D0A546F74616C2045BD
:104BBA006D707479204275666665727320203D2097
:104BCA005B25645D200A0D0A0D001B5B313B333304
:104BDA006D7C2A2A2A2A2A2A2A2A2A2A2A2A20507A
:104BEA00726F63657373696E67205B405D202A2A62
:104BFA002A2A2A2A2A2A2A2A2A2A2A2A2A2A2A2A0B
:104C0A002A7C0A0D001B5B313B306D427566666576
:104C1A00725B25645D2066726565640A0D001B5B24
:104C2A00313B306D4275666665725B25645D20773F
:104C3A00617320616C7265616479204E554C4C0A2F
:104C4A000D001B5B313B33336D0D0A7C2A2A2A2A5D
:104C5A002A2A2A2A2A2A2A2A2050726F63657373FB
:104C6A00696E67205B3D5D202A2A2A2A2A2A2A2A77
:104C7A002A2A2A2A2A2A2A2A2A2A2A7C0A0D001BAE
:104C8A005B313B33336D7C2A2A2A2A2A2A2A2A2A8A
:104C9A002A2A2A2050726F63657373696E67205BD4
:104CAA003F5D202A2A2A2A2A2A2A2A2A2A2A2A2A1C
:104CBA002A2A2A2A2A2A7C0A0D00201B5B313B3326
:104CCA00346D0D0A7C2A2A2A2A2A2A2A2A2A2A2AD8
:104CDA002A2A2A2A2A2A2A2A2A2A2A2A2A2A2A2A2A
:104CEA002A2A2A2A2A2A2A2A2A2A2A2A2A2A2A2A1A
:104CFA002A2A2A2A7C0A0D00201B5B313B33346D99
:104D0A007C2A2A2A2A2A2A2A2A2A2A2A2A2A2A2AA7
:104D1A002048454150205245504F5254202A2A2AB1
:104D2A002A2A2A2A2A2A2A2A2A2A2A2A2A2A2A2AD9
:104D3A007C0A0D00201B5B313B33346D7C2A2A2A06
:104D4A002A2A2A2A2A2A2A2A2A2A2A2A2A2A2A2AB9
:104D5A002A2A2A2A2A2A2A2A2A2A2A2A2A2A2A2AA9
:104D6A002A2A2A2A2A2A2A2A2A2A2A2A7C0A0D00AE
:104D7A001B5B313B33316D0A0D42756666657220E5
:104D8A005B25645D20616C726561647920636C6582
:104D9A006172656421210A0D001B5B313B33366D5C
:104DAA000A0D2A2A427566666572205B25645D2AA9
:104DBA002A0A0D001B5B313B306D0A0D427566668F
:104DCA006572205B25645D203A20537461727420F9
:104DDA0041646472657373203D205B25705D200A0F
:104DEA000D001B5B313B306D0A0D427566666572BC
:104DFA00205B25645D203A20456E6420416464721C
:104E0A006573732020203D205B25705D200A0D000C
:104E1A001B5B313B306D0A0D427566666572205B1D
:104E2A0025645D203A20546F74616C2053697A6559
:104E3A00202020203D205B25645D200A0D001B5B9D
:104E4A00313B306D0A0D4275666665725B25645D9D
:104E5A00203A204E756D626572206F662073746FFA
:104E6A007261676520636861726163746572732039
:104E7A0073696E6365206C617374203F3D205B2506
:104E8A00645D0A0D000D0A1B5B313B33346D7C2ACD
:104E9A002A2A2A2A2A2A2A2A2A2A2A205245504FE4
:104EAA00525420454E44454420202A2A2A2A2A2A96
:104EBA002A2A2A2A2A2A2A2A2A2A2A2A2A2A7C0A16
:064ECA000D0A0D0A0D00A7
:1053C300303030000000000000000000000000004A
:1053D30000000000000000000000000000000000CA
:1053E30000000000000000000000000000000000BA
:1053F30000000000000000000000000000000000AA
:105403000000000000000000000000000000000099
:105413000000000000000000000000000000000089
:105423000000000000000000000000000000000079
:105433000000000000000000000000000000000069
:105443000000000000000000000000000000000059
:105453000000000000000000000000000000000049
:105463000000000000000000000000000000000039
:105473000000000000000000000000000000000029
:105483000000000000000000000000000000000019
:03200000022006B5
:03205F0002200359
:03200300022E7931
:102E7200438E0C9000002274D0C0E0744EC0E01269
:102E8200360015811581740BC0E0744FC0E0123614
:102E92000015811581744DC0E0744FC0E0123600F8
:102EA200158115817481C0E0744FC0E0123600159F
:102EB20081158174C3C0E0744FC0E01236001581E1
:102EC20015817405C0E07450C0E0123600158115FA
:102ED200817447C0E07450C0E0123600158115813C
:102EE2007489C0E07450C0E01236001581158174F7
:102EF200CBC0E07450C0E01236001581158174D049
:102F0200C0E0744EC0E012360015811581740DC008
:102F1200E07451C0E012360015811581901C59747D
:102F220002F0E4A3F0901C57E4F0A3F0901C5FF0D1
:102F3200A3F0901C61F0A3F0901C63F0A3F01220A8
:102F420062AE82AF83901D95EEF0EFA3F08E828F7A
:102F520083123745AE82AF83901D97EEF0EFA3F058
:102F6200EE4F70347443C0E07451C0E01236001565
:102F72008115817479C0E07451C0E0123600158168
:102F82001581901D97E0FEA3E0FF7D008E828F8366
:102F92008DF012336A02301A74B3C0E07451C0E08B
:102FA20012360015811581901C637401F0E4A3F0C0
:102FB200901D95E0FEA3E0FF8E828F83123745AE0F
:102FC20082AF83901D9BEEF0EFA3F0EE4F703A7448
:102FD200E1C0E07451C0E0123600158115817479A8
:102FE200C0E07451C0E012360015811581901D9722
:102FF200E0FEA3E0FF7D008E828F838DF012336AA4
:10300200901C63E4F0A3F0800F7415C0E07452C00A
:10301200E012360015811581901C63E0F5F0A3E003
:1030220045F07003022F40901D9BE0F5F0A3E045B0
:10303200F07003022F407443C0E07452C0E01236B5
:103042000015811581747EC0E07452C0E012360012
:10305200158115817443C0E07452C0E01236001528
:10306200811581901D97E0FEA3E0FD7F007B007C2F
:1030720000901D95E0F9A3E0FAC3EB99EC64808A15
:10308200F063F08095F0501AEB2EF8EC3DF98F02C8
:10309200888289838AF074FF1235E50BBB00D20C5B
:1030A20080CF901D97E0FEA3E0FF901B8FEEF0EF24
:1030B200A3F0901D9BE0FEA3E0FF901B91EEF0EFCA
:1030C200A3F0901D95E0FEA3E0FF901DA5EEF0EFAA
:1030D200A3F0901D95E0FEA3E0FF901DA7EEF0EF98
:1030E200A3F0901C5BE4F0A3F0901C5D7402F0E48A
:1030F200A3F074B2C0E07452C0E01236001581151C
:103102008174EDC0E07452C0E01236001581158161
:103112007428C0E07453C0E0123600158115811284
:103122003292AE828E057F008D828F83C007C006E9
:10313200C0051232A09000201232A07469C0E0745F
:1031420053C0E07480C0E0123A30158115811581B8
:10315200D005D006D007BE61004068EE24854063EA
:10316200901C57E0FBA3E0FC901D95E0F9A3E0FA68
:10317200C3EB99EC64808AF063F08095F0501F9065
:103182001C5774012BF0E43CA3F0901D97E0F9A3C7
:10319200E0FAEB29F582EC3AF583EEF0800B8D82B2
:1031A2008F83C0061232A0D006901C5FE02401F08B
:1031B200A3E03400F0901C61E02401F0A3E03400AD
:1031C200F08031BE2B028017BE2D028012BE3F025C
:1031D200800DBE3D028008BE400280030230F490A2
:1031E2001C61E02401F0A3E03400F0901DA37401FF
:1031F200F0E4A3F0901DA3E0FDA3E0FF901D95E095
:10320200FBA3E0FC901B7BEEF0901B7C7459F074E6
:103212001CA3F0E4A3F0901B7F745BF0741CA3F07A
:10322200E4A3F0901B82745DF0741CA3F0E4A3F09D
:10323200901B85745FF0741CA3F0E4A3F0901B88CC
:103242007461F0741CA3F0E4A3F0901B8BEBF0EC20
:10325200A3F08D828F83122408AE82AF83BE011B3E
:10326200BF00187472C0E07453C0E07480C0E012F2
:103272003A30158115811581022F27BE0205BF0044
:103282000280030230F4901C57E4F0A3F00230F401
:104ED0001B5B313B33356D7C2A2A2A2A2A2A2A2A4F
:104EE0002A2A2A2A2A2A2A2A2A2A2A2A2A2A2A2A22
:104EF0002A2A2A2A2A2A2A2A2A2A2A2A2A2A2A2A12
:104F00002A2A2A2A2A2A2A7C0A0D007C2A2A2A2AC4
:104F10002A2A2A2A2A2A2A2A201B5B313B33366D69
:104F20005553455220494E54455246414345201B56
:104F30005B313B33356D2A2A2A2A2A2A2A2A2A2A31
:104F40002A2A2A2A2A2A2A2A2A7C0A0D007C202098
:104F500043686F6F73652061206368617261637479
:104F600065722066726F6D207468652062656C6F73
:104F700077206F7074696F6E73202020207C0A0D7B
:104F8000007C20201B5B313B33356D612D7A1B5B30
:104F9000313B33356D20207C20436861726163743E
:104FA000657220746F2073746F726520696E20744F
:104FB0006865206275666665722020202020207C4E
:104FC0000A0D007C20201B5B313B33356D2B1B5BB6
:104FD000313B33356D202020207C20416C6C6F6389
:104FE0006174652061206E65772062756666657202
:104FF00020202020202020202020202020202020B1
:10500000207C0A0D007C20201B5B313B33356D2D4D
:105010001B5B313B33356D202020207C2044656CA8
:1050200065746520612062756666657220202020A7
:105030002020202020202020202020202020202070
:105040002020207C0A0D007C20201B5B313B333567
:105050006D3F1B5B313B33356D202020207C20448D
:105060006973706C6179207468652068656170206F
:105070007265706F72742020202020202020202054
:1050800020202020207C0A0D007C20201B5B313B4F
:1050900033356D3D1B5B313B33356D202020207C4B
:1050A00020446973706C617920636F6E74656E74EF
:1050B00073206F66204275666665725F302020201F
:1050C000202020202020207C0A0D007C20201B5B3B
:1050D000313B33356D401B5B313B33356D20202038
:1050E000207C204672656520616C6C2074686520A8
:1050F00062756666657273202020202020202020A3
:105100002020202020202020207C0A0D007C2A2A1C
:105110002A2A2A2A2A2A2A2A2A2A2A2A2A2A2A2AEF
:105120002A2A2A2A2A2A2A2A2A2A2A2A2A2A2A2ADF
:105130002A2A2A2A2A2A2A2A2A2A2A2A2A7C0A0DBA
:105140000A0D001B5B313B33336D496E76616C6930
:1051500064204D616C6C6F6309093A204D616C6C81
:105160006F63206F6E2062756666657230206661BF
:10517000696C656421210A0D001B5B313B33316D85
:1051800053756767657374656420416374696F6EF6
:10519000093A2050726F7669646520736D616C6C9A
:1051A0006572206275666665722073697A65212171
:1051B0000A0D001B5B313B306D4D616C6C6F6320E1
:1051C0005375636365737366756C203A2042756628
:1051D0006665723020616C6C6F63617465640A0D82
:1051E000001B5B313B33316D496E76616C69642025
:1051F0004D616C6C6F633A204D616C6C6F63206F16
:105200006E2062756666657231206661696C6564E0
:1052100021210A0D001B5B313B306D4D616C6C6FC1
:1052200063205375636365737366756C203A20421F
:1052300075666665723120616C6C6F63617465645C
:105240000A0D001B5B313B33336D7C2A2A2A2A2A44
:105250002A2A2A2A2A2A2A2A2A2A2A2A2A2A2A2AAE
:105260002A2A2A2A2A2A2A2A2A2A2A2A2A2A2A2A9E
:105270002A2A2A2A2A2A2A2A2A2A7C0A0D007C205B
:10528000204275666665723020616E6420427566E4
:10529000666572203120416C6C6F636174696F6E5A
:1052A000205375637365737366756C2020207C0AC8
:1052B0000D001B5B313B33366D7C2A2A2A2A2A2AB1
:1052C0002A2A2A2A2A2A2A2A2A2A2A2A2A2A2A2A3E
:1052D0002A2A2A2A2A2A2A2A2A2A2A2A2A2A2A2A2E
:1052E0002A2A2A2A2A2A2A2A2A7C0A0D001B5B310A
:1052F0003B33366D7C2020202020202020202020C1
:105300002020202020456E74657220436861726100
:10531000637465722020202020202020202020205F
:10532000202020207C0A0D001B5B313B33366D7C36
:105330002A2A2A2A2A2A2A2A2A2A2A2A2A2A2A2ACD
:105340002A2A2A2A2A2A2A2A2A2A2A2A2A2A2A2ABD
:105350002A2A2A2A2A2A2A2A2A2A2A2A2A2A2A7C5B
:105360000A0D1B5B313B306D001B5B313B306D0D1B
:105370000A001B5B313B306D416C6C2062756666C8
:10538000657220636C65617265640D0A4665642010
:10539000696E207468652073697A6520666F722073
:1053A00062756666657220302066726F6D20737458
:0853B00061727421210D0A0055
:105493000000000000000000000000000000000009
:1054A30000000000000000000000000000000000F9
:1054B30000000000000000000000000000000000E9
:1054C30000000000000000000000000000000000D9
:1032920010980280FBAE997F008E828F8322AF83CB
:1032A200E582901C65F0EFA3F03099FD901C65E07B
:1032B200FEA3E0FF8E99C2998E828F8322AF83E5AF
:1032C20082901C67F0EFA3F0901C67E0FEA3E0FF82
:1032D2007C007D00C007C006C005C004123292AA5D
:1032E200828A017B0089828B83C0021232A0D002C3
:1032F200D004D005D006D007BA0D028003BA0A1353
:10330200901C67E0F9A3E0FBEC29F582ED3BF58325
:10331200E4F022EC2EF582ED3FF583EAF00CBC00DE
:10332200B30D80B0AF83E582901C69F0EFA3F090FB
:103332001C69E0FEA3E0FF8E828F83E0FD60207CAB
:10334200008D828C83C007C0061232A0D006D0073F
:103352000EBE00010F901C69EEF0EFA3F080D89032
:103362001C69EEF0EFA3F022AFF0AE83E582901C71
:103372006BF0EEA3F0EFA3F0901C6BE0FDA3E0FE78
:10338200A3E0901C6BE0F5F0A3E045F07001229001
:103392001C70E4F0A3F0901C7BE0FBA3E0FC901C0B
:1033A2006EEBF0ECA3F0901C72747BF0741CA3F033
:1033B200901C6EE0FBA3E0FC4B60418B018C02C0D1
:1033C20003C0048D008E04C3E998EA9CD004D003A4
:1033D200502A901C70EBF0ECA3F074022BFBE43C3F
:1033E200FC901C72EBF0ECA3F08B828C83E0FBA3CD
:1033F200E0FC901C6EEBF0ECA3F080B4901C6EE04D
:10340200FEA3E0FF901C6BE0FBA3E0FCA3E0EB2437
:10341200FEFBEC34FFFC74022BFAE43CFD8A828D45
:1034220083EEF0EFA3F0901C72E0F8A3E0F988823B
:103432008983EBF0ECA3F08B828C83E0F8A3E0F9B4
:10344200EEB50033EFB5012F88828983A3A3E0FE96
:10345200A3E0FF8A828D83EEF0EFA3F08B828C8350
:10346200E0FEA3E0FF8E828F83E0FEA3E0FF8B826B
:103472008C83EEF0EFA3F0901C70E0FEA3E0FF4E11
:10348200603C8E828F83E0F8A3E0F9E8B5032FE970
:10349200B5042B8B828C83E0FBA3E0FC8E828F83AE
:1034A200EBF0ECA3F074022EFEE43FFF8A828D83E0
:0F34B200E0FAA3E0FD8E828F83EAF0EDA3F02213
:06203500E478FFF6D8FD7F
:102013007938E94403601B7A049053C378C575A0EB
:102023001CE493F2A308B8000205A0D9F4DAF27510
:02203300A0FF0C
:1034C100AFF0AE83E582901C74F0EEA3F0EFA3F0B1
:1034D100901C77E4F0A3F0901C74E0FDA3E0FEA340
:1034E100E0FF8D828E838FF012445CFCBC20028051
:1034F10003BC09120DBD00010E901C74EDF0EEA38A
:10350100F0EFA3F080DC901C74EDF0EEA3F0EFA3DC
:10351100F08D828E838FF012445CFC901C79E4BCA8
:103521002D0104F0BC2D028003BC2B0E901C747481
:10353100012DF0E43EA3F0EFA3F0901C74E0FDA395
:10354100E0FEA3E0FF8D828E838FF012445CFCBC11
:1035510030009200405FEC24C692004058901C77E6
:10356100E0FBA3E0FC901C83EBF0ECA3F090000ADD
:10357100C007C006C0051238AEAB82AC83D005D0FF
:1035810006D0078D828E838FF012445CFAA3AD8240
:10359100AE83901C74EDF0EEA3F0EFA3F08A017AF4
:1035A10000E924D0F9EA34FFFA901C77E92BF0EA1C
:1035B1003CA3F08090901C74EDF0EEA3F0EFA3F02B
:1035C100901C79E06011901C77E0FEA3E0FFC3E45A
:1035D1009EFEE49FFF8008901C77E0FEA3E0FF8E33
:1035E100828F832220F71130F6138883A88220F579
:1035F10009F6A8837583002280FEF280F5F022C0CF
:1036010019858119E51924FDF8868318868218E445
:1036110093A324DB600C242560051236EE80F002B2
:103621003706D2D5E493A3C083C082B4731486F065
:103631001886831886821812445C6054A31236EEF1
:1036410080F5B4630818E6181236EE8043B46417A7
:10365100E630E74618E6F42401F608E6F43400F60D
:10366100742D1236EE8033B4782D86831886821835
:10367100E41236DFE5831236DEE5831236DFE582BA
:103681001236DEE5821236DF30D50574301236EEA1
:10369100D082D083023610B475F6E6FA18E6F9182E
:1036A1007C107D271236C9FF7CE87D031236C9C420
:1036B100F5837C647D001236C94283E975F00A8482
:1036C100C445F0F582EF80A97B000BC3E99CF9EAC0
:1036D1009DFA50F61BE92CF9EA3DFAEB22C4540F8E
:1036E100700320D51FC2D52490D43440D4C083C0E8
:1036F10082C0F0F582E8C0E01232A0D0E0F8D0F04C
:10370100D082D08322D01922901C7B7400F07404E3
:10371100A3F0904478E493FE740193FF1EBEFF0171
:103721001FEE2400FEEF3404FF900400EEF0EFA33F
:10373100F0901C7BE0FEA3E0FF8E828F83A3A3E4C5
:10374100F0A3F022AF83E582901C7DF0EFA3F0900F
:103751001C7BE0F5F0A3E045F07003123709901CE3
:103761007DE0FEA3E0FF4E600E74022EFCE43FFDFF
:10377100C3EC9EED9F500490000022901C7D7402CA
:103781002EF0E43FA3F0901C7DE0FEA3E0FFC3EE2A
:103791009404EF94005009901C7D7404F0E4A3F0AC
:1037A100901C7BE0FEA3E0FF901C7FEEF0EFA3F006
:1037B100901C81747BF0741CA3F0901C7FE0FEA32D
:1037C100E0FF4E70030238AA8E828F83E0FCA3E0F3
:1037D100FD8C028D038E008F01EAC398FAEB99FBF1
:1037E1008A008B01901C7DE0F517A3E0F518C3E872
:1037F1009517E99518500302388774042517F8E4E2
:103801003518F9C3EA98EB99404C8E028F03E517FE
:103811002AFAE5183BFB8A828B83ECF0EDA3F07466
:10382100022AFCE43BFD8E828F83A3A3E0F8A3E090
:10383100F98C828D83E8F0E9A3F0901C81E0FCA370
:10384100E0FD8C828D83EAF0EBA3F08E828F83EA18
:10385100F0EBA3F0801C901C81E0FCA3E0FD8E82C4
:103861008F83A3A3E0FAA3E0FB8C828D83EAF0EBC4
:10387100A3F0901C7FE0FCA3E0FD74022CFCE43D6E
:10388100FD8C828D832274022EFEE43FFF901C8109
:10389100EEF0EFA3F08E828F83E0FEA3E0FF901C99
:1038A1007FEEF0EFA3F00237BB90000022AA83ABBA
:1038B100828BF0901C83E0A4F8A9F08AF0E0A4299F
:1038C100F98BF0A3E0A429F58388822222AF83E556
:1038D10082901C87F0EFA3F0901C87E0FEA3E0FF2D
:1038E10030E709C3E49EFCE49FFD80048E048F054C
:1038F100901C85E0FEA3E0FF30E709C3E49EFAE4F3
:103901009FFB80048E028F03901C89EAF0EBA3F0E9
:103911008C828D83123936AE82AF83901C87E0A3EF
:10392100E030E70CC3E49EFCE49FFD8C828D832292
:103931008E828F8322AF83E582901C8BF0EFA3F000
:10394100901C8DE4F0901C8BE0FEA3E0FF7D0090C5
:103951001C89E0FBA3E0FC235401FA7036EB2BFB3E
:10396100EC33FC901C89EBF0ECA3F0901C89E0FB9C
:10397100A3E0FCC3EE9BEF9C5011ECC313CB13CB24
:10398100FC901C89EBF0ECA3F080080D901C8DEDF0
:10399100F080BC901C8DE0FF901C8BE0FDA3E0FE4D
:1039A100901C89E0FBA3E0FCC3ED9BEE9C400B90D7
:1039B1001C8BEDC39BF0EE9CA3F0901C89E0FDA352
:1039C100E0C313CD13CDFE901C89EDF0EEA3F08F73
:1039D100061FEE70C3901C8BE0FEA3E08E82F58380
:0139E10022C3
:10203B007800E84400600A790075A004E4F309D83D
:10204B00FC78C5E84418600C7919900400E4F0A3FF
:04205B00D8FCD9FADA
:1039E200C0198581197E008E831232A0D01922AFB0
:1039F200F0AE83E582901C8FF0EEA3F0EFA3F0907F
:103A02001C8FE0FDA3E0FEA3E0FF901C8EE0FC9083
:103A12001CA3E4F0A3F0A3F0901CA6EDF0EEA3F03B
:103A2200EFA3F0901CA9ECF09039E2023B36C019EA
:103A3200E581F51924FBFF901CA3E4F0A3F0A3F0A9
:103A4200E51924FBF8901CA6E6F008E6A3F008E6C8
:103A5200A3F0901CA9EFF09039E2123B36D0192264
:103A6200E582901C9FF0E0FF901C95E0C0E0A3E08F
:103A7200C0E0A3E0C0E0123A7D800D901C93E0C04C
:103A8200E0A3E0C0E08F8222158115811581901C90
:103A92009DE02401F0A3E03400F022E582901CA016
:103AA200F0E02430FF24C6500D74072FFF901C92C3
:103AB200E060034307208F82023A62E582901CA1F4
:103AC200F0E0FFC4540FF582C007123A9DD00753AD
:103AD200070F8F82023A9DE582901CA2F0901C98FB
:103AE200E0FCA3E0FDA3E0FEA3E0FF901C9CE0FB52
:103AF200901CA2E0FA79208B00E828F51AEF2354F3
:103B020001451AFBEC2CFCED33FDEE33FEEF33FFE7
:103B1200C3EB9A4007EBC39AFB43040119E970D740
:103B2200901C98ECF0EDA3F0EEA3F0EFA3F0901C44
:103B32009CEBF022AF83E582901CAAF0EFA3F090F9
:103B42001CAAE0FEA3E0FF901C93EEF0EFA3F0901E
:103B52001CA3E0FDA3E0FEA3E0FF901C95EDF0EEB8
:103B6200A3F0EFA3F0901C9DE4F0A3F0901CA6E05C
:103B7200FDA3E0FEA3E0FF8D828E838FF012445CF2
:103B8200FC901CA674012DF0E43EA3F0EFA3F0EC30
:103B92007003024438BC25028003024430901CACFE
:103BA200E4F0901CADF0901CAEF0901CAFF0901CB5
:103BB200B0F0901CB1F0901CB2F0901CB3F0901CCD
:103BC200B5F0901CB6F0A3F0901CB814F0A3F090DE
:103BD2001CA6E0FDA3E0FEA3E0FF8D828E838FF0A2
:103BE20012445CFBA3AD82AE83901CA6EDF0EEA363
:103BF200F0EFA3F0901CBCEBF0BB25088B82123ACD
:103C020062023B6EBB30005003023CCFEB24C65035
:103C120003023CCF901CB8E0F521A3E0F52274FF2B
:103C2200B52163B52260C005C006C007901CB6E08E
:103C3200FAA3E0FF901C83EAF0EFA3F090000AC021
:103C420005C0031238AEAE82AF83D003D0058B021B
:103C52007D00EA2EFEED3FFFEE24D0FEEF34FFFFA3
:103C6200901CB6EEF0EFA3F0D007D006D005901C62
:103C7200B6E0F5F0A3E045F06003023BDC901CAD3A
:103C82007401F0023BDCC005C006C007901C83E54E
:103C920021F0E522A3F090000AC006C005C003127D
:103CA20038AEAA82AF83D003D005D0067E00EB2ABD
:103CB200FAEE3FFFEA24D0FAEF34FFFF901CB8EA95
:103CC200F0EFA3F0D007D006D005023BDC901CBC7D
:103CD200E0FBBB2E2FC005C006C007901CB8E0FA5F
:103CE200A3E0FFBAFF05BFFF028009D007D006D0CC
:103CF20005023BDCD007D006D005901CB8E4F0A347
:103D0200F0023BDCBB61004014EB2485400F901CA9
:103D1200BC74DF5BF0901C927401F08005901C92E1
:103D2200E4F0901CBCE0FBBB20028075BB2B028040
:103D320067BB2D028059BB4202806FBB4302807C6D
:103D4200BB4403023FC6BB4603023FECBB4803022F
:103D52003BDCBB4903023FC6BB4A03023BDCBB4C14
:103D6200028050BB4F03023FD4BB5003023F34BB1F
:103D720053028077BB5403023BDCBB5503023FDC9A
:103D8200BB5803023FE4BB5A03023BDC023FF49000
:103D92001CAC7401F0023BDC901CAE7401F0023BDF
:103DA200DC901CAF7401F0023BDC901CB17401F09A
:103DB200023BDC901CB27401F0023BDC901CB1E0CF
:103DC200600E901CA9E014F9F0901CBCE7F0800F83
:103DD200901CA9E024FEFFF08F01901CBCE7F0903C
:103DE2001CBCE0F582123A62024003901CA9E02456
:103DF200FDFFF08F018705098706098707191990CA
:103E02001C98EDF0EEA3F0EFA3F08D828E838FF07D
:103E1200124444858221858322901CB8E0FAA3E0F3
:103E2200FDBAFF0DBDFF0A901CB8E521F0E522A303
:103E3200F0901CACE0704B901CB6E0FAA3E0FDC31E
:103E4200E5219AE5229D503A901CB6EAC39521F0ED
:103E5200ED9522A3F0901CB6E0FAA3E0FD8A068D50
:103E6200071ABAFF011DEE4F6010758220C005C00F
:103E720002123A62D002D00580E3901CB6EAF0ED5D
:103E8200A3F0901CB8E0F524A3E0F525901C98E07F
:103E9200FAA3E0FDA3E0FF8A828D838FF012445CD7
:103EA200F523603CC3E4952474808525F063F0809B
:103EB20095F0502C152474FFB52402152585238214
:103EC200123A62901C98E0FAA3E0FDA3E0FF0ABA5E
:103ED20000010D901C98EAF0EDA3F0EFA3F080AC86
:103EE200901CACE07003024003901CB6E0FEA3E01D
:103EF200FFC3E5219EE5229F4003024003901CB6CA
:103F0200EEC39521F0EF9522A3F0901CB6E0FEA33C
:103F1200E0FF8E028F051EBEFF011FEA4D700302F5
:103F22003FFB758220C007C006123A62D006D00756
:103F320080E0901CA9E024FDFDF08D018726098711
:103F4200270987281919901C98E526F0E527A3F080
:103F5200E528A3F0901C9AE0FDBD80004008901C6B
:103F6200BC7443F08020BD60004008901CBC7450BB
:103F7200F08013BD40004008901CBC7449F08006DC
:103F8200901CBC7458F0901CBCE0FDF582C0051278
:103F92003A6275823A123A62758230123A627582D8
:103FA20078123A62D005BD4902800EBD50028009E6
:103FB200901C99E0F582123ABD901C98E0F58212AD
:103FC2003ABD803D901CB07401F0901CB5740AF0AB
:103FD200802F901CB57408F08027901CB5740AF0ED
:103FE200801F901CB57410F08017901CB37401F000
:103FF200800F8B82123A628008901CB6EEF0EFA31B
:10400200F0901CB3E06071901CA9E024FCFFF08FDB
:104012000187030987050987060987071919199076
:104022001C98EBF0EDA3F0EEA3F0EFA3F0901C9838
:1040320074B8F07453A3F07480A3F0901C98E0F568
:1040420026A3E0F527A3E0F52874012526FAE43536
:1040520027FBAF28901C98EAF0EBA3F0EFA3F085C2
:1040620026828527838528F012445CFF7003023B79
:104072006E8F82123A6280C3901CB5E07003023BDD
:104082006E901CB1E06047901CA9E014F9F087071C
:104092007E007D007B00901C98EFF0EEA3F0EDA374
:1040A200F0EBA3F0901CB0E06003024146901C9834
:1040B200E0FBA3E0A3E0A3E07D007E007F00901C74
:1040C20098EBF0EDA3F0EEA3F0EFA3F08076901C56
:1040D200B2E06028901CA9E024FCFFF08F01870366
:1040E200098705098706098707191919901C98EB92
:1040F200F0EDA3F0EEA3F0EFA3F08048901CA9E04E
:1041020024FEFFF08F01870609870719EF3395E038
:10411200FDFB901C98EEF0EFA3F0EDA3F0EBA3F003
:10412200901CB0E0701E901C98E0FBA3E0FDA3E0A1
:10413200A3E07E007F00901C98EBF0EDA3F0EEA3CD
:10414200F0EFA3F0901CB0E06041901C98E0FBA35C
:10415200E0FDA3E0FEA3E0FF30E72B901C98E0FB1C
:10416200A3E0FDA3E0FEA3E0FFC3E49BFBE49DFD0F
:10417200E49EFEE49FFF901C98EBF0EDA3F0EEA30B
:10418200F0EFA3F08005901CB0E4F0901CB4740131
:10419200F0901CB5E0F5247529C2752A1CE4F521BE
:1041A200F522901C9CE4F0852482123AD9901CB42A
:1041B200E07033901C9CE0C454F0F526901C9CE007
:1041C200C4540F4526F526852982852A83E0FFE51A
:1041D200264207852982852A83EFF0152974FFB5C7
:1041E2002902152A800C901C9CE0FF852982852AD1
:1041F20083F00521E4B521020522901CB4E0B4014C
:1042020000E433F0901C98E0FAA3E0FBA3E0FEA3E5
:10421200E0FFEA4B4E4F708A901CC3E529F0E52A75
:10422200A3F0901CBAE521F0E522A3F0901CB6E0C1
:10423200F5F0A3E045F07009901CB67401F0E4A318
:10424200F0901CADE0FFE07047901CACE07041853F
:10425200212985222A901CB6E0FAA3E0FBC007AF11
:10426200290F8F067F00C3EE9AEF9BD00750197576
:104272008220C007C003C002123A62D002D003D02B
:10428200071ABAFF011B80D5901CB6EAF0EBA3F027
:10429200901CB0E0602075822DC007123A62D007F0
:1042A200901CB6E024FFFDA3E034FFFE901CB6EDA7
:1042B200F0EEA3F08056901CBAE0F5F0A3E045F0D2
:1042C200604A901CAEE0602075822BC007123A62F1
:1042D200D007901CB6E024FFFDA3E034FFFE901C43
:1042E200B6EDF0EEA3F08024901CAFE0601E758264
:1042F20020C007123A62D007901CB6E024FFFDA34B
:10430200E034FFFE901CB6EDF0EEA3F0901CACE0A2
:104312007048901CBAE0F529A3E0F52A901CB6E09B
:10432200FAA3E0FBC0078A068B071ABAFF011BC378
:10433200E5299EE52A9FD0075053EF60067D307E27
:104342000080047D207E008D82C007C003C002125F
:104352003A62D002D003D00780CA901CB6E0FEA316
:10436200E0FF901CBAE0F529A3E0F52AC3E5299EF7
:10437200E52A9F500F901CB6EEC39529F0EF952ABF
:10438200A3F08011901CB6E4F0A3F08008901CB654
:10439200EAF0EBA3F0901CC3E0FEA3E0FF901CBA8E
:1043A200E0F529A3E0F52AAA29AD2A152974FFB55B
:1043B2002902152AEA4D6045901CB4E0B40100E4DC
:1043C20033F0901CB4E070140EBE00010F8E828F89
:1043D20083E0C4540FFD901C9CF0800E8E828F836C
:1043E200E0FD53050F901C9CEDF0901C9CE0F582C3
:1043F200C007C006123A9DD006D00780AA901CAC16
:10440200E07003023B6E901CB6E0FEA3E0FF8E0359
:104412008F051EBEFF011FEB4D7003023B6E7582BE
:1044220020C007C006123A62D006D00780E08C8214
:10443200123A62023B6E901C9DE0FEA3E08E82F572
:024442008322D3
:0B53B8003C4E4F20464C4F41543E003D
:10444400AA82AB8312445C6003A380F8C3E5829A1A
:08445400F582E5839BF583224C
:0D20060075812A122E72E58260030220030C
:10445C0020F71430F6148883A88220F507E6A88389
:0C446C0075830022E280F7E49322E02236
:00000001FF
