:03200000022006B5
:03205F0002200359
:032003000222C5F1
:1020620010980280FBAE997F008E828F8322AF830D
:10207200E582900400F0EFA3F03099FD900400E0B7
:10208200FEA3E0FF8E99C2998E828F8322AF83E5F1
:1020920082900402F0EFA3F0900402E0FEA3E0FFBE
:1020A2007C007D00C007C006C005C004122062AAE1
:1020B200828A017B0089828B83C002122070D00247
:1020C200D004D005D006D007BA0D028003BA0A1395
:1020D200900402E0F9A3E0FBEC29F582ED3BF583E5
:1020E200E4F022EC2EF582ED3FF583EAF00CBC0021
:1020F200B30D80B0AF83E582900404F0EFA3F090BB
:102102000404E0FEA3E0FF8E828F83E0FD60207C6A
:10211200008D828C83C007C006122070D006D007C3
:102122000EBE00010F900404EEF0EFA3F080D890F1
:102132000404EEF0EFA3F0227900758200758300AB
:1021420012FFF0AEE07F00C006C00774ABC0E074BF
:102152002DC0E07480C0E012233FE58124FBF581AD
:1021620022790075820175830012FFF0AEE07F00D4
:10217200C006C00774CEC0E0742DC0E07480C0E019
:1021820012233FE58124FBF58122790075820275D5
:10219200830012FFF0AEE07F00C006C00774ECC0FF
:1021A200E0742DC0E07480C0E012233FE58124FB7F
:1021B200F58122790075820375830012FFF0AEE08B
:1021C2007F00C006C007740AC0E0742EC0E07480AD
:1021D200C0E012233FE58124FBF581227428C0E090
:1021E200742EC0E07480C0E012233F158115811562
:1021F200817902E55575820075834012FFF07445BE
:10220200C0E0742EC0E07480C0E012233F15811537
:10221200811581E5E060FC7455C0E0742EC0E07465
:1022220080C0E012233F158115811581E47582007B
:1022320075834093AEE07F00C006C0077464C0E0BF
:10224200742EC0E07480C0E012233FE58124FBF5C8
:10225200812290400075F00074341222D6A37412C9
:102262001222D690400075F000122D8BFEA3122D83
:102272008BFFC006C0077482C0E0742EC0E0748079
:10228200C0E012233FE58124FBF5817901758300CB
:102292008583E012FFF0E5E060FC90400075F000FD
:1022A200122D8BFEA3122D8BFFC006C00774B1C086
:1022B200E0742EC0E07480C0E012233FE58124FB6D
:1022C200F5812212213A12216312218C1221B512B8
:0422D20021DE80FE8B
:102DAB00546865206D616E756661637475726572CA
:102DBB002049442076616C75652069732025782045
:102DCB000D0A005468652064657669636520494483
:102DDB00312076616C7565206973202578200D0A8A
:102DEB000054686520646576696365204944322028
:102DFB0076616C7565206973202578200D0A005467
:102E0B006865206465766963652049443320766183
:102E1B006C7565206973202578200D0A0050726F40
:102E2B006772616D6D696E672030783020776974D9
:102E3B00682030783535200D0A004265666F726563
:102E4B00207768696C65200A0D00416674657220F5
:102E5B007768696C65200A0D005468652070726F85
:102E6B006772616D6D65642076616C756520697341
:102E7B00202578200D0A004265666F726520657209
:102E8B006173696E6720626C6F636B206174206184
:102E9B00646472657373203078343030303A20308C
:102EAB007825780D0A00416674657220657261732E
:102EBB00696E6720626C6F636B2061742061646460
:102ECB0072657373203078343030303A2030782587
:042EDB00780D0A0064
:06203500E478FFF6D8FD7F
:102013007900E94400601B7A00902EEA784075A0AD
:1020230004E493F2A308B8000205A0D9F4DAF27528
:02203300A0FF0C
:1022D60020F71130F6138883A88220F509F6A88323
:0B22E6007583002280FEF280F5F022DC
:10203B007800E84400600A790075A004E4F309D83D
:10204B00FC7840E84400600C7901900400E4F0A3B4
:04205B00D8FCD9FADA
:1022F100C0128581127E008E83122070D01222AF0F
:10230100F0AE83E582900408F0EEA3F0EFA3F09025
:102311000408E0FDA3E0FEA3E0FF900407E0FC90C9
:10232100041CE4F0A3F0A3F090041FEDF0EEA3F081
:10233100EFA3F0900422ECF09022F1022445C012A8
:10234100E581F51224FBFF90041CE4F0A3F0A3F057
:10235100E51224FBF890041FE6F008E6A3F008E676
:10236100A3F0900422EFF09022F1122445D0122222
:10237100E582900418F0E0FF90040EE0C0E0A3E0D5
:10238100C0E0A3E0C0E012238C800D90040CE0C0FB
:10239100E0A3E0C0E08F82221581158115819004B0
:1023A10016E02401F0A3E03400F022E58290041944
:1023B100F0E02430FF24C6500D74072FFF90040B6A
:1023C100E060034307208F82022371E58290041AA3
:1023D100F0E0FFC4540FF582C0071223ACD00753BD
:1023E100070F8F820223ACE58290041BF090041149
:1023F100E0FCA3E0FDA3E0FEA3E0FF900415E0FBF9
:1024010090041BE0FA79208B00E828F513EF2354A0
:10241100014513FBEC2CFCED33FDEE33FEEF33FFF6
:10242100C3EB9A4007EBC39AFB43040119E970D748
:10243100900411ECF0EDA3F0EEA3F0EFA3F0900403
:1024410015EBF022AF83E582900423F0EFA3F09027
:102451000423E0FEA3E0FF90040CEEF0EFA3F09064
:10246100041CE0FDA3E0FEA3E0FF90040EEDF0EEFE
:10247100A3F0EFA3F0900416E4F0A3F090041FE0A2
:10248100FDA3E0FEA3E0FF8D828E838FF0122D8BE2
:10249100FC90041F74012DF0E43EA3F0EFA3F0ECD7
:1024A1007003022D47BC25028003022D3F900425B5
:1024B100E4F0900426F0900427F0900428F09004B2
:1024C10029F090042AF090042BF090042CF0900451
:1024D1002EF090042FF0A3F090043114F0A3F090AB
:1024E100041FE0FDA3E0FEA3E0FF8D828E838FF049
:1024F100122D8BFBA3AD82AE8390041FEDF0EEA3F2
:10250100F0EFA3F0900435EBF0BB25088B8212238A
:102511007102247DBB300050030225DEEB24C6503E
:10252100030225DE900431E0F508A3E0F50974FF0C
:10253100B50863B50960C005C006C00790042FE067
:10254100FAA3E0FF90043EEAF0EFA3F090000AC086
:1025510005C003122D6BAE82AF83D003D0058B0271
:102561007D00EA2EFEED3FFFEE24D0FEEF34FFFFAB
:1025710090042FEEF0EFA3F0D007D006D005900421
:102581002FE0F5F0A3E045F060030224EB90042670
:102591007401F00224EBC005C006C00790043EE5BB
:1025A10008F0E509A3F090000AC006C005C00312B7
:1025B1002D6BAA82AF83D003D005D0067E00EB2A13
:1025C100FAEE3FFFEA24D0FAEF34FFFF900431EA3C
:1025D100F0EFA3F0D007D006D0050224EB9004352C
:1025E100E0FBBB2E2FC005C006C007900431E0FA06
:1025F100A3E0FFBAFF05BFFF028009D007D006D0D4
:10260100050224EBD007D006D005900431E4F0A3F5
:10261100F00224EBBB61004014EB2485400F9004D1
:102621003574DF5BF090040B7401F0800590040BAE
:10263100E4F0900435E0FBBB20028075BB2B0280E7
:1026410067BB2D028059BB4202806FBB4302807C75
:10265100BB44030228D5BB46030228FBBB48030247
:1026610024EBBB49030228D5BB4A030224EBBB4C34
:10267100028050BB4F030228E3BB5003022843BB37
:1026810053028077BB54030224EBBB55030228EBB2
:10269100BB58030228F3BB5A030224EB022903901F
:1026A10004257401F00224EB9004277401F0022444
:1026B100EB9004287401F00224EB90042A7401F0D9
:1026C1000224EB90042B7401F00224EB90042AE025
:1026D100600E900422E014F9F0900435E7F0800FC9
:1026E100900422E024FEFFF08F01900435E7F09082
:1026F1000435E0F582122371022912900422E024AC
:10270100FDFFF08F018705098706098707191990D1
:102711000411EDF0EEA3F0EFA3F08D828E838FF024
:10272100122D53858208858309900431E0FAA3E0D4
:10273100FDBAFF0DBDFF0A900431E508F0E509A3DC
:10274100F0900425E0704B90042FE0FAA3E0FDC364
:10275100E5089AE5099D503A90042FEAC39508F0DF
:10276100ED9509A3F090042FE0FAA3E0FD8A068D10
:10277100071ABAFF011DEE4F6010758220C005C017
:1027810002122371D002D00580E390042FEAF0ED0C
:10279100A3F0900431E0F50BA3E0F50C900411E0F7
:1027A100FAA3E0FDA3E0FF8A828D838FF0122D8BC7
:1027B100F50A603CC3E4950B7480850CF063F080EE
:1027C10095F0502C150B74FFB50B02150C850A8280
:1027D100122371900411E0FAA3E0FDA3E0FF0ABA0D
:1027E10000010D900411EAF0EDA3F0EFA3F080AC2D
:1027F100900425E0700302291290042FE0FEA3E06B
:10280100FFC3E5089EE5099F400302291290042FAA
:10281100EEC39508F0EF9509A3F090042FE0FEA315
:10282100E0FF8E028F051EBEFF011FEA4D700302FD
:10283100290A758220C007C006122371D006D0076D
:1028410080E0900422E024FDFDF08D01870D0987D1
:102851000E09870F1919900411E50DF0E50EA3F08B
:10286100E50FA3F0900413E0FDBD80004008900443
:10287100357443F08020BD600040089004357450E9
:10288100F08013BD400040089004357449F0800683
:102891009004357458F0900435E0FDF582C00512BE
:1028A100237175823A1223717582301223717582F8
:1028B10078122371D005BD4902800EBD50028009F6
:1028C100900412E0F5821223CC900411E0F58212FB
:1028D10023CC803D9004297401F090042E740AF0F9
:1028E100802F90042E7408F0802790042E740AF033
:1028F100801F90042E7410F0801790042C7401F046
:10290100800F8B82122371800890042FEEF0EFA3C9
:10291100F090042CE06071900422E024FCFFF08F21
:10292100018703098705098706098707191919907E
:102931000411EBF0EDA3F0EEA3F0EFA3F09004117E
:1029410074DFF0742EA3F07480A3F0900411E0F50D
:102951000DA3E0F50EA3E0F50F7401250DFAE435A2
:102961000EFBAF0F900411EAF0EBA3F0EFA3F0859B
:102971000D82850E83850FF0122D8BFF70030224CB
:102981007D8F8212237180C390042EE07003022494
:102991007D90042AE06047900422E014F9F0870753
:1029A1007E007D007B00900411EFF0EEA3F0EDA31B
:1029B100F0EBA3F0900429E06003022A5590041182
:1029C100E0FBA3E0A3E0A3E07D007E007F00900494
:1029D10011EBF0EDA3F0EEA3F0EFA3F080769004FD
:1029E1002BE06028900422E024FCFFF08F01870394
:1029F100098705098706098707191919900411EB39
:102A0100F0EDA3F0EEA3F0EFA3F08048900422E0F4
:102A110024FEFFF08F01870609870719EF3395E040
:102A2100FDFB900411EEF0EFA3F0EDA3F0EBA3F0AA
:102A3100900429E0701E900411E0FBA3E0FDA3E0E7
:102A4100A3E07E007F00900411EBF0EDA3F0EEA374
:102A5100F0EFA3F0900429E06041900411E0FBA3A2
:102A6100E0FDA3E0FEA3E0FF30E72B900411E0FBC3
:102A7100A3E0FDA3E0FEA3E0FFC3E49BFBE49DFD17
:102A8100E49EFEE49FFF900411EBF0EDA3F0EEA3B2
:102A9100F0EFA3F08005900429E4F090042D740177
:102AA100F090042EE0F50B75103B751104E4F50868
:102AB100F509900415E4F0850B821223E890042DAA
:102AC100E07033900415E0C454F0F50D900415E066
:102AD100C4540F450DF50D851082851183E0FFE586
:102AE1000D4207851082851183EFF0151074FFB533
:102AF10010021511800C900415E0FF8510828511DC
:102B010083F00508E4B50802050990042DE0B4013D
:102B110000E433F0900411E0FAA3E0FBA3E0FEA38C
:102B2100E0FFEA4B4E4F708A90043CE510F0E5114E
:102B3100A3F0900433E508F0E509A3F090042FE039
:102B4100F5F0A3E045F0700990042F7401F0E4A3BF
:102B5100F0900426E0FFE07047900425E070418585
:102B6100081085091190042FE0FAA3E0FBC007AF1C
:102B7100100F8F067F00C3EE9AEF9BD00750197597
:102B81008220C007C003C002122371D002D003D03B
:102B9100071ABAFF011B80D590042FEAF0EBA3F0CE
:102BA100900429E0602075822DC007122371D0079F
:102BB10090042FE024FFFDA3E034FFFE90042FEDED
:102BC100F0EEA3F08056900433E0F5F0A3E045F079
:102BD100604A900427E0602075822BC007122371A0
:102BE100D00790042FE024FFFDA3E034FFFE900402
:102BF1002FEDF0EEA3F08024900428E0601E758292
:102C010020C007122371D00790042FE024FFFDA3F9
:102C1100E034FFFE90042FEDF0EEA3F0900425E0E8
:102C21007048900433E0F510A3E0F51190042FE013
:102C3100FAA3E0FBC0078A068B071ABAFF011BC380
:102C4100E5109EE5119FD0075053EF60067D307E61
:102C51000080047D207E008D82C007C003C0021267
:102C61002371D002D003D00780CA90042FE0FEA3C5
:102C7100E0FF900433E0F510A3E0F511C3E5109EE9
:102C8100E5119F500F90042FEEC39510F0EF9511B1
:102C9100A3F0801190042FE4F0A3F0800890042F9A
:102CA100EAF0EBA3F090043CE0FEA3E0FF900433D4
:102CB100E0F510A3E0F511AA10AD11151074FFB5E0
:102CC10010021511EA4D604590042DE0B40100E4B5
:102CD10033F090042DE070140EBE00010F8E828F30
:102CE10083E0C4540FFD900415F0800E8E828F8313
:102CF100E0FD53050F900415EDF0900415E0F58209
:102D0100C007C0061223ACD006D00780AA900425C4
:102D1100E0700302247D90042FE0FEA3E0FF8E0308
:102D21008F051EBEFF011FEB4D700302247D7582CE
:102D310020C007C006122371D006D00780E08C8224
:102D410012237102247D900416E0FEA3E08E82F529
:022D51008322DB
:0B2EDF003C4E4F20464C4F41543E003B
:102D5300AA82AB83122D8B6003A380F8C3E5829A0A
:102D6300F582E5839BF58322AA83AB828BF09004E3
:102D73003EE0A4F8A9F08AF0E0A429F98BF0A3E0DF
:082D8300A429F58388822222B5
:0D200600758113122DA7E5826003022003EF
:102D8B0020F71430F6148883A88220F507E6A88371
:102D9B0075830022E280F7E49322E0227582002201
:00000001FF
